:020000040800F2
:10000000205C002055030008857B0008177100085C
:10001000757B0008F9350008CD8900080000000054
:100020000000000000000000000000009502000831
:10003000333E000800000000F102000821810008A2
:100040006F030008957B00086F0300086F0300082A
:100050001D3F00083D7C00086F0300086F03000887
:100060006F030008353E00086F0300086F030008A7
:10007000F93C00086F0300086F0300086F030008D5
:100080006F0300086F0300086F0300086F03000888
:100090006F0300086F0300086F0300086F03000878
:1000A0006F0300084D8200086F0300086F0300080B
:1000B0006F0300086F0300086F0300086F03000858
:1000C0006F0300086F0300086F0300086F03000848
:1000D0006F030008D9880008E9880008F98800083B
:1000E0006F0300086F0300086F0300086F03000828
:1000F0006F0300086F0300086F0300086F03000818
:10010000D93F00086F0300086F0300086F03000861
:100110006F0300086F0300086F0300086F030008F7
:100120006F030008193D00086F0300086F03000803
:100130006F0300086F0300086F0300086F030008D7
:100140006F0300086F0300086F0300086F030008C7
:100150006F0300086F0300086F0300080D89000893
:100160006F0300086F0300086F0300086F030008A7
:100170006F0300086F0300086F0300080000000011
:100180006F030008594100086F0300086F0300085F
:100190006F030008417C00086F0300086F0300082C
:1001A0002D7100081D710008093D000800F002F8DB
:1001B00000F061F80AA090E8000C82448344AAF1A0
:1001C0000107DA4501D100F056F8AFF2090EBAE89E
:1001D0000F0013F0010F18BFFB1A43F0010318477B
:1001E000180D0100380D0100103A24BF78C878C1FD
:1001F000FAD8520724BF30C830C144BF04680C602D
:10020000704700000023002400250026103A28BF74
:1002100078C1FBD8520728BF30C148BF0B60704778
:1002200067290CF00484642900F00882782900F022
:100230004182732901F04780002070471FB50CF000
:10024000E9FB9DE8030000F071FD01F065FB04008F
:10025000002000210BF0FEFF401C60600020002108
:100260000CF00EF8E06000F025FD1FBD10B5002079
:1002700001F0F2FA10BD01F06DFE1146FFF7DEFF4E
:1002800009F0EEFD02F0C0F803B4FFF7EFFF03BC86
:1002900009F06DFB2C4B19680868B0E8F04F80F34B
:1002A0000988BFF36F8F4FF0000080F3118870470B
:1002B0000000000008480068006880F308884FF0DC
:1002C000000080F3148862B661B6BFF34F8FBFF3AE
:1002D0006F8F00DF00BF00BF08ED00E0DFF80C000B
:1002E000016841F470010160704700BF88ED00E0D3
:1002F000EFF30980BFF36F8F134B1A681EF0100FD6
:1003000008BF20ED108A20E9F04F106009B44FF0CB
:10031000500080F31188BFF34F8FBFF36F8F0BF046
:1003200029F84FF0000080F3118809BC19680868AB
:10033000B0E8F04F1EF0100F08BFB0EC108A80F349
:100340000988BFF36F8F704744000020EFF30580EA
:10035000704700000948804709480047FEE7FEE76C
:10036000FEE7FEE7FEE7FEE7FEE7FEE7FEE7FEE765
:1003700004480549054A064B7047000039820008C9
:10038000AD01000820560020205C002020580020ED
:1003900020580020704770B5A0FB0140B4F1805197
:1003A00070F1000024BF002070BD204600F007F867
:1003B00005001CBF214601F088FA284670BD70B5C3
:1003C000064600F093FC056806F10B0020F00704D8
:1003D000B4429CBF002070BD2B466A68BAB1106859
:1003E000A04210D304F1080188423CBF5068586015
:1003F00007D35168101941601168091B01605860EA
:100400001460101D70BD13465268002AE7D12146C2
:10041000284600F077FC0028DED170BD70B5044698
:10042000051F00F063FC0068002C14BF446870BD19
:10043000002C18BFAC423CBF20466468F8D301686A
:100440000A18AA4218BF456003D12A68054611441C
:10045000016028684119A1421CBF6C6070BD6168D1
:10046000696021680844286070BD53EA020C00F0FE
:1004700069802DE9F04B4FF00006002B1FBFB3FA47
:1004800083F503FA05F424FA05F65E4012BF16431D
:10049000B2FA82F502FA05F4C5F120051EBF22FA70
:1004A00005FC44EA0C04203556EA044C4FEA144497
:1004B00018BF641C4FF000084FF00009904271EB28
:1004C000030C39D3002919BFB1FA81F701FA07F6F5
:1004D000B0FA80F700FA07F6C7F120071EBF20FA2E
:1004E00007FC46EA0C062037B6FBF4FCA7EB050731
:1004F000103F07F01F0BCBF120060CFA0BFB2CFA78
:1005000006F644BFB3460026202FA4BF5E464FF038
:10051000000B5BEA060C08BF4FF0010B19EB0B094F
:10052000ABFB027C48EB0608C01B06FB02CC0BFBB6
:1005300003CC71EB0C01C1E70B460246414648462D
:10054000BDE8F08B13B54FF000004FF00001AFF3A2
:100550000080BDE81C4070470FB4044910B503AAE1
:10056000029800F0B5FE10BC5DF814FB10000020EE
:100570000FB41CB5084B06AA7B4469460090059849
:1005800000F077FE04460020694600F085FE204614
:100590001CBC5DF814FB00001D0D000070B5044686
:1005A00085690068C10601D5302600E02026C00715
:1005B00007D070BDD4E9012130469047206A401C25
:1005C00020626D1EF6D570BD70B504468569007851
:1005D000C00707D170BDD4E9012120209047206ACF
:1005E000401C20626D1EF6D570BD70B50C460546E8
:1005F000012A05D02878800600D5EA69002302E0A8
:10060000012305E05B1C934202D2E05C0028F9D193
:10061000A869E618C01AA861286A18442862284602
:10062000FFF7BCFF04E0D5E9012114F8010B904766
:10063000B442F8D32846FFF7C7FF70BD2DE9F0415B
:100640000646002410687529314616A510D0AFF370
:100650000080002802DA404213A507E031688A07CB
:1006600001D512A502E0490704D511A5012401E036
:10067000AFF3008000210A2206F1240709E0B0FB55
:10068000F2FCB0FBF2F302FB1C0030307854184649
:10069000491C0028F3D123462A463046BDE8F041E4
:1006A00000F07ABB000000002D0000002B000000CD
:1006B0002000000070B504460D4621461068AFF3D7
:1006C00000802188090502D50F4A7A4402E00E4ACB
:1006D0007A440E32002104F1240305E000F00F06F5
:1006E0000009965D5E54491C0028F7D1207800234C
:1006F000000704D5702D02D009B102231132204623
:10070000BDE8704000F048BBEAC600002DE9F05F8C
:10071000894604464FF0000ADFF824B1FB44C0F8D4
:1007200020A02046E168884700287DD0252806D0F3
:10073000D4E901219047206A401C2062F1E700259E
:100740005F462046E16888472028064607DB312EB1
:1007500005D2B81910F8200C08B10543F1E7A80735
:1007600001D525F00405C4F81CA00027C4F818A082
:100770002A2E09D0304609F0F3F838B304EB870885
:10078000303EC8F8186019E059F8041B204604EB05
:1007900087029161E1688847012F064618D1E06918
:1007A000002820DA25F020051DE0D8F8180000EB1D
:1007B000800006EB40003038C8F818002046E16899
:1007C0008847064609F0CCF80028EED1012F0AD060
:1007D0002E2E08D12046E16888477F1C0646022F4E
:1007E00045F02005C4DBA069002803DA404245F04B
:1007F0000105A061E80701D025F01005A6B1A6F11A
:100800004100192802D8203645F400654A46314691
:10081000204625604D46FFF703FD60B1012807D053
:10082000ED1D25F0070000E007E000F1080978E77A
:1008300005F1040975E730467AE7206ABDE8F09FC4
:10084000C0C600000FB400B58DB010A9099000918A
:100850000B904FF0FF300A9000200C90064878442F
:100860000690064878446A4607900F9909A800F058
:10087000C3FF0DB05DF814FBB70F0000CF0F0000F1
:1008800010B5002001F009F8FFF7F0FCBDE81040BA
:10089000012009F06CB82DE9F041074615460E46D7
:1008A0001020FFF78CFD04000AD06760C4E90265E0
:1008B00000F020FA0168216004600020BDE8F081AA
:1008C0000120FBE70EB5054614460E4613A000F0C6
:1008D000F2FF284600F0EFFF16A000F0ECFF3046D4
:1008E00000F0E9FF15A000F0E6FF00218DF80B10E5
:1008F0000A210DF10A008DF80A1008E094FBF1F2CC
:1009000001FB124294FBF1F4303200F8012D002C6F
:10091000F4DC00F0D0FFFFF7B3FF00002A2A2A2002
:10092000617373657274696F6E206661696C65646A
:100930003A2000002C2066696C6520002C206C6930
:100940006E65200030B505460B462A4613F8014B6C
:1009500012F8010B08B1A042F8D01CB1002802D057
:100960006D1CF1E7284630BD40EA010310B59B0736
:100970000FD1042A0DD310C808C9121F9C42F8D009
:1009800020BA19BA884201D9012010BD4FF0FF30BA
:1009900010BD1AB1D30703D0521C07E0002010BDD0
:1009A00010F8013B11F8014B1B1B07D110F8013B5C
:1009B00011F8014B1B1B01D1921EF1D1184610BD3D
:1009C00040EA0103024630B59B0710D14FF00134D5
:1009D00000E008C208C91D1B9D4315EAC41FF8D0DA
:1009E00013F0FF0102F8011B0DD01B0AF8E711F804
:1009F000013B002B02F8013B05D011F8013B002B15
:100A000002F8013BF3D130BD10B5431C02E010F8F1
:100A1000011B71B18107FAD14FF0013202C88C1A63
:100A20008C4314EAC211F9D0C01A0A0603D0C01EC2
:100A300010BDC01A10BD0A0401D0801E10BD0902ED
:100A4000FCD0401E10BDCBB22AB101788B4203D03E
:100A5000401C521EF9D10020704740EA010370B5D6
:100A60009B072ED14FF00136042A2AD308C810C99B
:100A70009D1B9D43121F15EAC61517D0D8B2E1B2CF
:100A8000401A50EA056110D198B2A1B2401A50EA5A
:100A900005410AD123F07F4024F07F41401A50EAFB
:100AA000052102D1180EA0EB146070BDA342DBD06B
:100AB00018BA21BA884201D9012070BD4FF0FF3029
:100AC00070BD0AB9002070BD10F8013B11F8014B50
:100AD00063B1A3420AD1521E08D010F8013B11F8AD
:100AE000014B1BB1A34201D1521EEDD1181B70BDA9
:100AF000032A40F2308010F0030C00F0158011F84A
:100B0000013BBCF1020F624498BF11F801CB00F821
:100B1000013B38BF11F8013BA2F1040298BF00F875
:100B200001CB38BF00F8013B11F0030300F0258032
:100B3000083AC0F0088051F8043B083A51F804CB59
:100B4000A0E80810F5E7121D5CBF51F8043B40F81F
:100B5000043BAFF30080D20724BF11F8013B11F82A
:100B600001CB48BF11F8012B24BF00F8013B00F86E
:100B700001CB48BF00F8012B704710B5203AC0F0F8
:100B80000B80B1E81850203AA0E81850B1E818508E
:100B9000A0E81850BFF4F5AF5FEA027C24BFB1E8CB
:100BA0001850A0E8185044BF18C918C0BDE810403C
:100BB0005FEA827C24BF51F8043B40F8043B08BF45
:100BC0007047D20728BF31F8023B48BF11F8012B0C
:100BD00028BF20F8023B48BF00F8012B70474FF0B8
:100BE000000200B5134694469646203922BFA0E87D
:100BF0000C50A0E80C50B1F12001BFF4F7AF090789
:100C000028BFA0E80C5048BF0CC05DF804EB890079
:100C100028BF40F8042B08BF704748BF20F8022BBC
:100C200011F0804F18BF00F8012B70474FF0013CC6
:100C300050F8042B51F8043B9A4221D1A2EB0C034B
:100C4000934313EACC1317D150F8042B51F8043B0B
:100C50009A4215D1A2EB0C03934313EACC130BD1A8
:100C600050F8042B51F8043B9A4209D1A2EB0C0333
:100C7000934313EACC13DBD04FF00000704700BF62
:100C8000D01A01BAB1FA81F101F0180122FA01F08B
:100C9000CB40C1F12001DBB2C0B2C01A2CFA01F383
:100CA000D11A914311EAC311E6D1704770477047DA
:100CB0007047000070B5064C7C44064D7D4403E04F
:100CC000206820448047241DAC42F9D170BD00004B
:100CD00098030100A40301007047000010B500F064
:100CE0001BFE001D10BD00BF6DB500000048704721
:100CF000C455002000487047F455002070477047E5
:100D00007047704738B504460A4600206946AFF37D
:100D10000080002808BF38BD02460099204600F038
:100D200003FE012038BD012001F0F4B8F8B5AFF39F
:100D30000080054600200C46102000BF0646A8197A
:100D4000A0420DD9324669460020AFF3008007006B
:100D500008BF01F0DFF80098A04218BF0546C4198B
:100D6000FFF7C4FF05600746F01D20F00700461995
:100D7000284600F00AF8B44208BFF8BDA21B31466D
:100D80003868BDE8F84000F0CFBD00210160C0E93F
:100D900001107047102070472DE9F0470D46994625
:100DA0009246044600F124080168880604D5E069EB
:100DB00021F01001216000E00120A84201DD471B65
:100DC00000E00027A1697A1902EB0900081AA06166
:100DD0002078C00602D42046FFF7E0FB002608E09A
:100DE000D4E901211AF806009047206A401C761CBD
:100DF00020624E45F4DB2078C0060AD52046FFF776
:100E0000CDFB06E0D4E9012130209047206A401C48
:100E10002062381EA7F10107F4DC07E0D4E90121C4
:100E200018F805009047206A401C2062281EA5F192
:100E30000105F3DC2046FFF7C7FB2078000602D54A
:100E40000220BDE8F0870120FBE770472DE9FF4F46
:100E50000C461E464FF0FF378BB0D2E90001DDF89B
:100E600060800A908A46C1F30A5505B93D460021C3
:100E700008464FF00000BAF1000F00F4400005DA18
:100E800000EB80004FF4400101EA50004FEA905916
:100E9000B9F1010F00DDB9460A9850EA4A000ED0B8
:100EA00044F61050A5F2FF3545432F14B8F1000F5A
:100EB0001ED07542291E1EDDC9F100021CE0B8F1EA
:100EC000010F4FF0000001D0302103E0F24305E0B4
:100ED0002154401CB042FBDB30460022002121544B
:100EE0000B99C1F80880C1E900200FB0BDE8F08F70
:100EF000BD1B6D1CDEE74A4600DA694206A800F019
:100F000075FF06AB93E8070003AB83E80700504684
:100F10000A9901F0E4FA8DE80700A0F500501F38A7
:100F200000900398002D0ADD42F21F014A46084452
:100F3000002303A90390684601F090FD09E0A0F5A5
:100F400000504A461F38002303A90390684601F069
:100F5000AFFD8DE807000004000C03D04FF0FF3018
:100F6000410800E01046B8F1000F03D000220092C3
:100F700015461EE0751E05D400F0F0FC30326255B7
:100F80006D1EF9D5B3460122084302D000227F1C12
:100F900004E02078302801D100227F1E002A099722
:100FA00084D01DE0112D07DA00F0D8FC30326255F4
:100FB0006D1C50EA0102F5D1084302D00098C8B177
:100FC0000EE00021681E05E0235C625C635422543D
:100FD000401E491C8142F7DBAB46A81B401E09900E
:100FE000002004F80B000B98099AC0F80880C0E9AB
:100FF000002B7AE711264FF0000857E72DE9F04F54
:1010000088460446D21D22F0070191B0D1E90001C3
:10101000CDE90A0108F09BFA02460B98C00F01D0F7
:101020002D2007E02068810701D52B2002E0202138
:1010300001EAC000032A099001D0072A05DB034614
:101040004146204600F0D8FC0BE12078800601D50F
:10105000E06900E00620B8F1650F814606D0B8F1DE
:10106000660F18D0B8F1670F70D131E00020B9F1E8
:10107000110F009001DB112301E009F101030AAA1D
:1010800001A90CA8FFF7E2FEDDE90C70002609F1CA
:101090000105834647E001204B4600904FF0004792
:1010A0000AAA01A90CA8FFF7D1FEDDE90DB00C9941
:1010B0005D46002610B909F101000D18B9EB0500D5
:1010C00003D4C0F1FF3609F10105A5EB09002BE0BF
:1010D000B9F1010F01DA4FF001090020B9F1110F48
:1010E0000090484601DD112300E003460AAA01A949
:1010F0000CA8FFF7ABFEDDE90C704D4600268346D9
:10110000207800070AD4AB4500DA5D4601A8012D1E
:1011100004DD411911F8011C302907D04F4502DACE
:1011200017F1040F04DA012082460FE06D1EEEE78E
:10113000002F02DCED1B3E4403E0781CA84200DDDA
:101140007D1CB81B00F1010A4FF000472078000712
:1011500003D4AA4501DB4FF0FF3A0021B7F1004F5D
:101160000DF143088DF8431024D002202B23002FCB
:1011700001DA7F422D230A21021EA0F1010000DCCA
:101180005FB197FBF1FC97FBF1F201FB1C7C17466A
:101190000CF1300C08F801CDEEE7A8F10100037066
:1011A0002188090501D5452100E06521A0F101084C
:1011B00000F8011C09980FA9A1EB0807FF1D00B159
:1011C0000120411901EBEA70A1693844081A401E58
:1011D000A0612078C00602D42046FFF7DFF9099805
:1011E00028B1D4E901219047206A401C2062207870
:1011F000C00622D52046FFF7D1F91EE0002E04DB01
:10120000B34502DD01A8805D00E03020D4E9012172
:101210009047206A401C2062761CAAF101005FEA18
:10122000000A0AD100F078FBC0680168405CD4E98C
:1012300001219047206A401C2062281EA5F101056B
:10124000DCDC07E0D4E9012118F8010B9047206AA3
:10125000401C2062381EA7F10107F3DC2046FFF78F
:10126000B3F9032011B041E601694A1C0261087814
:10127000704700B58FB0CDE90131002105910549D6
:101280007944CDE9031011466846FFF73FFA0FB0E5
:1012900000BD0000E5FFFFFF0A6802F8010B0A60CD
:1012A000704710B5436913B1AFF3008001E0FFF759
:1012B0009CF9012010BD127800F124010A7000226F
:1012C0004A700122EDE711684FF0FF32E9E70000B4
:1012D000074B70B50D467B44FFF7CBFF044628460D
:1012E00000F0F6FD10B14FF0FF3070BD204670BD2C
:1012F000C78A00002DE9FF4F06468BB00878FF280B
:1013000006D0491C2D2805D000244FF0000908E024
:1013100000200CE00124F8E709EB8903491C00EBED
:1013200043090878FF28F7D114B1C9F100008146BC
:10133000107800252C46AA4629462D2801D02B28B6
:1013400004D1521C2D2813D0002082468B461078E1
:10135000FF280FD04FF0000C0A21521CA5FB01788A
:1013600004FB018105FB0C11C5194BEB0104EEE7F1
:101370000120EAE7002108464FF00000BAF1000F13
:1013800002D000EB80004008C0F38157012F01DD3F
:101390004FF0FF370E9955EA040009EB01080BD016
:1013A0004FF0020918F5FA7F16DA4FEACA70002FDB
:1013B000706008DD012007E04FEACA70C6E900B09E
:1013C0000FB0BDE8F08F0020306000F0A9FAC0F83F
:1013D00000901821084616E0B8F5FA7F18DD002FB6
:1013E00002DAF748784401E0F6487844D0E9001082
:1013F000C6E9001040EACA70706000F091FAC0F8C7
:101400000090142108460FB0BDE8F04F0BF00CBB64
:10141000002108464FF00000B8F10001099002DAFF
:10142000C7F1000200E03A4601DAC8F1000106A85F
:1014300000F0DCFC06AB93E8070003AB83E8070091
:1014400044F23E005BEA04010090584604D144F2A5
:101450001E012C465D460091210C0904014306D172
:101460000099240444EA15442D041039009104F035
:101470007F41014306D10099240244EA15642D02FC
:101480000839009104F07041014306D1009924010C
:1014900044EA15742D01091F009104F040410143F5
:1014A00006D10099A40044EA9574AD00891E00910C
:1014B00004F00041084304D100986D196441401EB6
:1014C00000904FF001033A466846B8F1000FCDE9AD
:1014D000014503A902DD01F000FB01E001F0D3FAB0
:1014E000BAF1000F04460D4601D084F000440021FB
:1014F00008464FF00000099940F2FF77484010F08D
:101500000C0F07D124F00040284303D0C4F30A5045
:10151000B84212D100F004FAC0F80090C4F30A50A7
:10152000B8420AD1A8487844D0E90010C6E90010B2
:1015300004F000410843706042E7C6E900543FE709
:101540002DE9FF4F1F464FF0000A4FF0FF38454688
:1015500091B0D7E90146CDF83CA000F0DDF9C068B4
:101560000168405C1090B96912986D1C8847396A0F
:10157000814688470028F6D1B9F1FF3F0AD0002EF6
:1015800024F4D06411DDB9F12B0F08D0B9F12D0F7F
:101590000BD102E0404615B013E744F48064B9690A
:1015A00012986D1C8847761E8146600504A901D5F6
:1015B0002D2000E02B20002E01F1010B0DF1300851
:1015C0008DF810003FDDB9F1690F08D0B9F1490F6E
:1015D00005D0B9F16E0F02D0B9F14E0F1CD13B46C8
:1015E00001A8009580E85002DDE912126FF00200B8
:1015F0000BF083FAC11CCED10EE0B96912986D1CB4
:10160000884781461398761E44F4007405600F984D
:10161000401C002E0F9016DDB9F1300FEDD0B9F15E
:10162000780F02D0B9F1580F0DD10F9801280AD1C7
:101630003B46CDE90054DDE91212001F02960BF083
:101640005AFAC11CA7D1109989453ED144F08004B3
:1016500006E01399681CAAF1010A44F400740860BA
:10166000B9696D1C1298761E884730288146F0D0E3
:101670002BE01099894505D1200603D4761E44F04D
:10168000800418E0484608F06BF908B3761E0DF1A7
:1016900023018B4544F4007408D2A9F130000BF803
:1016A000010B200607D5AAF1010003E0200602D4B1
:1016B0000AF101008246A00502D51399681C086052
:1016C000B96912986D1C88478146002ED1DC53E021
:1016D000002E51DDB9F1650F02D0B9F1450F4BD1A4
:1016E000A00549D5B9696D1C1298761E24F4407482
:1016F0008847002E81460CDD2B2804D0B9F12D0F30
:1017000007D144F48074B96912986D1C8847761E1D
:101710008146E00501D52D2100E02B2108F8011BB1
:10172000CDF8008021E0761E0DF13901884544F4A2
:1017300000740CD2A9F1300010F0FF0088F800000E
:1017400002D10099884509D908F1010806E0E005B1
:1017500001D51E4801E042F20F708246B969129825
:101760006D1C8847814613980560002E04DD4846AD
:1017700008F0F6F80028D6D1F96912988847FF20BA
:1017800053468BF8000088F8000000200A900B9068
:1017900004AA0CA90AA8FFF7ADFDA00502D46FF0BA
:1017A0000100F8E614F0240F12D0E0071CD13868CD
:1017B000DDE90A12031D3B600068C0E9001213E076
:1017C00038FB00002AFB0000EEF90000F1D8FFFF13
:1017D0000AA9684608F020F8E00705D13868009AA1
:1017E000011D3960006802602846D4E60268114491
:1017F0001378016018467047D160054979445161FA
:1018000004497944116200211161114600F034B994
:10181000EDFFFFFFE1010000426842B1016811F8ED
:10182000013B23B1521EC0E9001218467047012146
:10183000C160881E704742685AB1C368016843B9E5
:1018400083688B4205D0491E521CC0E9001200205B
:1018500070474FF0FF3070472DE9F0410646FFF723
:1018600049FA8046454613E016B1E068B0420ED111
:1018700020682860D4E90101D8F800708847204624
:10188000FEF7CCFDD8F80000B842EBD100E02546C9
:101890002C68002CE8D1BDE8F08110B500F022FBE7
:1018A000BDE8104000F018BB10B500F03BFBBDE8F0
:1018B000104000F011BB10B5044602E0641C08F0B3
:1018C00059F820780028F9D110BD4FF00002042902
:1018D000C0F0128010F0030C3FF483A9CCF1040C8B
:1018E000BCF1020F18BF00F8012BA8BF20F8022B93
:1018F000A1EB0C01FFF775B95FEAC17C24BF00F8CA
:10190000012B00F8012B48BF00F8012B70470000A5
:1019100000487047BC55002000487047DC55002047
:1019200000487047BC550020034640688C4600289C
:1019300018BF88423CBF03464068F8D31868184473
:10194000884207D00CF1030020F00700001D411A67
:10195000521A0146081D0A60FEF760BD30B5B0F1AD
:101960000A024FEA900E71F100034EEA817EB0EB5D
:101970000E0061EB91014FEA101E4EEA017E10EB62
:101980000E0041EB11114FEA102E4EEA016E10EBE2
:101990000E0041EB11214FEA104E4EEA014E10EBC2
:1019A0000E0041EB1141401841F100014FEAD00017
:1019B00040EA41704FEAD10110EB80054FEA810403
:1019C00044EA907444EB01046D1944EB0404521B87
:1019D000A3414FF0000348BF0A3200D530BD401C80
:1019E00041F1000130BD10B50446FFF777F90068FA
:1019F000005D00F0010010BD2DE9F0411F460446D6
:101A000003260168072A01F4006004DB08B116A56B
:101A100005E016A503E008B115A500E015A521F025
:101A200010002060A069C01EA0610FB1401EA0611F
:101A30002046FEF7B3FD4FB1D4E901213846904767
:101A4000206A401C2062C01C206206E0206AFAE77F
:101A5000D4E9012115F8010B9047761EF8D22046F3
:101A6000FEF7B2FDBDE8F0814E414E006E616E00A2
:101A7000494E4600696E66002DE9F34F4FF0000AAB
:101A80000C4656468DB001200C9001F10C000B90D5
:101A900062690B9801219047051E2DD0252D2CD071
:101AA000216A8847C0B162690B9801219047216A79
:101AB00088470028F7D16269411E0B98904700E0E3
:101AC000761CA1690D988847216A88470028F7D1BC
:101AD000E1690D988847DBE7A1690D988847A8421E
:101AE000074601D1761CD3E7E1690D9888477F1C32
:101AF00002D1BAF1000F6FD06CE162690B98002738
:101B00003D46394690472A2804D162690B98012145
:101B100090470125DFF8D08262690B980121904738
:101B2000A0F130010A290AD24745E5DC07EB87011D
:101B300000EB4107303FDFD445F01005ECE7E90644
:101B400001D46FF000476C280AD04C2814D06828C4
:101B500015D06A280DD074281CD07A281AD01DE020
:101B600062690B98012190476C2802D045F004056A
:101B700014E045F002050DE045F020050AE0626939
:101B80000B9801219047682802D045F0080505E030
:101B900045F4006562690B9801219047C4E901573B
:101BA00065283DD019DC58287AD00CDC452837D080
:101BB00004DC252826D041289ED131E046282FD0AC
:101BC000472899D12CE05B2877D0612828D063285A
:101BD0007CD0642823D15AE0F7E06F2848D008DC95
:101BE00066281DD067281BD0692821D06E2816D101
:101BF00027E0702845D0732868D0752847D078280A
:101C00000DD14DE0A1690D988847252805463FF480
:101C100069AFE1690D9888476D1C3FF46AAFD9E060
:101C20000D9923466A466FF001000AF062FFC6E094
:101C300045F0400023464FF000026060A80736D40C
:101C40003EE0E8077FF447AF2068011D216000688F
:101C5000290501D506701BE7290701D5068017E77E
:101C6000A90703D5F117C0E9006111E706600FE786
:101C700045F0400023464FF008026060A80716D4E4
:101C80001EE040F60E0125EA0100606016E045F016
:101C9000400023464FF00A026060A80707D40FE017
:101CA00045F040006060A80708D5234610220D9932
:101CB0006FF00100AFF3008081E007E010222346BF
:101CC0000D996FF00100AFF3008078E04FF000094C
:101CD00063284F46C8464B46CB4602D05B2807D008
:101CE00039E02079C00601D40120A060012732E04C
:101CF0006269D4F80CB00B98012190475E2807D197
:101D00004FF0010949466269D4F80CB00B9890472E
:101D1000216939B900210A4603AB43F82120491C47
:101D20000829FADBD8B3216949B308F101086269CF
:101D30000B98012190475D28F4D1B9F1000F09D02B
:101D4000002003A951F82020D24341F82020401C54
:101D50000828F7DB03AB2069002820794FEA4070A0
:101D60001ED05B462246CDF80080CDE901970D9943
:101D700000286FF0010020DAAFF300801FE0C117E8
:101D800003AA00EBD1614B1121F01F0102EB83028A
:101D9000411A13680120884003431360C7E719E024
:101DA0000D99224600286FF00100009702DAAFF388
:101DB000008004E0AFF3008001E0AFF30080002872
:101DC0000ADA401C06D10C9820B14FF0FF300FB05A
:101DD000BDE8F08F5046FAE7E90701D10AF1010AA0
:101DE000064400200C9053E6CCCCCC0C2DE9F047F7
:101DF000814616468AB0354878440DC88DE80D00F6
:101E000032487844801C03AC0DC884E80D0041F6CC
:101E10009B300844372190FBF1F290FBF1F5A5F1DE
:101E2000800501FB12041B3C02D56442012000E046
:101E30000020DFF898A080460027FA44AAF1BE0AE5
:101E40000EE0E0070AD03246684607EB470101235F
:101E50000AEB810100F02CFE8DE8070064107F1C66
:101E6000002CEED1194F7F44AE3F19E0E80715D0A2
:101E700007EB04100DF1180A90E80E008AE80E0036
:101E8000C068F04201D1981908903246012306A992
:101E900003A800F00DFE03AB83E807006D10641C7F
:101EA000002DE3D14FF0010332466946B8F1000F2F
:101EB00003A802D000F0D2FD01E000F0F9FDC9E96D
:101EC0000001C9F808200AB0BDE8F08774B000002E
:101ED000007B00F080007047002801D007F047BD6C
:101EE0007047000010B5002102A000F096FA012012
:101EF00010BD0000534947414252543A2041626E9E
:101F00006F726D616C207465726D696E6174696F5A
:101F10006E00000010B500F099FABDE81040FFF720
:101F2000DBBF000010B5002102A000F076FA01200E
:101F300010BD00005349475056464E3A2050757226
:101F400065207669727475616C20666E2063616CC1
:101F50006C6564007546FFF7DBFCAE46050069461C
:101F6000534620F00700854618B020B5FEF700FA6A
:101F7000BDE820404FF000064FF000074FF000088A
:101F80004FF0000B21F00701AC46ACE8C009ACE80B
:101F9000C009ACE8C009ACE8C0098D46704710B56F
:101FA000FFF7BEFC006810BD10B50446FFF7B8FC93
:101FB000046010BD2DE9FF4F1F464FF03C0987B06C
:101FC0004FF00042DDE9141001F10108DDF858A0DE
:101FD00002EA4050039000200590834605460446DF
:101FE0000490B969461E08988847AAF1010A029030
:101FF000BAF1000F3BDD02982E2815D0102100F019
:1020000060FA00282EDB4FF0010B0599014317D031
:10201000B9F1000F0BDB4A46C11700F03FFA054348
:102020000C43A9F1040905E0012004900BE008B17C
:1020300045F0010501200590049820B9361D02E005
:10204000049800B1361FB969089808F1010888475B
:10205000BBF1000FAAF1010A0290C9D00999C1F899
:102060000080C5E70298702808D0502806D0F9698A
:1020700008988847BBF1000F14D04FE00020029071
:102080000120BBF1000F049009D0B969089808F14C
:1020900001088847AAF10109B9F1000F07DCF969C5
:1020A000089888476FF001000BB0BDE8F08F2B282F
:1020B00004D02D280CD14FF0FF300490B969089856
:1020C00008F101088847A9F10109B9F1000FE6DD1F
:1020D000411CE4D00A2100F0F4F90028DFDB02996A
:1020E00008F1010801EB810100EB41000290B969A0
:1020F000089888470A2100F0E4F9099AA9F1010932
:10210000B9F1000FC2F8008001DD0028E7DAF969B3
:10211000089888470499029800FB016655EA040074
:1021200004D004F04041090002D006E0039898E092
:10213000A40044EA9574AD00B61E04F00041080006
:1021400002D16D196441761E159810F0240F03D04A
:102150004FF00B095C4803E04FF028096FF07D0059
:102160008246564507DAAAEB06018944B9F1410FC8
:1021700001DD4FF0410901200021A9F1010200F029
:102180008DF9024628400B462140084301D0012129
:1021900000E00021501E029143F1FF312840214010
:1021A000084301D0012000E000200299834651EA53
:1021B0000B014FD0002108464FF00000039900F4B6
:1021C000400039B100EB80004FF4400100EBD070CB
:1021D00001EA60008015012802DD4FF0FF3000E0C9
:1021E00013D0401C36D0029860B3BBF1000F0CD165
:1021F0004A460120002100F051F9284021400843BF
:1022000001D0012000E00020E0B101204A46002179
:1022100000F044F9034640190A4661412D1A8C41E9
:1022200011D3B9F1400F09DD159810F0240F02D039
:10223000AAF1340603E0AAF1170600E0761C002597
:102240004FF0004406E05B1E42F1FF3220EA030536
:1022500021EA0204CAF10100B04206DA1B490398E0
:1022600008430190002000900EE0039AC4F3D321AC
:10227000E80A0A43164940EA44500A433146CDE988
:102280000002684607F062FB159810F0240F0BD08F
:102290001598C00715D13868DDE90012031D3B60B1
:1022A0000068C0E900120CE002A8694607F0B4FA21
:1022B0001598C00705D13868029A011D3960006879
:1022C00002604046F0E6000002FCFFFF0000F07FE5
:1022D0000000F03F2DE9FF4F92461D4685B04FF0BC
:1022E0000041DDE9124BDDE914727F1E01EA4B501B
:1022F000414940F0FF4940EA0108002122F0200056
:102300004928049102D04E2828D04CE03BA0012659
:1023100007C88DE80700A9690698641C88477F1ED6
:10232000014606D41DF8060018B121F020018142B3
:102330000BD0E96906988847032E34D0082E32D096
:102340006FF0010009B0BDE8F08F761C032E01D0BC
:10235000082EE0D1601CCAF80000DCE7A9690698E5
:10236000641C88477F1E2AD420F02000412826D1F3
:10237000A9690698641C88477F1E20D420F020009D
:102380004E281CD1A9690698641C88477F1E48F412
:10239000002849F48009CAF8004001D4282806D052
:1023A000E969069888475FEACB7012D022E0A969F4
:1023B0000698641C88477F1E01D4002803DAE96967
:1023C00006988847BCE72928F1D1641CCAF8004068
:1023D000E9E71BF0240F07D028680499031D2B6040
:1023E0000068C0E9001805E02868021D2A6000683E
:1023F000C0F800902046A5E70000F07F494E46490E
:102400004E4954590000000010B50446AFF3008057
:102410002046BDE81040FDF737BF70B505460C46B5
:102420000A2000E06D1C07F0A5FA35B128780028D5
:10243000F8D102E0641C07F09DFA14B1207800285E
:10244000F8D1BDE870400A2007F094BA10B5012811
:1024500005D0002103A0FFF7E0FF012010BD09A176
:10246000F8E7000053494752544D454D3A204F7507
:1024700074206F662068656170206D656D6F72797C
:10248000000000003A2048656170206D656D6F7234
:102490007920636F7272757074656400B2F1200305
:1024A0000AD5C2F1200301FA02F120FA03F300FA7F
:1024B00002F041EA0301704700FA03F14FF0000017
:1024C00070473A2800D2303820F02002412A01D348
:1024D000A2F13700884201D34FF0FF3070475FEA26
:1024E000400C08BF91F0000F4FEA8C234FEAC12245
:1024F00043EA51514FEA1C5018BF00F5F0404FEA33
:10250000300018BF41F000415FEA6C5C00F02980A8
:10251000BCF1FF3F08BF40F080407047130C06BF7E
:1025200012044FF0100C4FF0000C130E04BF1202F7
:102530000CF1080C130F04BF12010CF1040C930FE3
:1025400004BF92000CF1020CD30F04BF52000CF137
:10255000010C11464FF00002A0F11F00A0EB0C008F
:10256000704711F0004F08BF704731F000413FF451
:10257000D5AF0B0C06BF09044FF0100C4FF0000C48
:102580000B0E04BF09020CF1080C0B0F04BF09016C
:102590000CF1040C8B0F04BF89000CF1020CCB0F63
:1025A00004BF49000CF1010CCCF12003A0EB0C009E
:1025B00022FA03F302FA0CF241EA030100F10100EE
:1025C000704720F07F4C80EA030023F07F47ACEB9C
:1025D000070303F57C5300F0004003F1FF032DE9EE
:1025E00080494FEA154B09B44FEA144325EA0B4ED4
:1025F00024EA03480FF2042606EB132749083E7825
:102600005FEA320203FB0667C7F5000707FB06F621
:102610004FEA54374FEAD64606F1020607FB066C2E
:10262000CCF1005C4FEA1C472CEA074C07FB06F490
:102630000CFB06F504EB15464FEA961634BF002056
:102640004FF000404FEAD13706FB07FC4FEA1C4C25
:102650000CFB0BF7D21B03FB0CF761EB07010CFB28
:102660000EF7B0EB074072EB17420CFB08F734BFD4
:10267000A2EB0742B2EB074261EB17414FEA0C4471
:102680004FEA910706FB07FC4FEA1C4C0CFB0BF7CB
:10269000B0EBC74072EB573203FB0CF734BFA2EB31
:1026A000C742B2EBC74261EB57310CFB0EF7B0EB00
:1026B000C70072EB57720CFB08F734BFA2EBC702DE
:1026C000B2EBC70261EB5771039F4FEA816141EAA8
:1026D000921104EBCC044FEAD1374FEA826206FB39
:1026E00007FC42EA90124FEA80604FEA1C4C0CFB58
:1026F0000BF7D21B03FB0CF761EB07010CFB0EF78A
:10270000B0EB074072EB17420CFB08F734BFA2EBAB
:102710000742B2EB074261EB17414FEA8C554FEA93
:10272000910704EB9C2406FB07FC4FEA1C4C0CFBB6
:102730000BF7B0EBC74072EB573203FB0CF734BF1B
:10274000A2EBC742B2EBC74261EB57310CFB0EF76D
:10275000B0EBC70072EB57720CFB08F734BFA2EB6B
:10276000C702B2EBC70261EB577115EB4C254FEA7C
:10277000816141EA92114FEA82624FEAD13742EA1F
:10278000901206FB07FC44F100044FEA80604FEA18
:102790001C4C0CFB0BF7D21B03FB0CF761EB070186
:1027A0000CFB0EF7B0EB074072EB17420CFB08F77F
:1027B00034BFA2EB0742B2EB074261EB174115EBC6
:1027C0001C154FEA813141EA92414FEA823242EAD6
:1027D00090424FEA80304FEA0C7644F1000448EA18
:1027E00003434EEA0B484FF0000EB2EB080C71EBBE
:1027F000030724BF624639464EEB0E0E4FF0000B26
:102800000018524149414BEB0B0BB2EB080C71EB3A
:1028100003077BF1000B24BF624639464EEB0E0ED8
:102820004FF0000B0018524149414BEB0B0BB2EB40
:10283000080C71EB03077BF1000B24BF624639469D
:102840004EEB0E0E51EA020718BF46F0010616EBDA
:102850000E7655F1000254F1000103D5BDE889015F
:10286000BDE80088BDE88901BDE80048B6195241BD
:1028700041EB0101A3F10103704780807F7E7D7CE5
:102880007B7A7978777676757473727171706F6E02
:102890006E6D6C6C6B6A6A696868676666656464AD
:1028A000636362616160605F5F5E5E5D5D5C5C5B37
:1028B0005B5A5A59595858575756565555555454A6
:1028C000535352525251515050504F4F4F4E4E4D04
:1028D0004D4D4C4C4C4B4B4B4A4A4A494949484850
:1028E0004847474747464646454545444444444390
:1028F00043434342424242414141000046EA0646C8
:10290000A3F570534FEA164646EA42564FEAD222E2
:1029100042EA415210B54FEAD121A3F1010300F080
:102920002FF820F0004000F1020C00F0004701EB0E
:1029300000501146BCF5006F40EA070000D210BD00
:10294000BAF1000F0AD01CB503B44FF004004FF0E9
:1029500004014FF000000FBCBDE810404FF0000133
:10296000BBF1010FB9BF04484FF0FF31034800210C
:1029700040EA070010BD00BFFFFFEF7F0000F07FBF
:10298000002B9C4630D477002BD01CB54FEA37077C
:1029900003B44FF010004FF01001BAF1000F06D051
:1029A000BCF1000FDCBF40F0080040F008014FF020
:1029B00000000FBCBDE810400BF1010BBBF1010F93
:1029C00008BF5FEA170722BF12F1010211F10101EE
:1029D0004FF0004143F1000300F0004043EA0000E3
:1029E0007047F9D35708D0E746EA064613F1400F7F
:1029F0004FEA16461FDD13F1200FDFBF16430A46CC
:102A0000002120335B42BED0C3F1200746EA0646D0
:102A100002FA07F74FEA164646EA0706C3F120070F
:102A200022FA03F201FA07F721FA03F14FF000034B
:102A300042EA0702A7E746EA020646EA06464FEAE6
:102A4000164646EA0106BCBF46EA0646360C4FF07B
:102A500000034FF000024FF0000194E72DE9804C95
:102A60009A46934670B491E8380007C831EA400CA2
:102A700048BF34EA430C03D5FFF7A3FDFFF780FFFF
:102A8000F0BCBDE8008C2DE9804C9A46934670B4AA
:102A900091E8380007C831EA400C48BF34EA430CDB
:102AA00003D5FFF78EFDFFF729FFF0BCBDE8008CD2
:102AB0002DE9804C9A46934670B491E8380007C8D7
:102AC00010F0804F08BF13F0804F03D100F01AF8C8
:102AD000FFF756FFF0BCBDE8008C2DE9804C9A460C
:102AE000934670B491E8380007C810F0804F08BFD3
:102AF00013F0804F03D100F005F8FFF7FFFEF0BCA4
:102B0000BDE8008C20F07F4780EA030023F07F4C73
:102B100007EB0C03A3F57C5300F00040A3F1FE0388
:102B200092F0000F00F0B38095F0000F00F0778076
:102B30002DE901494FEA11404FEA144621EA0048C5
:102B400000FB06FC24EA064708FB06F607FB08F82C
:102B500000FB07F718EB06484CEB164C4FEA124BFC
:102B600018EB07484FEA15464CEB174022EA0B4E8C
:102B70000BFB06FC25EA06470EFB06F607FB0EFEDE
:102B80000BFB07F71EEB064E4CEB164C4FF0000606
:102B90001EEB074E4CEB174B18EB0B0840F10000F7
:102BA00018EB0E0B58EB000840F100008F1A4FF0A5
:102BB00000013CBFC943661B14BFB5EB040C0021E8
:102BC0003CBFC943F61B4FEA17444EEA8E0E27EA74
:102BD00004454FEA1C4704FB07622CEA074C05FB3F
:102BE00007F70CFB05F604FB0CFC16EB074642EB63
:102BF000174216EB0C4642EB1C421BEB060658EB49
:102C00000202414146EA9E0601D5BDE80189B61996
:102C1000524141EB0101A3F10103BDE801894FEAF3
:102C200014454FEA114724EA054621EA074C05FB03
:102C300007F406FB07F70CFB06F105FB0CFC11EB98
:102C4000074144EB17444FEA124711EB0C4144EBA8
:102C50001C4422EA074C05FB07F206FB07F70CFBB6
:102C600006F605FB0CFC16EB074642EB174216EB8B
:102C70000C4642EB1C456A1854F1000148BF7047EE
:102C8000B619524141EB0101A3F10103704795F0E0
:102C9000000F37D04FEA11424FEA144721EA0246AB
:102CA00024EA074C02FB07F106FB07F70CFB06F4CE
:102CB00002FB0CFC14EB074441EB17414FEA1547AC
:102CC00014EB0C4441EB1C4125EA074C02FB07F5D1
:102CD00006FB07F70CFB06F602FB0CFC16EB07469F
:102CE00045EB174516EB0C4645EB1C42121951F10A
:102CF000000148BF7047B619524141EB0101A3F1F1
:102D0000010370474FEA14454FEA114724EA05468C
:102D100021EA074C05FB07F106FB07F70CFB06F25F
:102D20004FF0000605FB0CFC12EB074241EB17418C
:102D300012EB0C4251EB1C4148BF7047921841EB1B
:102D40000101A3F10103704710B5002202211248CE
:102D500002F0ECF81148006820F040400F4908608C
:102D60000846006840F08040086000224FF40041AF
:102D70000A4802F0DBF8022006F080FF012202215F
:102D8000054802F0D3F8022006F078FF0022022165
:102D9000014802F0CBF810BD0000024000040240E0
:102DA00000B587B0142102A8FDF719FF00BF00206D
:102DB00001901A48006840F0100018490860084661
:102DC000006800F01000019000BF00BF00224FF427
:102DD0000041134802F0AAF800220221114802F033
:102DE000A5F848F202000290012003900020049010
:102DF000059002A90A4801F077FF02A9094801F0ED
:102E000073FF01220221064802F090F80122D1034B
:102E1000044802F08BF807B000BD000030380240D3
:102E2000000002400004024010B5002202211248B6
:102E300002F07CF81148006820F040400F4908601B
:102E40000846006840F0804008600122D1030B482A
:102E500002F06CF8022006F011FF01220221064860
:102E600002F064F8022006F009FF00220221024865
:102E700002F05CF810BD00000000024000040240B7
:102E800070B5054600241848006820F040401649F7
:102E9000086008460068086000261BE00022022146
:102EA000124802F043F8022006F0E8FE0122022157
:102EB0000E4802F03BF86006040E4FF400410A4849
:102EC00002F022F808B1601CC4B2012006F0D6FE60
:102ED000701CC6B2082EE1DB15B9FFF7A5FF01E0B3
:102EE000FFF732FF204670BD0004024000000240A0
:102EF00070B504461E48006820F040401C49086038
:102F00000846006840F0804008600022022119480D
:102F100002F00CF8002528E0E00930B900224FF457
:102F20000041134802F002F808E00120B0EBD41F82
:102F300004D10122C1030E4801F0F8FF6006040E1F
:102F4000022006F09BFE012202210A4801F0EEFF5A
:102F5000022006F093FE00220221064801F0E6FF5F
:102F6000022006F08BFE681CC5B2082DD4DB70BDB4
:102F7000000402400000024010B51348006820F031
:102F80004040114908600846006840F080400860F1
:102F90000122D1030C4801F0C9FF012202210B4894
:102FA00001F0C4FF042006F069FE00224FF4004146
:102FB000054801F0BBFF042006F060FE002202215C
:102FC000024801F0B3FF10BD0004024000000240BF
:102FD00010B51348006820F04040114908600846C9
:102FE000006840F080400860002202210D4801F096
:102FF0009DFF00224FF40041094801F097FF042093
:1030000006F03CFE01220221064801F08FFF01225A
:10301000D103034801F08AFF042006F02FFE10BD03
:10302000000402400000024010B500241748006868
:1030300020F04040154908600846006808600122F9
:10304000D103124801F072FF012006F017FE0122A1
:1030500002210F4801F06AFF012006F00FFE07E091
:10306000601CC4B2FA2C03DDFFF7B2FF012010BDD3
:103070004FF40041054801F047FF0028F0D100223D
:103080000221034801F052FF0020F0E70004024053
:103090000000024010B5FF2000F017F80446552C40
:1030A00001D1002010BD5521FF2000F03AF8FF208B
:1030B00000F00BF80446552C01D10020F2E7012066
:1030C000F0E710B5FFF76CFE10BD70B504460026A2
:1030D000FFF752FF2546E11704EB11610912A02208
:1030E00002EB4101C8B2FFF703FFFFF79DFFE117B5
:1030F00004EB11610912A4EB0121C8B2FFF7F8FE3D
:10310000FFF792FFFFF738FFA120FFF7F1FEFFF76F
:103110008BFF0020FFF7B4FE0646FFF759FF30464D
:1031200070BD70B504460E46FFF726FF2546E11731
:1031300004EB11610912A02202EB4101C8B2FFF7B2
:10314000D7FEFFF771FFE11704EB11610912A4EB41
:103150000121C8B2FFF7CCFEFFF766FF3046FFF74C
:10316000C7FEFFF761FFFFF733FF0A2001F022FCE3
:1031700070BD00002DE9FC4104460E4617468DF84F
:1031800000408DF8016001970023642269462348BE
:10319000006808F073FA012807D001F0CDFE05465B
:1031A000322229461E48FDF7D7F901F0C5FE054633
:1031B0001C4802680068401C1A4B294618601AA077
:1031C000FDF7CAF900BF01218020FDF7E4F80546AC
:1031D00001F0B2FE80461A4800EB0410424619A1E5
:1031E00043682846FDF7C4F9284604F082FF2846C4
:1031F000FDF70AFC0A2129542846FDF705FC1FFAB1
:1032000080F84FF47A7342462946154803F019FFB7
:103210002846FDF703F900BFBDE8FC81D00000207F
:1032200094D70008DC0000205469636B3A256420C1
:103230003E3E20D7A2B2E1B4CECAFD3A25640A00D0
:1032400038CD00085469636B3A2564203E3E205215
:103250006567697374657220434D44A3BA25730092
:10326000FC0600202DE9F04F87B04FF0FF3205A992
:103270009448006808F046FB0446012C0AD001F08F
:103280005BFE07468C2239468F48FDF765F907B08B
:10329000BDE8F08F4FF0FF318C48006808F0E6FB86
:1032A0008B480068006820F00100894909680860BF
:1032B0009DF81400874901EB0010B0F808A09DF8B4
:1032C000140001EB001090F80AB09DF8140001EB17
:1032D0000010C07A04909DF8140001EB00104068C3
:1032E0000390069D002600200290DDE00027CCE040
:1032F00001F022FE804641467748FDF72DF901F0A6
:103300001BFE80463A46414674A0FDF725F99DF81C
:10331000150020B1022809D0032819D10FE075A3A8
:103320002A460320039904F073FD1AE071A02B468E
:1033300071A200900420039904F06AFD11E06DA0D1
:103340002B466EA200900420039904F061FD08E072
:1033500001F0F2FD8046AD2241466948FDF7FCF8D8
:1033600000BF00BFC82006F0CCFD4FF47A700AFB06
:1033700000F04FF47A71B0FBF1F841466148006803
:1033800008F074FB0446012C08D001F0D5FD8046FE
:10339000B72241465C48FDF7DFF875E000264C484F
:1033A00000684068C0F5007600205849885501F053
:1033B000C3FD8046554B3246414655A0FDF7CCF83B
:1033C00043480068006820F001004149096808602E
:1033D00001AB4E4ADDE9050100F0BCFA012800D03E
:1033E00052E0019800F058FB012800D04CE09DF815
:1033F0001400384901EB0010C068D8B300BF0121A8
:103400008020FCF7C8FF804601F096FD0090024640
:103410004AA14046019BFDF7ABF8404604F069FE27
:103420004046FDF7F1FA0A2108F800104046FDF782
:10343000EBFA80B24FF47A73024641460090464858
:1034400003F0FFFD4046FCF7E9FF00BF9DF81400C4
:10345000204A02EB0010C16801988847814600238A
:103460001A4619461948006808F008F9B9F1010F21
:1034700009D10CE7FFE700231A46194613480068F4
:1034800008F0FCF803E700BF7F1C5F45FFF630AF94
:1034900001F052FD074639463048FDF75DF804F06B
:1034A0006BFB0298401C0290049902988842FFF638
:1034B0001DAF00231A4619460448006808F0DEF8DC
:1034C00000BFE4E6D0000020D4D60008D8000020D9
:1034D0000C08002038CD00083CD800085469636B04
:1034E0003A2564203E3E20B7A2CBCDB4CECAFD3AE9
:1034F00025640A000D0A00003F0000003D000000A6
:1035000024D60008D40000202CD70008BC5300208B
:103510005469636B3A2564203E3E205265636569B9
:1035200076652044617461286C656E677468203D1F
:10353000202564293A25730D0A0A00005469636B3B
:103540003A2564203E3E20BDD3CAD5B2CECAFDCEB8
:10355000AA3A257300000000FC060020F8D70008F6
:1035600010B5002208210A2008F00FF81049086061
:1035700003220021012008F008F80E49086001200C
:1035800007F0F2FF0C49086000F0C6F905F0F6F903
:103590000748006848B901F0CFFC044613222146D1
:1035A0000648FCF7D9FF00BFFEE7012010BD000070
:1035B000D0000020D4000020D800002078D60008D9
:1035C00070B5054601F0B8FC0446214602A0FCF7A0
:1035D000C3FF012070BD00005469636B3A2564206D
:1035E0003E3E204D3533313120696E6974206F6B5A
:1035F000210D0A0A0000000000BFFEE7014601207D
:10360000704710B5022006F039FB10BD10B500223E
:103610000421114801F08AFC0F48006820F4405052
:103620000D4908600846006840F480500860002298
:103630004021094801F07AFCFFF7E3FF0122042151
:10364000054801F073FCFFF7DCFF0022042102486B
:1036500001F06CFC10BD0000001C024000B587B0FA
:10366000142102A8FDF7BBFA00BF00200190194801
:10367000006840F08000174908600846006800F0C4
:103680008000019000BF00BF00220421124801F019
:103690004DFC00224021104801F048FC44200290DB
:1036A0000120039000200490059002A90A4801F02F
:1036B0001BFB02A9084801F017FB01220421064860
:1036C00001F034FC01224021034801F02FFC07B037
:1036D00000BD000030380240001C024010B500223E
:1036E0000421114801F022FC0F48006820F44050EA
:1036F0000D4908600846006840F4805008600122C7
:103700004021094801F012FCFFF77BFF0122042150
:10371000054801F00BFCFFF774FF0022042102486A
:1037200001F004FC10BD0000001C024070B505460D
:1037300000241848006820F44050164908600846E4
:10374000006808601E2006F099FA002618E00022A2
:103750000421104801F0EAFBFFF753FF0122042186
:103760000C4801F0E3FB6006040E4021094801F01B
:10377000CBFB08B1601CC4B2FFF743FF701CC6B29C
:10378000082EE4DB15B9FFF7A9FF01E0FFF73EFFC4
:10379000204670BD001C024070B504461C480068FD
:1037A00020F440501A4908600846006840F48050F0
:1037B000086000220421164801F0B8FB002524E02F
:1037C000E00928B900224021114801F0AFFB08E0D0
:1037D0000120B0EBD41F04D1012240210C4801F09C
:1037E000A5FB6006040EFFF70CFF01220421084828
:1037F00001F09CFBFFF705FF00220421044801F0C3
:1038000095FBFFF7FEFE681CC5B2082DD8DB70BD26
:10381000001C024010B51248006820F440501049C6
:1038200008600846006840F48050086001220421C6
:103830000B4801F07BFB01224021094801F076FB97
:103840001E2006F01BFA00224021054801F06EFB05
:10385000FFF7D7FE00220421014801F067FB10BDED
:10386000001C024010B51248006820F44050104976
:1038700008600846006840F4805008600022042177
:103880000B4801F053FB00224021094801F04EFB98
:103890001E2006F0F3F901220421054801F046FB41
:1038A000FFF7AFFE01224021014801F03FFB10BDB0
:1038B000001C024010B500241648006820F4405057
:1038C0001449086008460068086001224021114838
:1038D00001F02CFB012204210E4801F027FBFFF729
:1038E00090FE09E0601CC4B2FA2C03DDFFF7BAFFBA
:1038F000012010BDFFF785FE4021064801F004FBC2
:103900000028EFD100220421024801F00FFB002023
:10391000EFE70000001C024070B5002412E00B48E5
:1039200000EB04100078E1B288420AD001F004FBF9
:1039300005462346212229460548FCF70DFE0020B6
:1039400070BD641C082CEADB0120F9E738CD0008C3
:10395000C0D500082DE9FF4714461F469DF800100A
:10396000334A02EB01114868FDF74EF880464FF0EC
:1039700001092046FDF748F8824652460A212046B2
:10398000FDF761F80546681C38609DF80010284A6C
:1039900002EB0111424648682146FDF75EF8814678
:1039A000B9F1000F0DD10020287001F0C5FA0646CC
:1039B000224631461FA0FCF7CFFD012004B0BDE830
:1039C000F08701F0B9FA06465D2231462348FCF73C
:1039D000C3FD00BF22A125A0FCF7BEFD002604E028
:1039E000A15D27A0FCF7B8FD761C281BB042F7DCD0
:1039F00025A0FCF7B1FD00BF00BF24A11BA0FCF770
:103A0000ABFD00260AE09DF80000094A02EB001019
:103A10004068815D1AA0FCF79FFD761C4645F2DBED
:103A200019A0FCF799FD00BF00270020C6E70000A1
:103A300038CD00085469636B3A2564203E3E20BBB4
:103A4000D8CFD4BCECB2E9CDEAB3C9A3AC45636826
:103A50006F2069733A25730A0000000064D50008DE
:103A6000BDD3CAD5B5C4BBD8CFD400004C6F672036
:103A70002573206172726179203E3E3A0000000099
:103A800030782530327820000A000000B7A2CBCD74
:103A9000B5C4C3FCC1EE00002DE9F0410446204648
:103AA000FCF7B2FF054600BF01218020FCF773FC44
:103AB000074601F041FA8046281F0319424645A1F6
:103AC0003846FCF755FD384604F013FB3846FCF742
:103AD0009BFF0A2139543846FCF796FF1FFA80F8FD
:103AE0004FF47A7342463946444803F0AAFA3846FE
:103AF000FCF794FC00BF291F0819042240A1FCF721
:103B000033FF064666B90021A81F215401F014FABC
:103B1000074639463CA0FCF71FFD0120BDE8F081B7
:103B200000BF01218020FCF736FC074601F004FAB3
:103B30008046E81F0319424639A13846FCF718FDB4
:103B4000384604F0D6FA3846FCF75EFF0A213954AD
:103B50003846FCF759FF1FFA80F84FF47A73424653
:103B60003946264803F06DFA3846FCF757FC00BF8B
:103B7000E91F0819072234A1FCF7F6FE064600BF2C
:103B800033A136A0FCF7E8FC002706E0E81F20443C
:103B9000C15D37A0FCF7E0FC7F1C082FF6DB36A0E8
:103BA000FCF7DAFC00BF66B10021A5F10900215441
:103BB00001F0C2F90746394630A0FCF7CDFC0020E1
:103BC000ACE701F0B9F90746394635A0FCF7C4FC6B
:103BD0000020A3E75469636B3A2564203E3E2044ED
:103BE00061746548616E646C65427566665B6C65A0
:103BF0006E2D365D2069733A25730000FC060020A7
:103C00004F4B0D0A000000005469636B3A25642095
:103C10003E3E205355434345535320454E440A00EE
:103C20005469636B3A2564203E3E204461746548C4
:103C3000616E646C65427566665B6C656E2D395DA0
:103C40002069733A257300004552524F520D0A0005
:103C5000BDE1CEB2D7D6B7FBB4AE00004C6F672043
:103C60002573206172726179203E3E3A00000000A7
:103C700030782530327820000A0000005469636BE8
:103C80003A2564203E3E2053554343455353204537
:103C90004E4420A3AC524543204552524F520A0095
:103CA0005469636B3A2564203E3E204552524F5280
:103CB0002020454E440A000070B504464FF47A7047
:103CC00060434FF47A71B0FBF1F631460848006862
:103CD00007F0CCFE0546012D00D070BD05480068F8
:103CE000006820F0010003490968086000BFF4E79C
:103CF000D40000200C08002010B5024800F07AFC27
:103D000010BD00000C08002010B5024800F0FFFABA
:103D100010BD00000C05002010B5024800F06AFC40
:103D200010BD00006C0800200146087810381823E8
:103D3000B0FBF3F20848805CC865032A05D908681F
:103D40006FF30900001D886503E008686FF3090040
:103D50008865886D7047000018CD00080146002076
:103D60008A6A8B69CBB932B1012A0DD0022A03D0FD
:103D7000032A10D10EE000BFCB6A03F08073B3F1C9
:103D8000807F00D1012007E0CB6AB3F1C07F00D172
:103D9000012001E000E000BF34E08B69B3F5005F73
:103DA0001AD132B1012A07D0022A03D0032A11D135
:103DB0000AE000BF01200EE0CB6A03F08073B3F18C
:103DC000807F00D1012006E0CB6AB3F1C07F00D133
:103DD000012000E000BF15E032B1012A05D0022A1F
:103DE00004D0032A0CD103E000BF00BF012008E08B
:103DF000CB6A03F08073B3F1807F00D1012000E033
:103E000000BF00BF704730B50468246824F48024E4
:103E100005682C60046863608468402C04D10468E1
:103E2000A2600468E16003E00468A1600468E260E5
:103E300030BD704710B5082000F048FF10BD72B6C5
:103E400000BFFEE710B5002201B909E0012901D148
:103E50000A0205E0022901D10A0201E04FF4407292
:103E60000B2800D9001D0E4B1B6823F440730C4C2B
:103E7000236023461B681343236023461B6823F0FB
:103E8000F803236023461B68022444EAC00423434A
:103E9000034C236023461B6843F48033236010BD2A
:103EA000103C02401C48006800F40070B0B11A4891
:103EB000006820F400701849086000BF08460068D8
:103EC00040F4006008600846006820F40060086064
:103ED00000BF0846006840F4007008600E480068A3
:103EE00000F48060B0B10C48006820F480600A499A
:103EF000086000BF0846006840F48050086008462B
:103F0000006820F48050086000BF0846006840F454
:103F10008060086070470000003C024010B500F06F
:103F20005FFD10BD2A48006800F0100040B129482C
:103F3000C06940F010002749C8611020244908607A
:103F40002348006800F0200040B12248C06940F0DA
:103F500008002049C86120201D4908601C480068ED
:103F600000F0400040B11B48C06940F0040019490E
:103F7000C8614020164908601548006800F08000BC
:103F800040B11448C06940F002001249C861802065
:103F90000F4908600E48006800F4807048B10D4871
:103FA000C06940F001000B49C8614FF480700849B6
:103FB00008600748006800F0020040B10548C06989
:103FC00040F020000349C8610220014908607047A1
:103FD0000C3C02401409002010B5024802F0AAF877
:103FE00010BD00008005002030B5024600230024EB
:103FF0000868012816D013686FF30E03D1E9010594
:104000002843CD6828430D6928434D6928438D69AD
:104010002843CD6928430D6A28434D6A284303434A
:10402000136019E0136823F4F843D1E90705284326
:104030004D6A2843034354686FF30E04D1E9010528
:104040002843CD6828430D6928434D6928438D696D
:104050002843044313605460002030BD0246506979
:1040600040EA4100506100207047F8B506460C4612
:104070001546002000900027D4E900010843A168FC
:10408000491E40EA4110E16840EA41200090009852
:10409000306100F051FF074609E0681C38B125B1D6
:1040A00000F04AFFC01BA84201D90320F8BDB06947
:1040B00000F020002028F0D00020F7E770B503467C
:1040C000154600220024012D1FD09A6802F070428C
:1040D0000868401E4E68761E40EA06168868401E34
:1040E00046EA0026C868401E46EA0036088A401E96
:1040F00046EA0046888A401E46EA0056087E401E70
:1041000046EA006002439A6022E09A681148024041
:10411000C868401E0603888A401E46EA00500243D3
:10412000DC6804F070440868401E4E68761E40EA61
:1041300006168868401E46EA0026088A401E46EA9F
:104140000046087E401E46EA006004439A60DC6038
:10415000002070BDFF0F0FFF7047000010B5C4B006
:104160000024F02106A8FCF73AFD08200190002069
:104170000290012003900320049001A91B4800F045
:10418000B3FD4FF4807001900120029001A91748FF
:1041900000F0AAFDFFF762FA00224FF48071134885
:1041A00000F0C4FE0C2000F005FC012211020F48B3
:1041B00000F0BCFE0A2000F0FDFB0820019000206A
:1041C000029003900320049001A9084800F08CFDA0
:1041D000642000F0EFFB06A142A8FCF727FD10B910
:1041E000002044B010BD0120FBE70000001C02408D
:1041F00031313538000000002DE9F04105460F4609
:104200001646FFF707FB2820FFF7C6FAFFF752FB19
:104210002812FFF7C1FAFFF74DFBE8B2FFF7BCFA2F
:10422000FFF748FBFFF7F6FA2920FFF7B5FAFFF78B
:1042300041FB00240BE0711EA14201D0012100E0EE
:1042400000210846FFF772FA3855601CC4B2B44228
:10425000F1DBFFF707FBBDE8F0812DE9F0410446F3
:104260000E4617460025A846FFF7D4FA2820FFF788
:1042700093FAFFF71FFB2012FFF78EFAFFF71AFBE6
:10428000E0B2FFF789FAFFF715FB00BF0BE0705DA6
:10429000FFF782FAFFF70EFB8046B8F1000F00D05F
:1042A00003E0681CC5B2BD42F1DB00BFFFF7DAFADC
:1042B0004046BDE8F08110B504460CB9012010BDA0
:1042C000607920B900202071204600F005F8012017
:1042D00060710020F3E7000008B50A4A01689142C6
:1042E0000FD100BF002100910749096841F48051B6
:1042F000054A11601146096801F48051009100BF20
:1043000000BF08BD0030024030380240704770B531
:104310000446206845682068066805F00100E0B1A1
:1043200006F48070C8B12068006820F480702168AD
:104330000860E06B40F00100E063012021688860C4
:10434000042084F8390000BF002084F8380000BF42
:10435000606910B120466169884705F02000E0B12E
:1043600006F40050C8B12068006820F400502168AD
:104370000860202021688860E06B40F00200E06364
:10438000042084F8390000BF002084F8380000BF02
:10439000606910B120466169884705F00800E0B106
:1043A00006F40060C8B12068006820F4006021684D
:1043B0000860082021688860E06B40F00400E0633A
:1043C000042084F8390000BF002084F8380000BFC2
:1043D000606910B120466169884705F0040070B13A
:1043E00006F4806058B12068006820F4806021687D
:1043F0000860042021688860204600F06BF805F012
:104400000200D0B106F40070B8B12068006820F452
:10441000007021680860022021688860E06BE0631A
:10442000012084F8390000BF002084F8380000BF64
:10443000206910B120462169884705F01000C0B1FD
:1044400006F48050A8B12068006820F480502168EC
:104450000860102021688860E06BE063012084F828
:10446000390000BF002084F8380000BF2046FFF765
:104470004DFF70BD10B504460CB9012010BD94F875
:10448000390028B9002084F83800204600F024F8CC
:10449000022084F839002068006820F44030616808
:1044A0000843216808602068406B20F00700A1687D
:1044B0000843216848632068006C6FF30D00E168D1
:1044C0000843216808640020E063012084F8390073
:1044D0000020D3E77047000038B504460E49206835
:1044E000884217D100BF002000900C48006840F4BB
:1044F00000000A4908600846006800F400000090C7
:1045000000BF00BF002205215A2001F037F85A20D1
:1045100001F024F838BD000000B0024030380240FD
:1045200070B50446A56D00F007FD064694F8350009
:10453000022808D08020606500BF002084F8340085
:1045400000BF012070BD2068006820F016002168BF
:1045500008602068406920F0800021684861206C74
:1045600008B9A06C28B12068006820F00800216814
:1045700008602068006820F00100216808600FE0F2
:1045800000F0DAFC801B05280AD92020606500BFF6
:10459000002084F8340000BF032084F83500D1E700
:1045A0002068006800F001000028E9D194F85C1050
:1045B0003F208840A86000BF002084F8340000BF7E
:1045C000012084F835000020BCE7014691F8350051
:1045D000022803D08020486501207047052081F81B
:1045E00035000868006820F001000A6810600020AB
:1045F000F3E70000F8B50446002000908C480068FE
:104600004FF41651B0FBF1F7A56D2E6894F85C10CD
:1046100008208840304098B12068006800F004000D
:1046200070B12068006820F004002168086094F8E8
:104630005C1008208840A860606D40F00100606553
:1046400094F85C1001208840304068B120684069CF
:1046500000F0800040B194F85C1001208840A86010
:10466000606D40F00200606594F85C1004208840A2
:10467000304068B12068006800F0020040B194F852
:104680005C1004208840A860606D40F00400606504
:1046900094F85C1010208840304078B3206800689F
:1046A00000F0080050B394F85C1010208840A86017
:1046B0002068006800F4802080B12068006800F461
:1046C000002028B9206CC8B12046216C884715E02D
:1046D000A06C98B12046A16C88470FE02068006864
:1046E00000F4807028B92068006820F00800216874
:1046F0000860206C10B12046216C884794F85C104B
:10470000202088403040002865D02068006800F0F4
:10471000100000285FD094F85C1020208840A8602A
:1047200094F83500052828D12068006820F016008C
:10473000216808602068406920F080002168486195
:10474000206C08B9A06C28B12068006820F008002F
:104750002168086094F85C103F208840A86000BF82
:10476000002084F8340000BF012084F83500206D5B
:1047700010B12046216D8847F8BD2068006800F41C
:10478000802080B12068006800F4002028B9606CA7
:1047900010B12046616C88471DE0E06BD8B120461F
:1047A000E16B884717E02068006800F4807068B902
:1047B0002068006820F010002168086000BF002019
:1047C00084F8340000BF012084F83500E06B10B19C
:1047D0002046E16B8847606D38B3606D00F00100E2
:1047E000F0B1052084F835002068006820F0010051
:1047F0002168086000BF0098401C0090B84200D9B2
:1048000005E02068006800F001000028F3D100BF37
:1048100000BF002084F8340000BF012084F8350078
:10482000E06C10B12046E16C884700BFA4E70000AF
:10483000400000202DE9F0410446002500F07CFBFB
:10484000074614B90120BDE8F081606A00B100BFDD
:1048500000BF002084F8340000BF022084F8350037
:104860002068006820F00100216808600AE000F07C
:1048700063FBC01B052805D920206065032084F850
:104880003500E0E72068006800F001000028EED164
:104890002068056821480540D4E901010843E16822
:1048A00008432169084361690843A1690843E16934
:1048B0000843216A08430543606A042803D1D4E908
:1048C0000B0108430543206805602068456925F011
:1048D0000705606A0543606A04280DD1A06A054394
:1048E000E06A48B12046FFF739FA28B140206065F8
:1048F000012084F83500A6E7206845612046FFF7CF
:1049000013FA064694F85C103F208840B0600020FF
:104910006065012084F83500002094E73F8010F0A6
:104920002DE9F04704460D4616461F464FF0000895
:10493000D4F8589000BF94F83400012802D1022026
:10494000BDE8F087012084F8340000BF94F83500FA
:10495000012825D1022084F83500002060653B46FF
:10496000324629462046FFF74EFA94F85C103F2065
:104970008840C9F808002068006840F016002168E7
:104980000860206C28B12068006840F008002168A9
:1049900008602068006840F001002168086006E0B7
:1049A00000BF002084F8340000BF4FF002084046EA
:1049B000C6E7000070B5044600F0BEFA064625467C
:1049C000681C10B104480078054400BF00F0B4FA38
:1049D000801BA842FAD370BD3C0000207047000045
:1049E00010B500244048006800F4F970D8B13F4881
:1049F0000078012806D13D48C4684FF0FF303B499C
:104A0000C86008E039480078022802D137480469B4
:104A100001E036484469FFF785FA204600F068F85F
:104A20000020324908703048006800F0010000287A
:104A30003ED001202C4908602C480078012825D15F
:104A40002A484068401E294948600846406880B1AD
:104A50000846C4682046FFF7C1FF2448C068401CD0
:104A60002249C8600846C468017A2046FFF7EAF97F
:104A70001EE04FF0FF3004461C49C860002008705B
:104A8000FFF710FA2046FFF7A9FF11E0174800785A
:104A9000022806D1FFF706FA14490869FFF79EFFBE
:104AA00003E012494869FFF799FF00200F49087099
:104AB0000E480078B8B90C48001D006848F2FF01A4
:104AC00088430949091D08600846006820F0807085
:104AD00008600846006820F00070086000BF0020F1
:104AE0000249087600BF10BD0C3C024014090020AA
:104AF0007047000000B587B0142102A8FCF76FF8DA
:104B00003548006808B107B000BD0120324908608F
:104B100000BF002001903148006840F001002F499B
:104B200008600846006800F00100019000BF00BF67
:104B30004FF63F00029002200390002004900320D3
:104B400005900C20069002A9254800F0CDF80D2014
:104B500002900220039000200490032005900C2076
:104B6000069002A91F4800F0BFF848F237100290E3
:104B70000220039000200490032005900C20069052
:104B800002A9194800F0B0F84FF683700290022095
:104B9000039000200490032005900C20069002A9A9
:104BA000124800F0A1F84CF203700290022003902A
:104BB00000200490032005900C20069002A90C48C8
:104BC00000F092F800220521302000F0D7FC3020C0
:104BD00000F0C4FC00BF96E72C00002038380240EB
:104BE0000014024000080240001802400010024079
:104BF000000C024030B589B0054600240020079023
:104C00000690082D5AD1012207A948F24E10FFF74D
:104C1000F3FA9DF81C0000F0800068B19DF81C00BC
:104C200000F00F00062807DA00200690012206A9EE
:104C300048F24E10FFF711FB9DF81C0000F00F002A
:104C400080B39DF81C0000F00F0006282ADA00242B
:104C50001AE01B4931F81400042208A9FFF7CCFA26
:104C60009DF820009DF8211000EB012003A921F8F8
:104C700014009DF822009DF8231000EB012080B263
:104C80002DF81400601CC4B29DF81C0000F00F0049
:104C9000A042DEDCBDF80C000A490880BDF8000027
:104CA000094908809DF81C0000F08F00802805D17C
:104CB0004FF6FF70034908800349088009B030BDF2
:104CC0002ECB0008000000200200002010B5044692
:104CD00004480068204020B1024804602046FFF7E5
:104CE00089FF10BD143C0140F8B502460B46002573
:104CF000002400200021E8E0012606FA01F51E68E4
:104D000006EA0504AC4275D11E7906F00306012EB1
:104D100004D01E7906F00306022E13D190684F00CE
:104D20000326BE40B0434F00DE68BE403043906073
:104D3000506801268E40B0431E79C6F300168E409F
:104D4000304350601E7906F00306032E09D0D06868
:104D50004F000326BE40B0434F009E68BE40304324
:104D6000D0601E7906F00306022E13D1CF0802F19F
:104D7000200656F827004E07F70E0F26BE40B04318
:104D80004F07FF0E1E69BE403043CF0802F12006D8
:104D900046F8270010684F000326BE40B0431E7936
:104DA00006F003064F00BE40304310605E6806F018
:104DB0008056B6F1805FA6D100BF00260096454E12
:104DC000366846F48046434F3E603E46366806F4F9
:104DD0008046009600BF00BF3F4E8F0856F8270060
:104DE0008E07370F0F26BE40B0433C4EB24202D171
:104DF00000262EE068E03A4EB24201D1012628E0BA
:104E0000384EB24201D1022623E0374EB24201D1E0
:104E100003261EE0354EB24201D1042619E0344E7D
:104E2000B24201D1052614E0324EB24201D106262B
:104E30000FE0314EB24201D107260AE02F4EB242B6
:104E400001D1082605E02E4EB24201D1092600E02C
:104E50000A268F073F0FBE4030431F4E8F0846F88B
:104E60002700284E3068A0435E6806F48036B6F509
:104E7000803F00D12043234E3060361D3068A04370
:104E80005E6806F40036B6F5003F00D120431D4EA3
:104E9000361D3060361D3068A0435E6806F480160B
:104EA000B6F5801F00D12043164E08363060361DFF
:104EB0003068A0435E6806F40016B6F5001F00D106
:104EC0002043104E0C363060491C1029FFF414AFFB
:104ED000F8BD00004438024008380140000002409C
:104EE0000004024000080240000C02400010024092
:104EF0000014024000180240001C02400020024042
:104F000000240240003C0140024613690B400BB1F3
:104F1000012000E00020704710B5426921EA020339
:104F200002EA010443EA0443836110BD0AB18161CE
:104F300001E00B048361704701480068704700007E
:104F400034000020034800680349097808440149F7
:104F500008607047340000203C00002010B50D4868
:104F6000006840F400700B4908600846006840F48F
:104F7000806008600846006840F480700860032084
:104F800000F03AFB002000F007F800F09DFA002046
:104F900010BD0000003C024070B588B004460025FA
:104FA000002600222146192000F0E8FA192000F01E
:104FB000D5FA00BF002001901648006840F00100BB
:104FC000144908600846006800F00100019000BF25
:104FD00000BF02A903A800F0BFFD00F0F5FD4500E9
:104FE0000D48B5FBF0F0461E0C480D49086040F234
:104FF000E7310B48C160466000210161816001F02A
:1050000078FB20B9064801F0C1FB08B070BD012053
:10501000FBE700004438024040420F00000001401E
:10502000CC08002070B504460E46154600BF94F823
:10503000A000012801D1022070BD012084F8A00049
:1050400000BF022084F8A10005EB850101EBC50239
:1050500004F1380101EB820034223146FBF78DFD6B
:105060002A463146204602F069F80120216848624C
:1050700084F8A10000BF002084F8A00000BF00BF9A
:10508000DAE7704770B504462068856B2068466B88
:1050900005F00400E0B106F00400C8B12068406BE0
:1050A00020F004002168486304202168C863D4F814
:1050B000A40040F00100C4F8A400042084F8A1007A
:1050C00000BF002084F8A00000BF2046FFF7D9FFF2
:1050D00005F00200E0B106F00200C8B12068406BA4
:1050E00020F002002168486302202168C863D4F8D8
:1050F000A40040F00200C4F8A400042084F8A10039
:1051000000BF002084F8A00000BF2046FFF7B9FFD1
:1051100005F00100A8B106F0010090B12068406BD5
:1051200020F001002168486301202168C86384F8E9
:10513000A10000BF002084F8A00000BF204600F0BE
:10514000A7F805F00800B0B106F0080098B1206893
:10515000406B20F008002168486308202168C8637C
:10516000012084F8A10000BF002084F8A00000BF47
:10517000204600F0A7F970BD70B504460CB90120B7
:1051800070BD94F8A10028B9002084F8A000204642
:1051900000F0BCF8022084F8A1002068806920F0AB
:1051A000704021688861D4E901010843E16808433F
:1051B000216908432168896908432168886120685A
:1051C00080683249084021688860A08A0504206808
:1051D0008068A16929430843216888602068C06805
:1051E0002A4908402168C860A08B05042068C0686F
:1051F000216A294308432168C8602068006923495F
:10520000084021680861A08C050420680069A16A33
:105210002943084321680861206840691B49084008
:1052200021684861A08D050420684069216B2943ED
:1052300008432168486194F83500050294F8360067
:1052400006042068C06A00F07F402168C86246EA10
:10525000050094F8341008432168C96A084321689E
:10526000C8622068406B40F00600216848632068EF
:10527000806940F00100216888610020C4F8A40022
:10528000012084F8A10000207AE7000000F800F077
:1052900070B50546194800681949098888421AD12D
:1052A00018480188284600F0E3F800BF164908684E
:1052B00000BF90F86610491C80F8661000BF03F02C
:1052C00087FF00BF10480068044604F039F800204A
:1052D00004F0DAF811E00A480188284600F0C8F81E
:1052E000002004F0D2F800BF0748046800BF20681F
:1052F000016A2046884700BF00BF70BD406801407A
:10530000C2000020C40000202001002010B586B09B
:105310000446142101A8FBF762FC4F49206888422B
:105320007ED100BF002000904C48006840F08060B3
:105330004A4908600846006800F08060009000BF9D
:1053400000BF00BF0020009044481438006840F4BB
:1053500080704249143908600846006800F4807083
:10536000009000BF00BF00BF00200090084600680A
:1053700040F0200008600846006800F0200000901F
:1053800000BF00BF00BF002000900846006840F04A
:10539000800008600846006800F08000009000BFB0
:1053A00000BF00BF002000900846006840F04000A9
:1053B00008600846006800F04000009000BF00BF91
:1053C00040F2F760019002200290002003900490C8
:1053D0000E20059001A92248FFF786FC4FF480605B
:1053E0000190022002900020039004900E2005906E
:1053F00001A91C48FFF778FC4FF47E400190022081
:1054000002900020039004900E20059001A91648F8
:10541000FFF76AFC4FF40C6001900220029000E05C
:1054200018E00020039004900E20059001A90F4879
:10543000FFF75AFC00220621582000F09FF8582060
:1054400000F08CF800220621592000F097F859202E
:1054500000F084F806B010BD0068014044380240F6
:105460000020024000140240001C024000180240CC
:10547000024600BF92F8A000012801D10220704727
:10548000012082F8A00000BF022082F8A10010686D
:10549000406B20F0010013685863094801601068F0
:1054A000406B40F0010013685863012082F8A100AE
:1054B00000BF002082F8A00000BF00BFDFE70000AF
:1054C000406801407047000008B500BF0020009010
:1054D0002148006840F480401F4908600846006881
:1054E00000F48040009000BF00BF00BF002000908B
:1054F000081F006840F08050091F086008460068D7
:1055000000F08050009000BF00BF00220F21901ECD
:1055100000F034F800220521012000F02FF80120CE
:1055200000F01CF800220521042000F027F80420D8
:1055300000F014F800220521084600F01FF80520AD
:1055400000F00CF800220521512000F017F851203E
:1055500000F004F808BD0000443802400146084647
:10556000002809DB00F01F0301229A4043099B0039
:1055700003F1E023C3F8002100BF70472DE9F05F7D
:1055800080460D461646002703F0FAFF07463946C7
:105590002A46334601F00700C0F1070ABAF1040FAA
:1055A00002D94FF0040A01E0C0F1070AD14600F128
:1055B000040ABAF1070F02D24FF0000A01E0A0F18D
:1055C000030AD4464FF0010A0AFA09FAAAF1010ABD
:1055D0000AEA020A0AFA0CFA4FF0010B0BFA0CFB6A
:1055E000ABF1010B0BEA030B4AEA0B0421464046E0
:1055F00003F0CEFFBDE8F09F00BF00F00702064BAE
:1056000019684FF6FF031940044B0B4343EA02218C
:10561000014B196000BF70470CED00E00000FA0577
:1056200038B5002400BF002000901D48006840F0FD
:1056300080501B4908600846006800F080500090C8
:1056400000BF00BF012017490864FFF775FC04463E
:1056500007E0FFF771FC001BB0F57A7F01D903204A
:1056600038BD1148406800F48030B0F5803FF0D17B
:1056700001200C494864FFF75FFC044607E0FFF790
:105680005BFC001BB0F57A7F01D90320E8E70648F0
:10569000406800F40030B0F5003FF0D10020DFE7B3
:1056A0004038024000000E42007000407047000089
:1056B00010B50648006800F4803028B1FFF7F6FF07
:1056C0004FF480300149086010BD0000143C0140D7
:1056D000F8B5044600250026207800F0010048B9FE
:1056E000207800F00200022804D0207800F040006A
:1056F000402862D10020B1498866FFF71DFC0546AD
:1057000006E0FFF719FC401B022801D90320F8BD71
:10571000AB480068C0F3C0600028F2D1207800F0E8
:10572000010038B160688101207A41EA0070A44923
:1057300084310860207800F00200022819D1A048C6
:1057400084300068C0F3027660688101207B41EA02
:10575000006040EA06709A498431086098488C30AD
:10576000006820F01F00E169491E084394498C310C
:105770000860207800F0400040280AD1606881016C
:10578000207B41EA0061207A41EA00708C49843133
:105790000860012089498866FFF7CEFB054606E0D0
:1057A000FFF7CAFB401B022801D90320AFE784485A
:1057B0000068C0F3C0600028F2D0207800F0040038
:1057C000042804D0207800F00800082863D10020C5
:1057D0007A490867FFF7B0FB054606E0FFF7ACFB28
:1057E000401B022801D9032091E775480068C0F3E7
:1057F00040700028F2D1207800F00400042819D16C
:105800006F4888300068C0F3027620698101207DEE
:1058100041EA006040EA0670694988310860081D65
:10582000006820F4F851206A401E41EA00206449D3
:105830008C310860207800F00800082817D16048F3
:1058400088300068C0F303662069800140EA066181
:10585000207E41EA00705A4988310860081D0068BE
:1058600020F44030616A084355498C3108600120BA
:1058700052490867FFF760FB054606E0FFF75CFB4F
:10588000401B022801D9032041E74D480068C0F3BE
:1058900040700028F2D0207800F0200020287DD130
:1058A00000BF0020009046484030006840F0805023
:1058B0004349403108600846006800F0805000907D
:1058C00000BF00BF3F48006840F480703D49086059
:1058D000FFF732FB054606E0FFF72EFB401B0228D0
:1058E00001D9032013E73748006800F480700028CE
:1058F000F2D033487030006800F440764EB3208D0B
:1059000000F44070B04224D02D487030006820F47C
:10591000407601202C49086000200860284870303B
:105920000660006800F0010098B1FFF705FB05462E
:1059300008E0FFF701FB401B41F28831884201D9A2
:105940000320E4E61E4870300068C0F340000028E1
:10595000EFD000BF208D00F44070B0F5407F0CD137
:1059600017480830006820F4F810184AA16A11405E
:10597000084313490831086007E0114808300068FF
:1059800020F4F8100E49083108600D4870300068A6
:10599000218DC1F30B010843094900E002E0703199
:1059A000086000BF207800F01000102803D194F8A0
:1059B0002C00074908600020A9E6000000004742CB
:1059C0000038024000700040400E4742FFFCFF0FCD
:1059D000E011474270B504460D460CB9012070BD78
:1059E0005848006800F00F00A84209D255490D70D0
:1059F0000846006800F00F00A84201D00120EEE741
:105A0000207800F0020002281DD1207800F0040068
:105A1000042805D14C48006840F4E0504A49086029
:105A2000207800F00800082805D14748006840F4B5
:105A30006040454908604448006820F0F000A168D3
:105A4000084341490860207800F00100A8B360686D
:105A5000012807D13C4808380068C0F34040B8B975
:105A60000120BCE76068022802D06068032807D1E3
:105A7000354808380068C0F3406048B90120AEE7F7
:105A8000314808380068C0F3400008B90120A6E793
:105A90002D48006820F00300616808432A49086027
:105AA000FFF74AFA064609E0FFF746FA801B41F283
:105AB0008831884202D9032091E707E02248006834
:105AC00000F00C006168B0EB810FEDD11D4800685B
:105AD00000F00F00A84209D91A490D700846006865
