:020000040800F2
:10000000485C00208D02000837390008953100084F
:1000100035390008CD040008693F000800000000E1
:10002000000000000000000000000000CD010008FA
:10003000110900080000000029020008E93A000840
:10004000A702000839390008A7020008A702000823
:10005000C50900083D390008A7020008A7020008EA
:10006000A702000813090008A7020008A702000859
:1000700071080008A7020008A7020008A7020008EC
:10008000A7020008A7020008A7020008A7020008AC
:10009000A7020008A7020008A7020008A70200089C
:1000A000A7020008E13B0008A7020008A702000819
:1000B000A7020008A7020008A7020008A70200087C
:1000C000A7020008A7020008A7020008A70200086C
:1000D000A7020008393F0008453F0008513F0008CB
:1000E000A7020008A7020008A7020008A70200084C
:1000F000A7020008A7020008A7020008A70200083C
:10010000450A0008A7020008A7020008A702000885
:10011000A7020008A7020008A7020008A70200081B
:10012000A702000889080008A7020008A702000823
:10013000A7020008A7020008A7020008A7020008FB
:10014000A7020008A7020008A7020008A7020008EB
:10015000A7020008A7020008A70200085D3F0008E8
:10016000A7020008A7020008A7020008A7020008CB
:10017000A7020008A7020008A7020008000000006C
:10018000A7020008750B0008A7020008A7020008D4
:10019000A702000841390008A7020008A7020008CA
:1001A000A5310008993100087D080008DFF818D053
:1001B00000F04EF900F0E0F800480047D5DE0008F6
:1001C000AFF3008000F023F9485C00202C4B196845
:1001D0000868B0E8F04F80F30988BFF36F8F4FF0E5
:1001E000000080F311887047000000000848006894
:1001F000006880F308884FF0000080F3148862B62E
:1002000061B6BFF34F8FBFF36F8F00DF00BF00BF3A
:1002100008ED00E0DFF80C00016841F470010160B6
:10022000704700BF88ED00E0EFF30980BFF36F8FE8
:10023000134B1A681EF0100F08BF20ED108A20E93A
:10024000F04F106009B44FF0500080F31188BFF3F5
:100250004F8FBFF36F8F0EF039FC4FF0000080F32B
:10026000118809BC19680868B0E8F04F1EF0100F3B
:1002700008BFB0EC108A80F30988BFF36F8F704716
:1002800038000020EFF305807047000006488047E3
:1002900006480047FEE7FEE7FEE7FEE7FEE7FEE76B
:1002A000FEE7FEE7FEE7FEE7D13B0008AD010008F0
:1002B0002DE9F05F0546002092469B46884606469B
:1002C000814640241BE0284641464746224600F02E
:1002D00089F853465A46C01A914110D31146184620
:1002E000224600F070F82D1A67EB01084F462246AF
:1002F0000120002100F067F817EB00094E41201E95
:10030000A4F10104DFDC484631462A464346BDE8F5
:10031000F09F40EA01039B0703D009E008C9121FC0
:1003200008C0042AFAD203E011F8013B00F8013BAF
:10033000521EF9D27047D2B201E000F8012B491EDB
:10034000FBD270470022F6E710B513460A46044672
:100350001946FFF7F0FF204610BD10B5002200E05F
:10036000521C835C8C5CA34201D1002BF8D1D8B223
:10037000E1B2401A10BD000070B5054C054D03E018
:10038000206820448047241DAC42F9D170BD000094
:10039000280C0108380C01082DE9F04107461546E4
:1003A0000E4610200DF0C4FD04000AD06760C4E9B9
:1003B000026500F027F80168216004600020BDE8B4
:1003C000F0810120FBE7202A04DB203A00FA02F149
:1003D000002070479140C2F1200320FA03F3194333
:1003E00090407047202A04DB203A21FA02F00021D5
:1003F000704721FA02F3D040C2F120029140084335
:1004000019467047004870472402002070472DE9C4
:10041000F0410646FFF7F6FF8046454613E016B169
:10042000E068B0420ED120682860D4E90101D8F814
:100430000070884720460DF01FFDD8F80000B84234
:10044000EBD100E025462C68002CE8D1BDE8F08116
:10045000064C074D06E0E06840F0010394E8070011
:1004600098471034AC42F6D3FFF7A4FEF00B010816
:10047000100C0108704770B58C1810F8015B15F06E
:10048000070301D110F8013B2A1106D110F8012B06
:1004900003E010F8016B01F8016B5B1EF9D12B072B
:1004A00005D40023521E0DD401F8013BFAE710F8E1
:1004B000013BCB1A921C03E013F8015B01F8015BCE
:1004C000521EF9D5A142D8D3002070BDFEE700002E
:1004D000254A10B4136823F001031360234A1368FC
:1004E000C3F30B1C0123ACF54064243C07D0126815
:1004F000C2F30B12A2F5406CBCF1270C2AD11C4AA6
:1005000012683ABB1B4AD2F800C0CCF30B0CBCF506
:100510008A6F0FD0D2F800C0CCF30B0CACF580641E
:10052000833C07D01268C2F30B02A2F5806CBCF1C9
:10053000850C0FD1104A13601368002BFCD10F4AB1
:1005400010601068884202D010BC0020704710BCB8
:10055000012070470A4A93609368002BFCD1106019
:1005600010688842F3D0EFE7002000E000ED00E0E3
:10057000002004E00010005C084C0258004C0258B7
:100580000030024010B5124C00220421204601F038
:10059000A0F8206820F440502060206840F480508B
:1005A000206000224021204601F093F802200DF047
:1005B0003BFC01220421204601F08BF802200DF0C3
:1005C00033FC20460022BDE81040042101F081B830
:1005D000001C024030B587B014216846FFF7B2FE18
:1005E00017480024016841F0800101600068154D42
:1005F00000F08000059022460421284601F069F8A9
:1006000000224021284601F064F844200090012097
:10061000CDE9010469462846039400F03DFF694690
:10062000284600F039FF01220421284601F051F844
:1006300001224021284601F04CF807B030BD0000EF
:1006400030380240001C024010B5124C0022042138
:10065000204601F03EF8206820F4405020602068D9
:1006600040F48050206001224021204601F031F802
:1006700002200DF0D9FB01220421204601F029F8C7
:1006800002200DF0D1FB20460022BDE810400421DD
:1006900001F01FB8001C02402DE9F041194C07463B
:1006A0000025206820F440502060206820601E2033
:1006B0000DF0BAFB002600220421204601F009F8C3
:1006C00002200DF0B1FB01220421204601F001F8C7
:1006D0006806050E4021204600F0F6FF08B16D1CAB
:1006E000EDB202200DF0A0FB761CF6B2082EE2D38C
:1006F00027B1FFF747FF2846BDE8F081FFF7A4FFC9
:10070000F9E70000001C024070B5194E054630465E
:10071000316821F440513160316841F480513160D9
:100720000022042100F0D5FF0024280601D4002275
:1007300000E001224021304600F0CBFF6806050EA4
:1007400002200DF071FB01220421304600F0C1FFB0
:1007500002200DF069FB00220421304600F0B9FFB1
:1007600002200DF061FB641CE4B2082CDDD370BDE7
:10077000001C024010B5124C206820F4405020604C
:10078000206840F48050206001220421204600F0BF
:10079000A0FF01224021204600F09BFF1E200DF00B
:1007A00043FB00224021204600F093FF02200DF081
:1007B0003BFB20460022BDE81040042100F089BF29
:1007C000001C024010B5124C206820F440502060FC
:1007D000206840F48050206000220421204600F070
:1007E00078FF00224021204600F073FF1E200DF00C
:1007F0001BFB01220421204600F06BFF02200DF0BC
:1008000013FB20460122BDE81040402100F061BFEB
:10081000001C024070B5154C0025206820F44050A3
:1008200020602068206001224021204600F051FF16
:1008300001220421204600F04CFF07E06D1CEDB2C0
:10084000FA2D03D9FFF7BEFF012070BD02200DF085
:10085000EBFA4021204600F037FF0028EED10022BD
:100860000421204600F035FF002070BD001C02402E
:10087000014800F081BB000054070020014800F04F
:1008800046BA000088040020014800F075BB000053
:10089000B407002001681823CAB2103AB2FBF3F281
:1008A000054B6FF30901032A9B5CC36500D9091D41
:1008B0008165084670470000B8F8000810B5014689
:1008C00000208B698A6A4FF0C07453B1B3F5005FA2
:1008D00015D072B1012A0CD0022A0AD0032A09D1FC
:1008E00004E01AB1012A06D0022A03D1C96AC9015B
:1008F00000D5012010BDC96AA142FAD010BD002A5E
:10090000F7D0012AF2D0022AF3D0032AF3D010BD87
:100910007047082000F0B4BD72B6FEE7002229B18E
:1009200001291DD002291ED04FF440720B2800D996
:10093000001D0E490B6823F440730B600B681343D2
:100940000B600A6822F0F8020A600A68022303EBCF
:10095000C00002430A60086840F4803008607047B5
:100960004FF48072E2E74FF40072DFE7103C024080
:100970001348016889050FD5016821F400710160F1
:10098000016841F400610160016821F400610160C7
:10099000016841F400710160016849050FD50168E3
:1009A00021F480610160016841F4805101600168B7
:1009B00021F480510160016841F480610160704759
:1009C000003C024000F026BC1C490868C2061C48D6
:1009D00005D5C26942F01002C26110220A600A689D
:1009E000920605D5C26942F00802C26120220A605F
:1009F0000A68520605D5C26942F00402C26140226B
:100A00000A600A68120605D5C26942F00202C26194
:100A100080220A600A68D20506D5C26942F0010246
:100A2000C2614FF480720A600A68920705D5C269F4
:100A300042F02002C2610220086070470C3C024074
:100A40005C080020014801F039BD0000C804002006
:100A500030B5D1E901231A43D1E903352B431A43B9
:100A60004B690C681A438B691A43D1E90735012C8D
:100A7000496A046807D01A432A436FF30E040A43F5
:100A8000224302600AE024F4F8442B4321430B4341
:100A9000416803606FF30E010A434260002030BDDD
:100AA000426942EA4101416100207047F8B51446AD
:100AB0000546D1E9000210438A686FF01F03C96838
:100AC00003EB421242EA412108430090286100F002
:100AD00005FE064609E0601C07D024B100F0FEFDCB
:100AE000801BA04201D90320F8BDA8698006F2D47A
:100AF0000020F8BDF0B56FF00F05D1E9003405EB2B
:100B000004145B1E23432E018C682F0306EB042480
:100B100023434FEA054C0C8A8E8ACD68097E4FF03C
:100B20007F4E07EB04440CEB06560EEB0161012AE5
:100B30000CD082683F1107EB05352B432343334329
:100B400002F070420B43134383600FE08768084A4A
:100B500017402A03A2F580523243C5683A43234323
:100B600005F070450B432B438260C3600020F0BD4D
:100B7000FF0F0FFF704700002DE9F043C3B0F021D5
:100B80006846FFF7DFFB08253DAA0024012603275E
:100B90003C95DFF86C9082E8D0003CA9484600F014
:100BA0007BFC4FF48078CDE93C863CA9484600F0B8
:100BB00073FCFFF70FFD00224146484600F089FD17
:100BC0000C2000F013FB01224146484600F081FD55
:100BD0000A2000F00BFBCDE93C54CDE93E473CA98F
:100BE000484600F059FC642000F000FB05A141A834
:100BF000FFF7B3FB002800D0012043B0BDE8F0832D
:100C0000001C024031313538000000002DE9F04170
:100C100015460E460446FFF7ADFD2820FFF774FD8C
:100C2000FFF7F8FD200AFFF76FFDFFF7F3FDE0B2D5
:100C3000FFF76AFDFFF7EEFDFFF79CFD2920FFF7A8
:100C400063FDFFF7E7FD00246F1E09E0BC4201D001
:100C5000012000E00020FFF71FFD3055641CE4B2C6
:100C6000AC42F3D3BDE8F041FFF7ACBD2DE9F04154
:100C700000241746884606462546FFF77BFD2820B8
:100C8000FFF742FDFFF7C6FD300AFFF73DFDFFF716
:100C9000C1FDF0B2FFF738FDFFF7BCFD0AE000BF71
:100CA00018F80400FFF730FDFFF7B4FD050003D18D
:100CB000641CE4B2BC42F3D3FFF784FD2846BDE8D0
:100CC000F08110B5040002D0607910B106E0012077
:100CD00010BD00202071204600F004F80120607152
:100CE000002010BD08B500680649884208D10648B2
:100CF000016841F480510160006800F48050009068
:100D000008BD0000003002403038024070472DE935
:100D1000F0470446006846680568F1074FF004088C
:100D20004FF000074FF0010914D0E90512D5016812
:100D300021F480710160E06B40F00100E063216804
:100D4000C1F8089084F8398084F83870616909B175
:100D500020468847B00615D5A80413D52068016839
:100D600021F400510160216820208860E06B40F090
:100D70000200E06384F8398084F83870616909B151
:100D800020468847300715D5280513D52068016807
:100D900021F400610160216808208860E06B40F068
:100DA0000400E06384F8398084F83870616909B11F
:100DB0002046884770070CD568050AD52068016869
:100DC00021F4806101602168C1F80880204600F0AC
:100DD0005AF8B00713D5A80511D52068016821F489
:100DE00000710160216802208860E06BE06384F894
:100DF000399084F83870216909B120468847F00697
:100E000012D5E80410D52068016821F480510160F2
:100E1000216810208860E06BE06384F8399084F8E2
:100E200038702046FFF772FFBDE8F08770B5040008
:100E300004D094F83900002510B106E0012070BDFF
:100E400084F83850204600F01FF8022084F839005A
:100E500020680168626821F4403111430160206814
:100E6000416BA26821F00701114341632068016CC6
:100E7000E2686FF30D0111430164E563012084F81A
:100E80003900002070BD704708B500680B498842E2
:100E900012D10B48016841F4000101600068002292
:100EA00000F40000009005215A2000F0A1FEBDE8EA
:100EB00008405A2000F08EBE08BD000000B002407D
:100EC000303802402DE9F0410446876D00F006FC01
:100ED000064694F835000025022806D0802060657B
:100EE00084F834500120BDE8F0812068016821F0C9
:100EF000160101602068416921F080014161206C88
:100F000008B9A06C20B12068016821F008010160D7
:100F10002068016821F0010101600BE000F0DEFBB8
:100F2000801B052806D92020606504F8345F032063
:100F30006070D8E720680068C007EFD194F85C10B3
:100F40003F208840B86004F8345F012060700020C2
:100F5000C9E790F83510022903D0802141650120AE
:100F60007047052180F835100068016821F0010103
:100F700001600020704700002DE9F84304464FF05F
:100F80000009CDF8009063484FF41651A56D006834
:100F9000B0FBF1F72E6894F85C10082000FA01F11C
:100FA00031420FD021680A6852070BD50A6822F037
:100FB00004020A6094F85C108840A860606D40F0FC
:100FC0000100606594F85C104FF0010808FA01F028
:100FD000304208D021684969090604D5A860606DCF
:100FE00040F00200606594F85C10042088403042B4
:100FF00008D021680968890704D5A860606D40F0B1
:101000000400606594F85C1010208840304218D0CD
:1010100021680968090714D5A86020680168490398
:1010200004D50068000308D5A16C07E00168C90574
:1010300003D4016821F008010160216C09B1204648
:10104000884794F85C1020208840304231D02168D5
:101050000968C9062DD5A86094F8350005282068D0
:10106000016806D0490347D5006800031DD4616CB0
:101070001CE021F0160101602068416921F0800127
:101080004161206C08B9A06C20B12068016821F092
:101090000801016094F85C103F208840A86084F843
:1010A000349084F83580216D1FE0E16B09B1204652
:1010B0008847606D00282BD0606DC00714D00520D4
:1010C00084F835002068016821F001010160009872
:1010D000401C0090B84203D820680068C007F6D1D1
:1010E00084F8349084F83580E16C002910D001B088
:1010F0002046BDE8F04308470168C905D5D401681A
:1011000021F01001016084F8349084F83580CCE738
:10111000BDE8F883340000202DE9F041044600F0DA
:10112000DDFA06465CB1002584F83450022084F8CC
:1011300035002068016821F0010101600DE0012007
:10114000BDE8F08100F0CAFA801B052805D92020EF
:101150006065032084F83500F2E720680068C00766
:10116000F0D12268116820480140D4E901031843F6
:10117000D4E903363343184363691843A36918431A
:10118000E3691843236A18430843616A042903D1B9
:10119000D4E90B1319430843106020684069666A5C
:1011A00020F0070130460E43012704280CD1A06A25
:1011B0000643E06A40B12046FFF780FB20B14020A3
:1011C000606584F83570BAE7206846612046FFF70D
:1011D00061FB94F85C203F2191408160656584F853
:1011E00035700020ACE700003F8010F070B5044679
:1011F00000F074FA0546601C02D0044800780444EC
:1012000000F06CFA401BA042FAD370BD2800002009
:10121000704700002DE9F0412F4F38682F4C10F433
:10122000F97F4FF0FF384FF000050DD020780128EE
:101230002ED0207802282FD0D4F81460FFF7C4FBFA
:10124000304600F04DF825703868C0070BD00120FB
:1012500038602078012821D02078022838D06069B1
:10126000FFF7D6FF2570207800280FD11A48001DFF
:10127000016848F2FF0291430160016821F080712A
:101280000160016821F0007101602576BDE8F08100
:10129000E668C4F80C80D1E72669CFE76068401E95
:1012A0006060606850B1E068FFF7B2FFE068401C22
:1012B000E060E068217AFFF731FBD4E74646C4F8E6
:1012C0000C802570FFF754FB3046FFF7A1FFCAE7FB
:1012D000FFF74EFB2069C3E70C3C02405C0800208E
:1012E00070470000F0B587B014216846FFF72AF870
:1012F0002948016800294CD10121016027480024B8
:10130000016841F0010101600068022500F0010060
:1013100005904FF63F00CDE9000502AA03260C27F1
:1013200082E8D00069461E4800F0B6F80D20CDE9ED
:10133000000502AA694682E8D0001A4800F0ACF81D
:1013400048F23710CDE9000502AA694682E8D000CC
:10135000154800F0A1F84FF68370CDE9000502AA08
:10136000694682E8D000114800F096F84CF203700C
:10137000CDE9000502AA694682E8D0000C4800F0D9
:101380008BF800220521302000F032FC302000F0E4
:1013900021FC07B0F0BD00001C00002038380240DE
:1013A00000140240000802400018024000100240F1
:1013B000000C02402DE9F04100248AB025468DF84A
:1013C0001C408DF82440082852D148F24E160122C4
:1013D00007A93046FFF71AFC9DF81C1008060AD52D
:1013E00001F00F00062806D28DF82450012209A929
:1013F0003046FFF73BFC9DF81C001F4D01072DD028
:1014000000F00F00062829D26E4603AFDFF86C808B
:1014100018E000BF38F81400042208A9FFF7F6FB13
:101420009DF820009DF8211000EB012026F8140003
:101430009DF822009DF8231000EB012027F81400EE
:10144000641CE4B29DF81C0000F00F00A042E1D83B
:10145000BDF800002880BDF80C0068809DF81C00D5
:1014600000F08F00802803D14FF6FF70288068803D
:101470000AB0BDE8F08100000000002086F70008F7
:10148000044910B50A68024202D00860FFF792FFD3
:1014900010BD0000143C01402DE9F84FDFF8F4A125
:1014A000002201240AF1040B03254FF00F090BF170
:1014B000040E00BF0B6804FA02F63340B3426FD14A
:1014C0000F7907F00307012F01D0022F16D187688B
:1014D0004FEA420805FA08FC27EA0C07D1F80CC0CD
:1014E0000CFA08FC4CEA070CC0F808C04768B74380
:1014F0000E79C6F3001696403E4346600E79F643D9
:10150000B6070AD0C7684FEA420C05FA0CF6B74393
:101510008E6806FA0CF63E43C6600E7906F00306A6
:10152000022E10D1D60800EB8608D8F820605707A5
:101530004FEAD76C09FA0CF7BE430F6907FA0CF7AC
:101540003743C8F8207006684FEA420C05FA0CF7DA
:10155000BE430F7907F0030707FA0CF7374307601C
:101560004E68F6001CD54C4E376847F4804737600C
:10157000366822F0030706F480460096474E07EBD4
:10158000060CDCF8086897073F0F09FA07F826EA07
:101590000806DFF80C81404503D14FF0000841E018
:1015A00072E0DFF80081404502D14FF0010839E0D8
:1015B000DFF8F480404502D14FF0020832E0DFF856
:1015C000EC80404502D14FF003082BE0DFF8E080CB
:1015D000404502D14FF0040824E0DFF8D8804045B0
:1015E00002D14FF005081DE0DFF8CC80404502D164
:1015F0004FF0060816E0DFF8C480404502D14FF0F6
:1016000007080FE0DFF8B880404502D14FF0080826
:1016100008E0DFF8B080404502D14FF0090801E052
:101620004FF00A0808FA07F848EA0608CCF80888D4
:10163000DAF800605746D1F804C09E435FEACC3C1C
:1016400000D51E433E60DBF800605F46D1F804C061
:101650009E435FEA8C3C00D51E433E60DEF800608E
:101660007746D1F804C09E435FEACC2C00D51E43D8
:101670003E60084F0C373E68D1F804C09E435FEAD5
:101680008C2C00D51E433E60521C102AFFF412AF72
:10169000BDE8F88F003C0140443802400030014072
:1016A000000002400004024000080240000C02401A
:1016B000001002400014024000180240001C0240CA
:1016C00000200240002402400069084000D00120B0
:1016D00070470AB1816170470904FBE701488068DF
:1016E00070470000280000200248816802781144F9
:1016F00081607047280000200B4810B5016841F454
:1017000000710160016841F480610160016841F489
:1017100080710160032000F08BFA002000F006F8D1
:1017200000F01AFA002010BD003C024010B501463E
:1017300088B00022192000F05BFA192000F04AFA64
:1017400013480024016841F001010160006805A907
:1017500000F001000690684600F088FC00F0B6FC3E
:101760000C494000B0FBF1F10C480B4A491E0260E5
:1017700040F2E732C0E90324C0E9011401F009F99D
:1017800010B1012008B010BD044801F043F9F9E799
:101790004438024040420F0000000140140800207D
:1017A0002DE9F041044690F8A00016460F460128A6
:1017B0001DD0012584F8A050022084F8A10006EB7A
:1017C000860000EBC60004EB800034223830FEF7C0
:1017D000A0FD32463946204601F0EAFC2068456209
:1017E00084F8A150002084F8A000BDE8F081022018
:1017F000FBE770472DE9F04104460068856B466BB6
:1018000069074FF004084FF0000715D5710713D58D
:10181000416B21F0040141632168C1F83C80D4F898
:10182000A41041F00101C4F8A41084F8A18084F848
:10183000A0702046FFF7DDFFA80716D5B00714D526
:101840002068416B21F00201416321680220C863D6
:10185000D4F8A40040F00200C4F8A40084F8A180E9
:1018600084F8A0702046FFF7C4FF05EA0600C00711
:101870004FF001080ED02068416B21F00101416357
:101880002168C1F83C8084F8A18084F8A0702046CB
:1018900000F090F8280710D530070ED52068416B6E
:1018A00021F00801416321680820C86384F8A18001
:1018B00084F8A070204600F04DF9BDE8F0810000EA
:1018C00070B5040004D094F8A100002510B106E022
:1018D000012070BD84F8A050204600F097F8022047
:1018E00084F8A1002068816921F070418161D4E908
:1018F00001010843D4E903121143084321688A69AE
:101900001043886121688A68294802408A60A18A58
:101910000A0421688B68A669334313438B602168EE
:10192000CA680240CA60A18B0B042168CA68266A93
:1019300032431A43CA6021680A6902400A61A18CD5
:1019400022680B041169A66A3143194311612168A9
:101950004A6902404A61A08D010420684269236BF4
:101960001A430A43426194F835002168020294F850
:101970003600CB6A03F07F43CB622168CB6A94F8D0
:10198000346042EA004033430343CB622068416B3A
:1019900041F0060141632068816941F001018161E4
:1019A000C4F8A450012084F8A100002070BD0000FC
:1019B00000F800F0124910B50B68124A124C118859
:1019C0008B4211D1518800F0A3F8206810F8661FEF
:1019D000491C017003F052F9206805F037FDBDE89D
:1019E0001040002006F056BE00F092F8002006F0ED
:1019F00052FE20680168096ABDE8104008470000EF
:101A000040680140C80000200802002070B586B080
:101A1000044614216846FEF795FC37492068884241
:101A200068D136480024016841F080610160006897
:101A300000F08060059031481438016841F48071ED
:101A40000160016801F480710591016841F0200195
:101A50000160016801F020010591016841F08001F9
:101A60000160016801F080010591016841F04001C9
:101A700001600068022500F04000059040F2F76028
:101A80000090CDE901540E26CDE9034669461C4875
:101A9000FFF702FD68020090CDE90154CDE903464D
:101AA00069461848FFF7F8FC4FF47E400090CDE9F6
:101AB0000154CDE9034669461348FFF7EDFC4FF4A6
:101AC0000C600090CDE90154CDE9034669460F480A
:101AD000FFF7E2FC00220621582000F089F8582088
:101AE00000F078F800220621592000F081F85920F2
:101AF00000F070F806B070BD006801404438024044
:101B00000020024000140240001C02400018024065
:101B100010B590F8A020012A17D0012200F8A02FBC
:101B20000223437050F8A03C5C6B24F001045C631A
:101B3000074B196050F8A01C4B6B43F001034B633B
:101B4000427000210170084610BD022010BD000047
:101B500040680140704700001D4808B5016841F425
:101B600080410160006800F4804000901848001F28
:101B7000016841F0805101600068002200F080504F
:101B800000900F21901E00F033F800220521012063
:101B900000F02EF8012000F01DF80022052104209D
:101BA00000F026F8042000F015F805210022084670
:101BB00000F01EF8052000F00DF80022052151204C
:101BC00000F016F8BDE80840512000F003B800000E
:101BD00044380240002809DB00F01F020121914037
:101BE0004009800000F1E020C0F8001170470000BB
:101BF000F0B40E4B1B680C46C3F30223C3F1070578
:101C0000042D00D90425191D072901D2002300E065
:101C1000DB1E012606FA05F1491E214099409E402F
:101C2000761E16403143F0BC0BF0F3BE0CED00E025
:101C3000064900F0070208684FF6FF03184040EA23
:101C40000220034A10430860704700000CED00E0DA
:101C50000000FA052DE9F8431748016841F080516A
:101C600001600068154F00F08050012600903E642E
:101C7000FFF734FD05464FF47A78114C05E000BFBC
:101C8000FFF72CFD401B40450DD86068C003F7D519
:101C90007E64FFF723FD0546464607E0FFF71EFD7D
:101CA000401BB04202D90320BDE8F883606880037E
:101CB000F4D50020F8E700004038024000000E4252
:101CC000007000407047000010B5054C2068C0034C
:101CD00004D5FFF7F7FF4FF48030206010BD0000FF
:101CE000143C01402DE9F84F04460068DFF824A2B7
:101CF000894F8A4DC1074FF001084FF0000603D10C
:101D0000810701D4400648D5CAF86860FFF7E6FCB1
:101D1000814605E0FFF7E2FCA0EB090002287DD830
:101D200028680001F6D42078C1077D4805D0616895
:101D3000227A890141EA027101602178890711D56F
:101D400001686268237B9201C1F3027142EA036277
:101D500042EA017101603968E26921F01F01521EF7
:101D6000114339602178490608D56168227B8901D1
:101D700041EA0261227A41EA02710160CAF8688090
:101D8000FFF7ACFC814605E0FFF7A8FCA0EB0900DB
:101D9000022843D828680001F6D52068410701D4FD
:101DA00000074ED5CAF87060FFF798FC814605E041
:101DB000FFF794FCA0EB090002282FD82868C04345
:101DC0008000F5D520784107564814D5016822696E
:101DD000237D9201C1F3027142EA036242EA01717A
:101DE00001603968226A6FF0FF0321F4F85103EBB8
:101DF0000222114339602178090712D5016822694E
:101E0000C1F30361920142EA0161227E41EA02715B
:101E100001603868616A20F4403000E051E0084316
:101E20003860CAF87080FFF759FC074605E000BF2C
:101E3000FFF754FCC01B022843D82868C043800029
:101E4000F6D42078800653D534484030016841F0FC
:101E5000805101600068344D00F080500090286887
:101E600040F480702860FFF739FC074605E000BFAA
:101E7000FFF734FCC01B022823D82868C005F7D51B
:101E8000274D143D286810F4407020D0218D01F4B6
:101E9000407181421BD0286820F440712348C0F86B
:101EA0000080066029602868C00710D0FFF716FC84
:101EB000064641F2883707E0FFF710FC801BB84266
:101EC00002D90320BDE8F88F28688007F4D5A16AFD
:101ED0001248C1F301220830032A13D0016821F40B
:101EE000F81101602868218DC1F30B0108432860B7
:101EF0002078C00604D50E4994F82C00C1F8E00102
:101F00000020DFE702680B4B22F4F81219400A4365
:101F10000260E7E7000047428C3802400038024088
:101F2000843802408838024000700040400E47422A
:101F300000104742FFFCFF0F2DE9F0470E46050059
:101F400065D0DFF81481D8F80000F7B200F00F0078
:101F5000B04207D288F80070D8F8000000F00F00F7
:101F6000B04254D128683D4C810712D5400703D5B3
:101F7000206840F4E05020602878000703D52068EE
:101F800040F4604020602068A96820F0F000084319
:101F900020602878C0072DD03049686808390128AA
:101FA00012D0022813D0032811D00968890700290C
:101FB0002DDA216821F0030101432160FFF78EFB38
:101FC000814641F2883A0EE009688903EFE7096823
:101FD0008901ECE7FFF782FBA0EB0901514502D92B
:101FE0000320BDE8F0872068696800F00C00B0EBC2
:101FF000810FEFD1D8F80010404601F00F01B14237
:1020000007D90770006800F00F00B04201D001202E
:10201000E7E72878400705D52068E96820F4E05014
:10202000084320602878000706D52068296920F435
:10203000604040EAC100206000F058F82168084A7A
:10204000C1F30311515CC8400649086006480068A6
:10205000FFF76CFB0020C4E7003C02400838024058
:10206000C0F80008340000202C0000200F2202607D
:102070000C4A136803F003034360136803F0F00392
:102080008360136803F4E053C36012684FF4E053B5
:1020900003EAD20202610448006800F00F00086001
:1020A0007047000008380240003C024004480549DF
:1020B00000680968044AC1F38221515CC840704736
:1020C0003400002008380240D0F8000804480549D0
:1020D00000680968044AC1F34231515CC840704746
:1020E0003400002008380240D0F80008154810B528
:1020F000006810F00C02144813D01449042A0FD0C1
:10210000082A0ED10F4C241F2268236802F03F02D8
:102110005B0207D52068C0F38810A0FB010106E030
:10212000084610BD2168C1F38811A1FB00010023FE
:10213000FEF7BEF82168C1F30141491C4900B0FB1C
:10214000F1F010BD083802400024F40040787D0111
:102150002DE9F84F04006ED02078DFF84C93C007CB
:10216000A9F104054AD009F104000168C1F3810115
:10217000012908D00068C0F3810002280AD1D9F8EB
:102180000000400206D52868800337D56068002823
:10219000E1D033E06068B0F5803F10D0B0F5A02FFB
:1021A000286810D020F480302860286820F480202F
:1021B00028606068A8B1FFF791FA06460DE028682C
:1021C00040F48030F4E740F480202860F7E700BF57
:1021D000FFF784FA801B642873D828688003F7D53A
:1021E0000CE0FFF77BFA064605E000BFFFF776FA42
:1021F000801B6428F0D828688003F7D42078DFF8A3
:10220000AC8280074FF0000A3ED5A748001D016848
:1022100011F00C0F08D00068C0F3810002280BD128
:10222000D9F80000400207D42868800716D5E06876
:10223000012800D112E033E1E068B8B10120C8F80C
:102240000000FFF74BFA064605E000BFFFF746FA2D
:10225000801B0228C0D828688007F7D52868216924
:1022600020F0F80040EAC10028600DE0C8F800A0A6
:10227000FFF734FA064604E0FFF730FA801B022825
:102280001FD828688007F7D42078000722D5864F0A
:1022900087486169703771B101210160FFF71EFA4B
:1022A000064604E0FFF71AFA801B022809D83868AE
:1022B0008007F7D50EE0C0F800A0FFF70FFA06463A
:1022C00005E082E0FFF70AFA801B02287DD8386813
:1022D0008007F7D42078400768D5DFF8CCB1002715
:1022E0000BF13C0BDBF80000C0000BD4DBF8001056
:1022F00041F08051CBF80010DBF80000012700F01E
:10230000805000906B4E3068C00510D4306840F4A7
:1023100080703060FFF7E2F9009005E0FFF7DEF92A
:102320000099401A022850D83068C005F6D55E4E94
:10233000A0686C3601280FD00528306810D020F036
:1023400001003060306820F004003060A068B8B14F
:10235000FFF7C4F900900FE0306840F00100F4E7A7
:1023600040F004003060F7E7FFF7B8F90099411A30
:1023700041F28830814266D830688007F4D50EE09B
:10238000FFF7ACF9009007E0FFF7A8F90099411AB0
:1023900041F28830814256D830688007F4D42FB19A
:1023A000DBF8001021F08051CBF80010A069C8B311
:1023B0003D49091D0968C1F3810102294AD002285B
:1023C000504607D0C8F8600000E03CE0FFF786F90F
:1023D00004463BE04746C8F86000FFF77FF9064631
:1023E00005E000BFFFF77AF9801B02282BD8286888
:1023F0008001F7D4D4E907010843A16A2E4A4908AD
:1024000002EB0141626A41EA8211084394F82C1000
:1024100040EA0161C9F8001001203866FFF75EF953
:10242000044606E03EE000BFFFF758F9001B022813
:1024300009D828688001F7D534E000BFFFF74EF9CE
:10244000001B022802D90320BDE8F88F286880010C
:10245000F4D427E00128F7D0D9F80000E26900F4AD
:10246000800191421CD1226A00F03F01914217D1B4
:1024700047F6C071626A0140B1EB821F10D1A26AB7
:102480004FF0FF3300F4403103EB5202B1EB024F47
:1024900006D194F82C1000F07060B0EB016F01D001
:1024A0000120D1E70020CFE7043802400000474276
:1024B000800E4742007000400000FFFF10B5044648
:1024C00000688069C00707D0204600F03AF820680D
:1024D000416941F00101416110BD70B50D46040034
:1024E00003D094F82C0010B107E0012070BD00204B
:1024F00084F82D00204600F011F8022084F82C000A
:10250000211D2068FEF7A4FAD4E900022946FEF74F
:10251000F1FA012084F82C00002070BDFEF7E2BE25
:1025200010B5044690F82C00022809D0022084F847
:102530002C002068FEF7B4FA012084F82C0000205B
:1025400010BD704770B5044690F82C000D46022867
:102550000DD0022084F82C002068FEF7A7FA286826
:10256000022805D05FF0010084F82C00002070BD27
:102570000520F9E77047000038B5016804464A684D
:102580008868C043430606D5C30704D1D3435B061E
:1025900001D4216C05E0830708D4D3431B0605D47E
:1025A000616C01B02046BDE830400847830603D582
:1025B000430601D5C30551D4D3439B064ED44306ED
:1025C0000AD494F85130032B49D0636D43F00403CF
:1025D0006365CB688B680093830609D4636D43F011
:1025E000010363658B6800930B6823F040030B6065
:1025F000C00506D4606D40F0080060652068806802
:102600000090606D002829D02068416821F0E00129
:102610004160012084F85100900701D4D00722D0F6
:102620002068416821F003014160114DE06C40B128
:102630000565E06CFEF78DFC18B1606D40F0400060
:102640006065A06C002809D00565A06CFEF781FCD0
:10265000002803D0606D40F04000606538BDC86858
:102660008868009038BD2046FFF784FF38BD000021
:10267000A139000870B5040009D0606A002540B196
:1026800025616561A56294F8510040B10CE001201C
:1026900070BD6068B0F5827FF4D0E561F2E784F840
:1026A0005050204600F044F8022084F85100206881
:1026B000016821F040010160A088218900F4827046
:1026C00001F404410843A18901F400610843217C1D
:1026D00001F002010843217D01F001010843218B33
:1026E00001F400710843217F01F03801084394F898
:1026F000201001F080010843218D01F400510843AE
:1027000021680860A069042101EA104094F82410AF
:1027100001F010010843216848602068C16921F474
:102720000061C1616565012084F85100002070BD21
:1027300010B586B0044614216846FDF703FE18491B
:102740002068884229D117480021026842F480128B
:102750000260006800F48010059012481438026886
:1027600042F020020260006800F0200005904FF463
:10277000607000900220CDE9010103200390052044
:10278000049069460848FEF787FE0022052155207F
:10279000FFF72EFA5520FFF71DFA06B010BD000016
:1027A0000050014044380240001402402DE9F84F27
:1027B000044690F8500000270A9E1D4692468B461C
:1027C0004FF0010901280ED0012084F85000FEF7D7
:1027D00085FF804694F85100616801280CD0B1F55E
:1027E000827F07D102E00220BDE8F88FA16809B915
:1027F000042801D00227C2E0BBF1000F27D0BAF1B4
:10280000000F24D01DB394F85100042802D00520F5
:1028100084F8510000206065C4F838A0E587A587DA
:10282000C4F830B0E586A58620646064206801683D
:10283000490603D4016841F040010160E068B0F549
:10284000006F606805D0E8B3012D46D07FE0012716
:1028500095E008B1012D39D1206B21680088C8604E
:10286000206B801C2063E08E401EE0862EE02068F6
:10287000816889070FD5E18E69B1B9F1010F0AD1DD
:10288000216B0988C160206B801C2063E08E401E94
:10289000E0864FF0000920688168C9070CD0E18FFD
:1028A00051B1C068A16B0880A06B801CA063E08F51
:1028B000401EE0874FF00109FEF710FFA0EB080073
:1028C000B04200E009E001D3701C50D1E08E002836
:1028D000CDD1E08F0028CAD13FE0206B216800787D
:1028E0000873206B401C2063E08E401EE0862EE0C3
:1028F0002068816889070FD5E18E69B1B9F1010FB0
:102900000AD1216B09780173206B401C2063E08E93
:10291000401EE0864FF0000920688168C9070CD08E
:10292000E18F51B1C068A16B0870A06B401CA0631F
:10293000E08F401EE0874FF00109FEF7CFFEA0EBCD
:102940000800B04202D3701C01D010E07EB1E08ECE
:102950000028CDD1E08F0028CAD14246314620461A
:1029600001F026F828B101272020606507E0032741
:1029700005E0A06818B92068C1688068009001204F
:1029800084F85100002084F8500038462CE7704746
:10299000704710B5040003D094F83D0010B107E073
:1029A000012010BD002084F83C00204600F01EF8F5
:1029B000022084F83D00211D206801F017F9012054
:1029C00084F8460084F83E0084F83F0084F8400014
:1029D00084F8410084F8420084F8430084F84400FD
:1029E00084F8450084F83D00002010BD08B500685B
:1029F0000649884208D10648016841F480710160A7
:102A0000006800F48070009008BD000000200040C5
:102A10004038024090F83D10012901D00120704754
:102A2000022180F83D100168CA6842F00102CA60C4
:102A300000681149884214D0B0F1804F11D00F497D
:102A400088420ED00E4988420BD00E49884208D0E9
:102A50000D49884205D00D49884202D00C49884270
:102A600004D1816801F00701062903D0016841F013
:102A70000101016000207047000001400004004097
:102A800000080040000C00400004014000400140EC
:102A900000180040704770B50446006801694FF0A7
:102AA0000005C943890715D4C168C943890711D4F2
:102AB000E91E016101202077206880698007204697
:102AC00002D0FFF7E7FF04E000F098F8204600F09E
:102AD00096F8257720680169C943490717D4C1686A
:102AE000C943490713D46FF0040101610220207724
:102AF0002068806910F4407F204602D0FFF7CAFFAB
:102B000004E000F07BF8204600F079F82577206893
:102B10000169C943090716D4C168C943090712D41A
:102B20006FF008010161042020772068C0698007E8
:102B3000204602D0FFF7AEFF04E000F05FF8204629
:102B400000F05DF8257720680169C943C90617D4EC
:102B5000C168C943C90613D46FF010010161082090
:102B600020772068C06910F4407F204602D0FFF72C
:102B700091FF04E000F042F8204600F040F825778D
:102B800020680169C943C90708D1C168C943C90799
:102B900004D1891E0161204600F032F820680169E5
:102BA000C943090609D4C168C943090605D46FF0B1
:102BB000800101612046FFF7EAFE20680169C943F0
:102BC000490609D4C168C943490605D46FF04001DC
:102BD0000161204600F01EF820680169C94389069A
:102BE0000BD4C168C943890607D46FF02001016185
:102BF0002046BDE87040FFF7CBBE70BD7047704700
:102C000000680349884201D1FEF76EBD704700009D
:102C1000000001407047704770470000F8B5026837
:102C200004461068D168536910F00F0F4FF000058B
:102C300053D003F0010601F4907737435FD0C20709
:102C400005D0CA0503D5226C42F001022264420776
:102C500005D5DA0703D0226C42F002022264820713
:102C600005D5DA0703D0226C42F004022264020781
:102C700007D501F02002324303D0226C42F0080253
:102C80002264226C002A34D0800604D5880602D53E
:102C9000204601F041F820684069216CC0F38010A3
:102CA000090700D430B3204601F01EF820684169BE
:102CB00049061BD5416921F040014161A06BA8B1D3
:102CC00059490165A06BFEF744F9002811D0A06BAB
:102CD000016D01B0BDE8F040084783060FD58B06B3
:102CE0000DD52046BDE8F84001F016B82046FFF7A4
:102CF00093FFF8BD2046FFF78FFF2564F8BD266BD4
:102D00002023012E53D1C60651D5CE064FD51068CB
:102D100050680090506940062BD5A16B0868406848
:102D20000004000CEAD0A68D8642E7D9E085C86988
:102D3000B0F5807F18D0D06820F48070D060206813
:102D4000416921F0010141612068416921F04001A0
:102D5000416184F83E3025632068C16821F010018C
:102D6000C160A06BFEF7AEF8A08DE18D401A81B274
:102D700019E0A08DE18D401A81B2E08D0028BDD010
:102D80000029BBD0D06820F49070D06020684269E0
:102D900022F00102426184F83E3025632068C26857
:102DA00022F01002C2602046FFF735FFF8BD05068D
:102DB0002BD50D0629D594F83D002128F6D1A06821
:102DC000B0F5805F01D12069B0B1206A411C216259
:102DD000216800784860E08C401E0004000CE0840C
:102DE000E4D12068C16821F08001C1602068C16819
:102DF00041F04001C160F8BD206A0088C0F30800BE
:102E00005060206A801C2062E5E74006F3D5480642
:102E1000F1D5D168204621F04001D16084F83D30E1
:102E200000F0B7F9F8BD0000D93C000870B5040007
:102E300004D094F83D00002510B106E0012070BDDB
:102E400084F83C50204600F023F8242084F83D000C
:102E50002068C16821F40051C160204600F0B4FF31
:102E60002068016921F4904101612068416921F0E5
:102E70002A0141612068C16841F40051C1602564A4
:102E8000202084F83D0084F83E00002070BD000042
:102E90002DE9F04F87B0064614216846FDF752FA37
:102EA0008248814B326800248049143807254FF04E
:102EB00002094FF003089A4221D10A6842F0100239
:102EC0000A60096801F010010591016841F00101F3
:102ED00001600068CDE9024800F0010005904FF460
:102EE000C060CDE90009694604957148FEF7D4FA3F
:102EF000002206212520FEF77BFE252037E06D4BC2
:102F0000DFF8A8C10127ACF1040C4FF0400B9A4246
:102F100032D1DCF8002042F40032CCF80020DCF89A
:102F2000001001F400310591016841F008010160D1
:102F30000068CDE9024800F0080005902020CDE9A6
:102F400000095D4C694604952046FEF7A5FACDF8C8
:102F500000B0CDE90385CDE9019769462046FEF72B
:102F60009BFA002206212620FEF742FE2620FEF7CD
:102F700031FE07B0BDE8F08F504B4FF4806A9A42A3
:102F800045D1DCF8002042F48022CCF80020DCF8A7
:102F9000001001F480210591016841F002010160F7
:102FA0000068DFF81CB100F00200CDE90450CDE963
:102FB0000248CDE900A969465846FEF76DFA4FF47C
:102FC0000060CDE900090297CDE9038569465846BE
:102FD000FEF762FA3C4D3B4828604FF00060C5E9BF
:102FE0000104C5E9034A6C61AC61EC612C622846BE
:102FF0006C62FEF791F808B1FDF78EFCB563002214
:1030000006212720AE63FEF7F3FD2720AFE72F4B05
:103010009A42AED10A6842F020020A60096801F0C3
:1030200020010591016841F004010160016801F08F
:1030300004010591016841F0400101600068082524
:1030400000F04000CDE90450CDE90248CDE900B9D7
:1030500069461F48FEF720FAA801CDE9000902974A
:10306000CDE9038569461B48FEF716FA164D1A4846
:10307000603528608005C5E90104C5E9034A6C6133
:10308000AC61EC612C6228466C62FEF745F808B131
:10309000FDF742FCB563002206214720AE63FEF730
:1030A000A7FD472063E700000010014044380240BC
:1030B0000000024000440040000C02400048004074
:1030C0000004024028600240540700200014014020
:1030D00000080240001802402864024070470000C7
:1030E0002DE9F843044690F83D001F4616460D466C
:1030F00020284CD1C5B1BEB194F83C00012846D07F
:10310000012084F83C004FF00008C4F840802120E2
:1031100084F83D00FEF7E2FAA6848146E684A068C2
:10312000B0F5805F03D004E00120BDE8F88320699A
:1031300028B12E465FF0000584F83C800EE00026A2
:10314000FAE78021204600F0C5FEA0B9AEB116F81E
:10315000010B21684860E08C401EE084E08C4B4607
:103160004FF0000200970028EBD14FF040012046BD
:1031700000F0B0FE30B10320D7E735F8020BC0F302
:103180000800E6E7202084F83D000020CDE702207B
:10319000CBE77047FEE700000148FEF72BBB0000BD
:1031A000FC0400200148FEF725BB0000FC040020C1
:1031B000F0B503688C88DD68C5F30B452C44250405
:1031C000882404EBC2141E5906F470461E5103688D
:1031D0000F68DE68C6F30B46761C3E442E431E5134
:1031E00004688B89E568C5F30A052B441D048C230C
:1031F00003EBC213E65806F47046E65004688F6885
:10320000E668C6F30A06761C3E442E43E650942335
:10321000046803EBC213E55825F00705E55005687F
:103220000C69EC5091F831300C7E1F0226069C246C
:10323000056804EBC21491F8323055F804C04FF021
:10324000000C45F804C091F8305046EA03433D4372
:103250001D4303681D519823046803EBC213E5580E
:1032600025F0FF05E55005684C69EC50A023046883
:1032700003EBC213E55840F20776B543E550D1E9B8
:1032800007452C430568EC50AC23046803EBC213DC
:10329000E55844F803C005684C6AEC500B698BB3E1
:1032A000012B32D0042B32D0022B30D0032B2ED066
:1032B000072B2CD00123B024056804EBC2142E592F
:1032C00006F0E0262E51D1E90065AD1B0E8D5D4361
:1032D0005E43ED1C45EA064305682B51B4230468A0
:1032E00003EBC213E5586FF30A05E5500468C96A99
:1032F000E1500068842101EBC211425842F0010202
:103300004250F0BDFFE70423D5E70323D3E70223B0
:10331000D1E70000074910B5054808600846FDF7E9
:10332000D0FC002803D0BDE81040FDF7F5BA10BD71
:1033300000300240140000200A4810B5084901601E
:103340004FF440314160022181600021C160FDF7EE
:103350006DFD002803D0BDE81040FDF7DDBA10BDBB
:1033600000B0024088040020114808B5016841F40B
:1033700000110160016801F400110091016841F43D
:10338000800101600068002200F4800000900521A7
:103390000C20FEF72DFC0C20FEF71CFC0022042163
:1033A0003920FEF725FCBDE808403920FEF712BCA5
:1033B0003038024000B587B01C216846FCF7C2FFD8
:1033C000164815490022C0E9001201218160082138
:1033D0001023C0E90313402343614FF4C073C0E9D5
:1033E00006320A0202624A0242628A0282620220B3
:1033F000CDE900010621029103910421CDE90410D9
:10340000069069460548FFF768F808B1FDF784FAA9
:1034100000F0A0F907B000BD400100A0C8040020E2
:1034200010B58EB01C220B496846FCF772FF0021D4
:1034300068460AF039FE084C06491C2220601C31FF
:1034400007A8FCF766FF002107A80AF02DFE6060C0
:103450000EB010BD80F800080C0000202DE9F04FE0
:1034600087B014216846FCF76DFF84480025016889
:1034700041F480710160016801F480710591016877
:1034800041F004010160016801F004010591016847
:1034900041F020010160016801F0200105910168FF
:1034A00041F080010160016801F08001059101682F
:1034B00041F001010160016801F00101059101681D
:1034C00041F040010160016801F04001059101688F
:1034D00041F010010160016801F0100105910168DF
:1034E00041F002010160016801F0020105910168EB
:1034F00041F0080101600068DFF8848100F00800F5
:103500004FF484740590012221464046FEF7E1F80D
:10351000DFF870914FF46047012239464846FEF7C4
:10352000D8F8DFF864A1002240215046FEF7D1F818
:10353000DFF858B101224FF4C3715846FEF7C9F8BD
:10354000012244215248FEF7C4F8002220214846B7
:10355000FEF7BFF8012239464E48FEF7BAF80122BD
:10356000D60231464C48FEF7B4F8002243F2080177
:103570004948FEF7AEF8009401246946404601949C
:10358000CDE90245FDF788FFCDE90074694648465C
:10359000CDE90245FDF780FF0096CDE9015469466B
:1035A0004046FDF779FF4020CDE900040226CDE931
:1035B000024669465046FDF76FFF0096CDE901547B
:1035C00069464846FDF768FFCDE90064CDE902464B
:1035D00069465846FDF760FF4FF4C270CDE900041C
:1035E00069465846CDE90245FDF756FF4420CDE92E
:1035F000000469462648CDE90245FDF74DFF082045
:1036000000902648CDE9010569462148FDF744FFB1
:10361000202003958DE8510069464846FDF73CFFA0
:103620004FF4C070CDE90005694602941848FDF7D3
:1036300033FFCDE9007469461648CDE90245FDF730
:103640002BFF43F60800CDE9000469461248CDE996
:103650000245FDF721FFA003CDE90005694602946C
:103660000F48FDF719FF002205210920FEF7C0FAD7
:103670000920FEF7AFFA07B0BDE8F08F30380240FE
:1036800000200240000802400014024000000240F6
:10369000001C024000040240000C02400000111017
:1036A0000018024030B58DB034216846FCF74AFE60
:1036B000274826490024C0E9001484602F21C460F3
:1036C000C0E9044102258721C0E906512221016297
:1036D00040F2A731416240F20221816240F2CF31D3
:1036E000C16240F20F21016380F8344080F8354018
:1036F00080F83640FEF7E4F808B1FDF70DF94FF415
:1037000048704FF4F071CDE90040CDE90241FF224D
:103710000495CDE905244FF48062079205220892B2
:103720004A06CDE90A018DF8304009928DF8314002
:103730008DF83240002269460548FEF731F800282E
:1037400001D0FDF7E9F80DB030BD00000068014080
:10375000FC040020F0B585B0012500241026CDE939
:103760000056CDE902542F0304943A46694617489F
:10377000FEF7E8FE0A20FDF739FD0220CDE900063C
:10378000CDE902543A4669461048FEF7DBFE0320B5
:10379000CDE900060820CDE902043A4669460B4807
:1037A000FEF7D0FE4FF40C700421CDE90016CDE9F0
:1037B000025004903A4669460448FEF7C3FE40F2C0
:1037C0006A510248FEF7ACFE05B0F0BDC804002007
:1037D000104810B50E4901604FF48271416000211C
:1037E00002228160C0E90312012242615202826119
:1037F0003822C0E90721416281620A21C162FEF7D5
:1038000039FF002803D0BDE81040FDF785B810BD92
:1038100000500140A40500200B4810B50949016083
:1038200000214FF6FF724160C0E90212016181611F
:10383000FFF7AFF8002803D0BDE81040FDF76CB8E3
:1038400010BD000000200040FC0500200AF026BF4B
:103850000AF06ABF0C4810B50A4901604FF4E13123
:103860004160002181600C22C160C0E904128161C5
:10387000C161FFF7DBFA002803D0BDE81040FDF777
:103880004BB810BD00100140440600200C4810B594
:103890000A4901604FF416514160002181600C22F9
:1038A000C160C0E904128161C161FFF7BFFA00285D
:1038B00003D0BDE81040FDF72FB810BD0044004014
:1038C000880600200C4810B50A4901604FF4E13128
:1038D0004160002181600C22C160C0E90412816155
:1038E000C161FFF7A3FA002803D0BDE81040FDF73F
:1038F00013B810BD00480040CC0600200C4810B59D
:103900000A4901604FF416514160002181600C2288
:10391000C160C0E904128161C161FFF787FA002824
:1039200003D0BDE81040FCF7F7BF10BD0014014004
:1039300010070020FEE7FEE7FEF7C6B9704700005B
:103940000148FEF719BE0000A405002001B582B0B1
:103950004FF47A700090012301AA02A90248FEF7F1
:1039600025FF9DF804000EBDA40500200B4910B5ED
:103970000A68136823F0400313600A6813684FF65F
:10398000C774234013600A68136803431360086810
:10399000016841F04001016010BD0000A405002055
:1039A00010B5806B0021C187C186FEF7E3FD10BD15
:1039B00038B504461248134B0068B0FBF3F04FF4DF
:1039C0007A73584300906068B0F5827F0DD10B4642
:1039D000009200228021204600F016F870B1606D40
:1039E00040F020006065032038BD009830B1401ED3
:1039F000009020688068C0430006F6D5002038BDDE
:103A00003400002000366E012DE9F8431E46914631
:103A100088460446089DFDF761FE401B351AFDF7F8
:103A20005DFE074625480068C0F3CB30684338E0A8
:103A3000701C37D0FDF752FEC01BA84203D215B14F
:103A4000009860B32CE02068416821F0E0014160FB
:103A50006068B0F5827F0BD1A068B0F5004F02D04E
:103A6000B0F5806F04D12068016821F04001016049
:103A7000A06AB0F5005F09D12068016821F4005107
:103A800001602068016841F400510160012084F860
:103A90005100002084F850000320BDE8F883002581
:103AA000401E00902068816838EA010004D000219F
:103AB0004945BDD10020F0E70121F9E7340000209D
:103AC000FFF7C6FE64200AF069FAFBE74FF47A7448
:103AD00003A009F089FF20460AF060FAF8E7000029
:103AE00068656C6C6F0D0A0010B5502080F311886A
:103AF000BFF34F8FBFF36F8F0BF0D0FB18B10449AA
:103B00004FF080500860002080F3118810BD000045
:103B100004ED00E070B59EB030216846FCF712FC61
:103B2000142118A8FCF70EFC30210CA8FCF70AFCA5
:103B300025480024016841F080510160006800F0D0
:103B400080501D902148016841F4404101600068A7
:103B5000022500F440401D90012003901020CDE983
:103B600006540826049000950896B420CDE909056E
:103B700004200B906846FEF7EBFA08B172B6FEE738
:103B8000FEF768F808B172B6FEE70F20CDE9180518
:103B90004FF4A050CDE91A404FF480501C900521FD
:103BA00018A8FEF7C9F908B172B6FEE732201594DD
:103BB00010900C9612950CA8FEF794F8002801D0EE
:103BC00072B6FEE71EB070BD403802400070004083
:103BD0000248016841F470010160704788ED00E01F
:103BE0000148FEF758BF000014080020F0B5026835
:103BF000254C264D264E274F274B4FF0804CA04298
:103C000009D0604507D0A84205D0B04203D0B842E1
:103C100001D0984204D122F0700E4A6842EA0E02A6
:103C2000A0421BD0604519D0A84217D0B04215D091
:103C3000B84213D0984211D0184DA8420ED0184D5A
:103C4000A8420BD0174DA84208D0174DA84205D066
:103C5000164DA84202D0164DA84203D122F4407559
:103C6000CA682A434D6922F080022A4302608A68AA
:103C7000C2620A688262A04201D0984201D10969F9
:103C8000016301214161F0BD0000014000040040DA
:103C900000080040000C00400004014000400140CA
:103CA000004401400048014000180040001C004052
:103CB00000200040074A10B514884FF6FF73528861
:103CC0009C4201D19A4203D0046001200A6010BDD9
:103CD000002010BD0000002010B5806B0021C185C0
:103CE000C184FEF799FF10BD0168CA6822F4907282
:103CF000CA6001684A6922F001024A61016B012928
:103D000004D10168CA6822F01002CA60202180F83C
:103D10003E1000210163704710B5044690F83E0044
:103D2000222801D0022010BDA1684FF48052914298
:103D300001D1206920B1A06A91421BD049B10AE0AB
:103D40002168A06A4968C1F308010180A06A801C4B
:103D500008E0216971B12168496801F07F010170B3
:103D6000A06A401CA062E08D401E0004000CE085AB
:103D700003D01CE021684968F1E72068C16821F0A0
:103D80002001C1602068C16821F48071C160206891
:103D9000416921F001014161202084F83E00206B3F
:103DA000012806D02046FFF799F900202063002063
:103DB00010BD2068C16821F01001C160A18D2046AE
:103DC000FEF729FFF1E7000070B5044600680169BD
:103DD000E26821F44051114301612169A068E26960
:103DE00008436169114308432168CA6849F20C63BA
:103DF0009A430243CA6020684169A26921F4407174
:103E00001143416131492068884202D030498842DB
:103E100002D1FEF75BF901E0FEF748F9E269002301
:103E2000192164253226B2F5004F626828D0A0FB24
:103E30000101930F9200FCF73BFA0146B0FBF5F04D
:103E40006FF01802504301EB800006EB0010B0FB4E
:103E5000F5F000F0F002B1FBF5F002EB0012B1FB5F
:103E6000F5F06FF01803584301EB800006EB0010EB
:103E7000B0FBF5F000F00F0021681044886070BDC1
:103E8000A0FB010192185B41FCF712FA0146B0FB5E
:103E9000F5F00201B1FBF5F06FF01803584301EBA8
:103EA000800006EBC000B0FBF5F000F0F80002EB7C
:103EB0004002B1FBF5F0584301EB800006EBC00077
:103EC000B0FBF5F000F00700D6E70000001001405D
:103ED000001401402DE9F041984617460E4604466D
:103EE000069D1DE0681C1BD02DB1FDF7F7FBA0EB74
:103EF0000800A84214D92068C16821F4D071C160BB
:103F00002068416921F001014161202084F83D00D1
:103F100084F83E00002084F83C000320BDE8F081D6
:103F20002068006836EA000004D00020B842D9D0EA
:103F30000020F3E70120F9E70148FEF76FBE00001B
:103F4000440600200148FEF769BE000088060020F4
:103F50000148FEF763BE0000CC0600200148FEF7D2
:103F60005DBE000010070020FEE70000224810B5EB
:103F7000016886B041F02001016000681F4C00F02C
:103F80002000059040200090012001900290022026
:103F9000039069462046FDF77FFA01224021204622
:103FA000FDF797FBFFF714FC15480068016841F026
:103FB00040010160FF20FFF7C9FC0020FFF7D6FC9D
:103FC00000F05AF80F490880A0F56F41183911D157
:103FD000032000F077F8C0070CD1002240212046D2
:103FE000FDF777FBB720FFF7B1FC01224021204607
:103FF000FDF76FFB06B010BD3038024000140240E0
:10400000A4050020240000202DE9F041184F15469A
:104010000C460646002240213846FDF75AFB032095
:10402000FFF794FC13480088A0F56F41183902D1BE
:10403000200EFFF78BFCC4F30740FFF787FCC4F3A7
:104040000720FFF783FCE0B2FFF780FC002405E0C7
:10405000FF20FFF77BFC3055641CA4B2AC42F7D3C1
:104060003846BDE8F04101224021FDF732BB000097
:10407000001402402400002070B5114D0024224697
:1040800040212846FDF725FB9020FFF75FFC00202C
:10409000FFF75CFC0020FFF759FC0020FFF756FCFF
:1040A000FF20FFF753FC44EA0024FF20FFF74EFCFB
:1040B0000443012240212846FDF70BFB204670BD3A
:1040C0000014024070B5012803D0022803D0032851
:1040D00003D0052402E0352400E01524094D002218
:1040E00040212846FDF7F5FA2046FFF72FFCFF2078
:1040F000FFF72CFC0446012240212846FDF7E9FA8F
:10410000204670BD00140240002809DB00F01F02A9
:10411000012191404009800000F1E020C0F8001129
:10412000704700280DDB00F01F020121914040097B
:10413000800000F1E020C0F88011BFF34F8FBFF383
:104140006F8F70470907090E002804DB00F1E0209B
:1041500080F80014704700F00F0000F1E02080F8B4
:10416000141D7047024800684068016849690847A3
:104170000802002000B515488BB00078C00721D197
:10418000124809F068FCE8B100203F21CDE9071092
:1041900009900F490F4A0A9003900490CDE9052138
:1041A0000422CDE90002012102910A460A230A49AC
:1041B0000A4802F06FFD0A4A0A49FCF7EDF8034885
:1041C000AFF300800BB0054800BD0000A000002048
:1041D000D80B0108E40B01081C0B01086C450020FA
:1041E00000000008D96C000800B515488BB00078B5
:1041F000C00721D1124809F02EFCE8B100203F2170
:10420000CDE9071009900F490F4A0A9003900490D6
:10421000CDE905210422CDE90002012102911423F8
:104220000B220A490A4802F035FD0A4A0A49FCF7FE
:10423000B3F80348AFF300800BB0054800BD0000A1
:10424000A4000020DC0B0108E80B01082C0B01087E
:104250009445002000000008D96C000800B51548FE
:104260008BB00078C00721D1124809F0F4FBE8B107
:1042700000203F21CDE9071009900F490F4A0A900D
:1042800003900490CDE905210422CDE9000201212B
:1042900002910A4628230A490A4802F0FBFC0A4A0E
:1042A0000A49FCF779F80348AFF300800BB00548E2
:1042B00000BD0000A8000020E00B0108EC0B010885
:1042C000C80B0108BC45002000000008D96C00089C
:1042D0000E4808B5016841F400010160006800F46F
:1042E0000000009009482038016841F40001016095
:1042F000016821F40001016006490548086106498A
:104300004FF08060C1F8000108BD00003038024065
:10431000654100088804002008E000E040F26F30AA
:10432000704700002DE9F0410C460746497F00F038
:104330001EF90646A17F384600F019F90546A17F0F
:10434000384600F028F9618BA28A8A1A53490A6418
:10435000628BA38AD21A8A61228BA38AD21A0A613B
:10436000486360694FEA304048642069C863606808
:10437000C860D4F800C04A4A10274FF610706FF09A
:10438000FF03BCF1400F69D006DCBCF1040F2FD055
:10439000BCF1200F06D161E0BCF5807F0ED0BCF5EA
:1043A000007F0ED0227F46EA026242F40032CA61E8
:1043B000627F0B2A59D040F201206DE0207F394BFB
:1043C00002E0384B207F5B1E03EB0060C861A089D0
:1043D00000F4784300F4FC661B0243EA461300F045
:1043E0001F0043EAC00008624D622069486132E064
:1043F00094F81CC046EA0C6646F40036CE614D6265
:1044000025694D61657F0B2D25D1A468251DCD62E1
:10441000257815F0FF0503D0012D09D0AFF30080FA
:10442000CD698543608803EB00200543CD6108E03A
:10443000CD698543608803EB0020054345F01000FB
:10444000C861C86940F02000C86100E000BFC869C9
:104450008006FBD48F600A60BDE8F081207F46EAC9
:10446000006040F40030C861BEE7A268141DCC6251
:10447000CC698443508803EB0020044344F01000CF
:10448000C861C86940F02000C86100E000BFC86989
:104490008006FBD48F6004480860DDE700B002406E
:1044A000010202000A0002000102010010B50C46E0
:1044B000897F00F070F82849486362694FEA324208
:1044C0004A642269CA63628BA38AD21A0A64226888
:1044D000082A17D0C86100200861A07FC0B3A08956
:1044E000237F00F47842120242EA036200F4FC6384
:1044F00042EA431200F01F0042EAC00088631748F6
:10450000086010BD628BA38AD21A8A61628BA38A6B
:10451000D21A0A614862207F114A02EB0060C8612A
:10452000A089237F00F47842120242EA036200F479
:10453000FC6342EA431200F01F0042EAC00020F090
:104540007F400862206948612069C8600548D7E754
:10455000FFE7E068D2E7000000B00240010203007C
:1045600009000100010202000168896A084710B5CC
:1045700000200C290DD2DFE801F00806070C0C0C16
:104580000C0A0A0A0A0A012010BD022010BD0520EB
:1045900010BDAFF3008010B500200B290BD2DFE86F
:1045A00001F00806070A0A0A0A06060606000120A4
:1045B00010BD022010BDAFF30080000010B500F167
:1045C0000C010B46416000210172417207490160F4
:1045D00000F120016022184602F07CFD60232022B9
:1045E0000349143009F025FA203810BDB0F900084D
:1045F000798E00080549064A01604FF08061C2F8D3
:104600008011BFF34F8FBFF36F8F7047B0F9000871
:1046100008E000E0D0F86C3104A25B1CC0F86C31FB
:10462000052100F5A87005F0F8B900002564000028
:10463000D0F86C3104A25B1EC0F86C31052100F586
:10464000A87005F0EAB900002564000000F0AAB8DF
:104650007047000010B500F0B5F80149016010BDC9
:1046600000FA00084FF48871024A0A5002490160BA
:1046700070470000440401089800010800F01CBACB
:1046800000F032BA00F039BA00F039BA00F040BA9E
:1046900000F048BA00F052BA2DE9F0410E4602F19E
:1046A000E0411C461546B1F1807F1DD2A2B23046D2
:1046B000FFF7AAFC200C14D016FA84F615FA84F73A
:1046C00000254FF6FF7807F1E04707E0C5EB05400E
:1046D000C11930444246FFF797FC6D1CB5EB144FEF
:1046E000F4D30120BDE8F0812A463146BDE8F0410F
:1046F00000F042BA7047000010B5014600F1140303
:1047000000F12C0400F5D27200F5DE70C1E903203F
:10471000114881E81900184602F082FC0F4940F860
:10472000181B02F07DFC0E49016000F5BC7002F020
:1047300077FC0C4940F8141B00F085FAA0F5DC70FA
:10474000024600F5DC71081D00F0A2F9A0F5DE7448
:1047500000F016FA204610BD0CFB0008E805010821
:10476000B40501081C06010810B50949016000F5EF
:10477000DE7000F061FA183802F05AFCA0F5BC7047
:1047800002F056FC183802F053FC143810BD00003B
:104790000CFB000800487047D8F800080520704757
:1047A00070477047704700F19802914202D101684A
:1047B000C96A05E000F1D402914202D10168096B97
:1047C000084770472DE9F04F93B004F08FFE0027A3
:1047D0008E49C763016000F1400426212046FBF7A3
:1047E000B1FD204604F0DCFE014689480860FF2444
:1047F00081F8264001F12C058F624FF6FF7902AE59
:10480000ADF8089026212846FBF79CFD284604F0C9
:10481000C7FE05467F482860BDF80800E88485F893
:1048200028403146284603F04CFF05F12C0002F0E9
:10483000ABFA3C3002F0A8FA00F13C0526212846EC
:10484000FBF780FD284604F0ABFE0546DFF8C88183
:1048500040F8288F7249A0F804902F6325F8347F20
:104860006E48AC70EF702F716F7145F8340CAF600B
:1048700005F11806A5F5A274D1E90001694AC6E957
:104880000024A5F58275C6E90201AB463A464FF40D
:1048900048794FF4F07A1146584605F052FB2868E3
:1048A0004946426B2846904728685146826B284605
:1048B000904700221146104603F0FCFEA86204F166
:1048C0006C00002211460546089005F03AFB02A94B
:1048D000ADF80870284603F0F4FE04F19800824613
:1048E00083223C21D14605F02CFB0421ADF83C107D
:1048F000ADF838100FA80221ADF834100125009052
:104900000EAB0DAA02A9ADF80850484602F01BFAFA
:104910003E22A9F838201121A9F83A1004F1D40058
:10492000F0223C218146C4F8C06005F00AFB032157
:10493000ADF80810ADF8341002A80221ADF83C50D3
:10494000ADF8381000900DAB0EAA0FA9484602F042
:10495000FAF93E22A9F838201121A9F83A10BF220D
:104960004FF4AF7104F58870C4F8FC6005F0E9FA03
:10497000002204F588751146104603F09BFE28635B
:104980004FF4A270012107532748CDF82C80ADF8D1
:104990003010006818B125480088012801D8AFF30D
:1049A00000802348006808F063FA034604F5A87005
:1049B00020A20521054605F030F804F58870C4F8FA
:1049C0004C5107F043FC0BA9CDF82C80ADF83070AA
:1049D00004F5887007F0DBFB5946204604F08AFB9B
:1049E0002046089904F086FB5146204604F082FBDD
:1049F0004946204604F07EFB04F58871204604F009
:104A000079FB13B02046BDE8F08F000020FB0008C2
:104A1000A8FE0008300001085006010830FE00081A
:104A20004CF9000830010108100200201C0200208F
:104A30001402002025730000034901604FF48871BF
:104A4000024A0A5003F030BE20FB0008440401086B
:104A5000704770470023034A836002601832426047
:104A6000C16070475CFB000870470220704700007F
:104A700000487047E445002010B50446D0F85401C2
:104A800000F0E0F82046BDE8104000F0B7BD00009F
:104A900010B500F095F80149016010BD84FB0008D5
:104AA00010B508461146FFF705F9002800D001208F
:104AB00010BD70477047000070B5044602F0C6FB99
:104AC00000F01AF901462068026E204690472068DF
:104AD000044A0023D0F884502046AC46BDE870401C
:104AE000D104604700B80BC010B55A20FFF70CFB8B
:104AF000BDE810405820FFF707BB02F0A1BC10B57D
:104B00005A20FFF70EFBBDE810405820FFF709BB05
:104B1000034801600249012088390860704700009D
:104B2000AC68014010B509215A20FFF70BFB0921A1
:104B3000BDE810405820FFF705BB00000C48006896
:104B40000C49C0F30A00401E094A80B2121D0880B9
:104B50001268C2F30A02521E4A80054934310860C5
:104B600003482830016841F00101016070470000EE
:104B70000C680140C800002002F0A6BF704700008A
:104B8000054A00F5A071D2E90032CA60C1E901030B
:104B9000C0F83C11704700003CF9000808B5D0F897
:104BA0005411009100F59C71D0F85021024B03483C
:104BB0000AF012FD08BD0000BC010020B801002071
:104BC00070B515460E4601F0C3F90446144800219D
:104BD0001448C4F83811C4F83C110460124820602D
:104BE00004F5A070114AC0E90021114AD2E902126D
:104BF000C0E90212C4E954560E4D286801688A685B
:104C000000219047002003F075FD296891F8760097
:104C100008B1C86C00B9886806F0FEFB204670BD7C
:104C200094FD0008C0010020F4FB000848010108C1
:104C30003CF90008080200200149016070470000AB
:104C4000F4FB0008704700210160704710B5012196
:104C5000084809F0AFF9084C206038B10548012137
:104C6000083009F0A7F96060002801D1AFF3008097
:104C700010BD000058F90008CC0000200148406831
:104C800009F0B8B9CC00002010B5064C00216068CE
:104C900009F0D8F96068BDE810404FF0FF3109F025
:104CA000D1B90000CC0000200148006809F0A2B989
:104CB000CC00002002484FF0FF31006809F0C2B973
:104CC000CC00002002480021006809F0BBB90000B8
:104CD000CC0000200148006809F08CB9CC0000200D
:104CE00010B500F009F80168096BBDE810400847ED
:104CF00041607047704770470148C06870470000C6
:104D0000B401002003484068002808BF70470268CB
:104D1000926A1047B40100202DE9F74F98B004467D
:104D2000BDF968000028C7BFBDF96A0000281BB0A4
:104D3000BDE8F08FB4F8E800451EB5F1FF3F36DD61
:104D400004F1A801A8B201EBC000BDF96410B0F9EC
:104D500000208A4227DBB0F90230BDF966C0634506
:104D600021DBB0F904603244BDF9686031449142FE
:104D700019DBB0F90610BDF96A20194462448A4271
:104D800011DBB4F8E820ABB204F1A8019A4240F27A
:104D9000F483521E92B2A1F840209A4284BF01EBE4
:104DA000C20108F031FE6D1EB5F1FF3FC8DCB4F85A
:104DB000E8004FF0000E421E7546B2F1FF3F40F38F
:104DC000778200BF04F1A80190B201EBC000BDF9E9
:104DD0006410BDF968A0B0F900C001EB0A08E04515
:104DE0005CDDB0F904300CEB03078F4256DDBDF9F2
:104DF0006630BDF96AB0B0F9026003EB0B09B1454A
:104E00004CDDB0F906003044984247DD8C45D8BFF0
:104E1000B8451DDCB3420FDBC01A00B2ABEB00019A
:104E200009B2ADF86A100029C7BF1844ADF8660092
:104E30001BB0BDE8F08F20E0484509DBF01A00B256
:104E4000ADF86A000028DCBF1BB0BDE8F08F14E0AD
:104E5000B342A8BF48451FDB614510DB781A00B29A
:104E6000AAEB00031BB2ADF86830002BC7BF0844A3
:104E7000ADF864001BB0BDE8F08F01250EE047459A
:104E80000ADBACEB010000B2ADF868000028DCBF23
:104E90001BB0BDE8F08FF0E74FF0010E521EB2F1EB
:104EA000FF3F8FDC002D82D1BEF1000F00F00082A9
:104EB000B4F8E8000023401EB0F1FF3F40F3F88152
:104EC00004F1A80182B201EBC201BDF96460BDF931
:104ED000682006EB020CB1F9002094453EDDB1F9E3
:104EE000045002EB0509B14538DDBDF96670BDF926
:104EF0006A5007EB0508B1F90250A8452EDDB1F95B
:104F000006A0AA44BA4529DD9642D8BFE14511DC86
:104F1000BD420BDBA8EB050205EB020CA1F802C0B9
:104F2000B1F806C0ACEB0202CA8017E0D045A8BFBA
:104F30007A1BF9DABD42A8BFD0450EDB964208DCE9
:104F4000ACEB020C62440A808A88A2EB0C028A80D5
:104F500004E0E145D8BFB21AF9DD0123401EB0F1EB
:104F6000FF3FADDC002B00F0A381B4F8E800461E43
:104F7000002EA4BF0DF1500A0DF1480BC0F298812C
:104F800004F1A800B1B200EBC100BDF96420B0F992
:104F900000C00546944527DBB5F90230BDF966101F
:104FA0008B4221DBB5F904706744BDF968C06244E7
:104FB000BA4219DBB5F906201A44BDF96A30194422
:104FC000914211DBB4F8E820B1B204F1A8038A429F
:104FD00040F2D382521E92B2A3F840208A4284BF8C
:104FE00003EBC20108F010FDBDF964C0BDF9680013
:104FF0000CEB0007B5F90000874240F35581B5F985
:10500000041000EB0108E04540F34E81BDF9663025
:10501000BDF96A10B5F902201944914240F3448168
:10502000B5F906909144994540F33E8184457CDD75
:10503000934234DDBDF866106E882F88891B0EB24E
:10504000BDF86410C91BBDF8687009B2BC44AF88D4
:105050000FFA8CFC384400B2ACEB0000BDF86AC01B
:1050600070436344B5F806C01BB2624412B29A1A88
:105070004A43824209DCEE802888ADF86400BDF81E
:1050800068000844ADF8680054E6A980BDF86A00DD
:105090003044ADF86A006888ADF866004AE64745D6
:1050A0002DDDBDF864102E88EF88891B0EB269884B
:1050B000D21ABDF868303944BDF86670BDF86A8010
:1050C0006344B5F804C047443FB26044C91B1BB2F7
:1050D00000B209B2181A72434843824208DC6F805A
:1050E000E9802888ADF86400BDF86800304446E0E7
:1050F000AE80BDF86A000844ADF86A001AE6ACEB71
:1051000000000FFA80F9A8EB07000FFA80F8B4F856
:10511000E80007281FD2294606A808F075FC2F8052
:10512000A5F80480ADF81C9000E02BE0DDE9061244
:10513000CDE91412B4F8E81004F1A800082980F0B1
:105140001C8200EBC102491CA0F8401051461046D9
:1051500008F05AFCA8E0C1450CDCBDF868002988BD
:105160004844ADF86800ADF8641008442880A5F8FC
:105170000480DFE5A5F80490BDF868004044ADF870
:105180006800D7E59A4232DD2988AE88BDF868709C
:105190003144BDF86460BDF86A803E44891B0EB29C
:1051A0006988EF88D21A3944BDF86670A0EB0C000C
:1051B0004744C91B09B27243484382420ADCE98072
:1051C000BDF86600BDF86A1008446880BDF8680044
:1051D0003044D4E7AE80BDF86400BDF868201044C8
:1051E0002880BDF86A000844ADF86A00A2E5B84519
:1051F0002EDD2988AE88BDF868703144BDF8646042
:10520000A0EB0C003E44BDF86AC037B26344B5F869
:1052100006C0BDF86660B5F802806244C91BA6EB03
:1052200008061BB212B209B236B29A1A70434A4348
:10523000824204DCEE80BDF8680008449FE72F80BE
:10524000A9806888ADF86600BDF86A00304459E06E
:10525000981A07B2A9EB01000FFA80F8B4F8E80039
:1052600007283CD2294604A808F0CEFBA5F8068002
:10527000BDF86600BDF86A1008446880ADF8167085
:10528000DDE90412CDE91212B4F8E81004F1A80027
:10529000082980F0728100EBC102491CA0F840107F
:1052A0005946104608F0B0FB761E7FF569AE00BF88
:1052B000B4F8E810082928D2DDE91903CDE9020382
:1052C000B4F8E800491C04F1A802A4F8E81002EBC5
:1052D000C00002A908F098FB1BB0BDE8F08F47455D
:1052E0000CDCBDF86A0069883844ADF86A00ADF896
:1052F000661008446880A5F806801BE5EF80BDF8BD
:105300006A004044ADF86A0014E500200A90401E8F
:10531000169040080290481E03907CD4039904F133
:10532000A80089B200EBC107B888F98810FB01FB1F
:105330000398461EB6F1FF3F7DDB002EB8BF19ADC6
:1053400004DB04F1A800B1B200EBC105B5F904809B
:10535000B5F9069018FB09FA3946684608F054FB7F
:10536000B8F1000FC8BFB9F1000F15DDBDF9042079
:10537000002A04DDBDF90600119000281FDC2888F2
:10538000ADF800006888ADF80200A888ADF8040008
:10539000B5F80600ADF80600BDF80400BDF806102B
:1053A00010FB01F00BEB0A01411AC21700EB52701F
:1053B000B1EBE00F31DA039816960A9040E0BDF9A0
:1053C0000010B5F900C08C45D4BF6046084686463B
:1053D000BDF90200B5F90250A842B4BF03462B46FE
:1053E00011440CEB080209B212B29142D8BF114627
:1053F000119A104405EB090200B212B29042D8BFD4
:105400001046ADF800E0A1EB0E01ADF80230ADF8AA
:105410000410C01ABEE716E00DE00298884206DDCF
:10542000039816960A90002918BF029108D0761E9C
:10543000B6F1FF3F81DA0398401E03907FF56EAF0F
:105440001698002860DA0A9804F1A80180B201EBEE
:10545000C000B0F904100029C4BFB0F90630002B19
:1054600014DDBDF96820002AC4BFBDF96A70002FA1
:1054700021DC0188ADF864104188ADF866108188A0
:10548000ADF86810B0F80610ADF86A100A9AB4F8D2
:10549000E83092B204F1A80193426ED95B1E9BB230
:1054A000A1F84030934288BF01EBC3017FF642ACC4
:1054B00008F0AAFA3EE4BDF96460B0F90080464500
:1054C000B4BF35464546BDF966A0B0F902C0E24515
:1054D000B4BFD146E1463244414412B209B28A42D5
:1054E000D8BF0A460AEB0701634409B21BB29942CE
:1054F000D8BF1946ADF86450521BADF86690ADF8B0
:105500006820A1EB0901BFE70A9804F1A80180B265
:1055100001EBC0050846169989B200EBC100B0F94D
:1055200004100029C4BFB0F90690B9F1000F11DDD5
:10553000B5F904A0BAF1000FC4BFB5F906B0BBF1CC
:10554000000F1CDC02882A8042886A808288AA8038
:10555000C288EA8019A908F057FA0A9880B204EBC9
:10556000C001D1E92A01CDE919010A98B4F8E8206F
:1055700080B204F1A80182422AD8AFF30080B5F9C5
:105580000060B0F900C06645B4BF32466246B5F966
:105590000280B0F90270B845B4BF43463B4656445A
:1055A000614436B20FFA81FC6645D8BF664608EB07
:1055B0000B0107EB090C09B20FFA8CFC6145D8BF4F
:1055C00061462A80B21A6B80AA80C91AE980C1E7B5
:1055D000521E92B2A1F84020824284BF01EBC20168
:1055E00028467FF6A7AB63E703484068002808BF5A
:1055F00070470268D2691047B40100202DE9F041DC
:105600004E4E0446B06808B1017A19B194F83511CC
:10561000C9B907E0002184F8351101688968BDE83F
:10562000F041084700281CBF007A00280BD07068A2
:1056300010B1016809698847B0680168C96888477E
:10564000012084F83501B4F88400002500280FDD1E
:10565000601990F8880030B1201DA9B250F82100DF
:105660000168C96C8847B4F884006D1CA842EFDC5F
:105670000025B4F884102846002919DD211891F876
:10568000882082B1A8420DD0231DAAB203EB820C60
:1056900082B253F82220CCF80020621991F88810C9
:1056A00082F888106D1CB4F88410401C8142E5DC3F
:1056B000B4F88420954236DA501E211D80B2824211
:1056C00001D8AFF30080121A002A26DD002312F061
:1056D000010205D001EB80035B6841F82030012313
:1056E000B1F880C0ACEB000C944516DD00EB030C68
:1056F00001EB8C075B1C7F6841F82C7000EB030CFE
:1057000001EB8C075B1C7F6841F82C70B1F880C0FE
:10571000921CACEB000C9445E8DCB1F88000401E14
:10572000A1F88000C4E77068002808BFBDE8F081D8
:105730000168496ABDE8F04108470000B401002053
:1057400003484068002808BF704702689269104704
:10575000B401002003484068002808BF7047026871
:10576000126A1047B40100202DE9F04FA9B00026BD
:10577000044680F8341100291EBFA0F8E86029B063
:10578000BDE8F08FB4F930010028C4BFB4F932018C
:10579000002811DDD4E94B122046FFF7BDFAADF821
:1057A0000060ADF804606946ADF80260ADF80660CF
:1057B00004F5967008F028F9B4F8E800002818BF3E
:1057C0000120DFF8FC83D8F8101011B308F114059C
:1057D000B5F904100029C4BFB5F90610002918DD79
:1057E000F84801F0CDFC294602A808F00DF9DDE9E2
:1057F00002122046FFF790FAADF80060ADF80460A1
:105800006946ADF80260ADF80660284608F0FCF87D
:1058100004E0002804BF29B0BDE8F08F08A80823E1
:105820001A46E94908F005F9A0F84060B8F80050B8
:10583000B4F8E800A84288BF1EAF1BD904F1A80045
:1058400000EBC5010DF12009384608F0DDF8BDF880
:105850006000082874D209EBC002401CADF860005B
:105860003946104608F0D0F8681C85B2B4F8E80054
:105870008542E3D3D2480588B4F82A01A84288BFFC
:1058800002AF11D904F1EA0000EBC501384608F077
:10589000BBF8DDE902122046FFF73EFA681C85B22C
:1058A000B4F82A01A842EDD8C848006890F848002A
:1058B000012847D0DFF81483022800F02181C04876
:1058C0000588B4F8E800A84219D900BF04EBC50167
:1058D000D1E92A01CDE90201BDF90C000028C4BFBD
:1058E000BDF90E00002804DD206802A9426B2046A5
:1058F0009047681C85B2B4F8E800A842E6D8B448DE
:105900000078002804BF29B0BDE8F08FA4F82A6110
:10591000AB480788BDF86000B84287BF0DF120088A
:1059200020AD29B0BDE8F08F08EBC70104F1EA060D
:10593000284608F069F8B6F840000828C0F0408210
:10594000AFF300809E4BB4F8E8200027188882420D
:1059500011DD00BF04F1A8011FFA80FC01EBCC01AE
:10596000B1F902C0B1F906106144B942C8BF0F468F
:10597000401C8242EEDC974800880F288CBFC0088C
:1059800001204FF0000C0790ADF868C0ADF86CC076
:10599000ADF86AC0ADF86EC0002FC8BF0DF1100899
:1059A0007EDD8A4D28680168D1F894108847BDF9DA
:1059B0006A10BDF96E201144079A0A448242C8BF9A
:1059C000874203DD8142C8BF00296ADD0BB28342F2
:1059D00001DC874200DA38467F4A401A4FF0000C5B
:1059E0001288ADF87420ADF870C0ADF876001CA92F
:1059F000ADF872301AA808F007F871480588B4F8B5
:105A0000E800A8426ED900BF04F1A80000EBC50170
:105A1000404607F0F9FFBDF96810BDF96C0001EBD5
:105A2000000CBDF9100084454DDDBDF9142000EBDC
:105A30000209894547DDBDF96A30BDF96E2003EBE7
:105A4000020ABDF9122092453DDDBDF916B093441E
:105A50009B4538DD8842D8BF08469A42D8BF1A46CF
:105A60000FFA89F10FFA8CF39942A8BF1946091A67
:105A7000ADF814100FFA8BF30FFA8AF18B42B8BF0E
:105A80001946891AADF81000ADF81610ADF81220BD
:105A9000DDE90401CDE92201BDF98C00002801E017
:105AA00028E019E0C4BFBDF98E00002804DD20689D
:105AB00022A9426B20469047681C85B2B4F8E800E2
:105AC000A842A1D80EE0ADF81060ADF81460ADF8B2
:105AD0001260ADF81660DBE728680168D1F8902005
