:020000040800F2
:10000000981C002045030008ED5B0008CB52000857
:10001000E95B0008A51B0008296600080000000035
:100020000000000000000000000000008502000841
:10003000FB1F000800000000E1020008CD5D000881
:100040005F030008F15B00085F0300085F0300081E
:10005000E5200008F95B00085F0300085F03000863
:100060005F030008FD1F00085F0300085F0300082E
:10007000C11E00085F0300085F0300085F0300085B
:100080005F0300085F0300085F0300085F030008C8
:100090005F0300085F0300085F0300085F030008B8
:1000A0005F030008F95E00085F0300085F030008B3
:1000B0005F0300085F0300085F0300085F03000898
:1000C0005F0300085F0300085F0300085F03000888
:1000D0005F0300088565000895650008A5650008B0
:1000E0005F0300085F0300085F0300085F03000868
:1000F0005F0300085F0300085F0300085F03000858
:10010000A12100085F0300085F0300085F030008E7
:100110005F0300085F0300085F0300085F03000837
:100120005F030008E11E00085F0300085F0300088A
:100130005F0300085F0300085F0300085F03000817
:100140005F0300085F0300085F0300085F03000807
:100150005F0300085F0300085F030008B96500083B
:100160005F0300085F0300085F0300085F030008E7
:100170005F0300085F0300085F0300080000000041
:100180005F030008212300085F0300085F030008E5
:100190005F030008FD5B00085F0300085F030008C1
:1001A000E1520008D1520008D11E000800F002F808
:1001B00000F058F80AA090E8000C82448344AAF1A9
:1001C0000107DA4501D100F04DF8AFF2090EBAE8A7
:1001D0000F0013F0010F18BFFB1A43F0010318477B
:1001E0004CCF00006CCF0000103A24BF78C878C113
:1001F000FAD8520724BF30C830C144BF04680C602D
:10020000704700000023002400250026103A28BF74
:1002100078C1FBD8520728BF30C148BF0B60704778
:10022000662909F09D80642900F0AA81782900F0F0
:10023000E381002070471FB509F08DF89DE80300A9
:1002400000F01AFC00F01EFF04000020002108F05E
:100250000DFEE06000F0DCFB1FBD10B5002000F0DB
:10026000D3FE10BD01F066F81146FFF7E4FF07F07A
:10027000BFFF01F084F803B4FFF7EFFF03BC07F002
:10028000CEFE00002C4B19680868B0E8F04F80F3F0
:100290000988BFF36F8F4FF0000080F3118870471B
:1002A0000000000008480068006880F308884FF0EC
:1002B000000080F3148862B661B6BFF34F8FBFF3BE
:1002C0006F8F00DF00BF00BF08ED00E0DFF80C001B
:1002D000016841F470010160704700BF88ED00E0E3
:1002E000EFF30980BFF36F8F134B1A681EF0100FE6
:1002F00008BF20ED108A20E9F04F106009B44FF0DC
:10030000500080F31188BFF34F8FBFF36F8F08F059
:10031000F7F94FF0000080F3118809BC19680868EC
:10032000B0E8F04F1EF0100F08BFB0EC108A80F359
:100330000988BFF36F8F704724000020EFF305801A
:10034000704700000948804709480047FEE7FEE77C
:10035000FEE7FEE7FEE7FEE7FEE7FEE7FEE7FEE775
:1003600004480549054A064B70470000E55E000851
:10037000AD01000898160020981C00209818002055
:1003800098180020704770B5064600F055FB0568C8
:1003900006F10B0020F00704B4429CBF002070BDA2
:1003A0002B466A68BAB11068A04210D304F1080164
:1003B00088423CBF5068586007D3516810194160AB
:1003C0001168091B016058601460101D70BD134650
:1003D0005268002AE7D12146284600F039FB002860
:1003E000DED170BD70B50446051F00F025FB006826
:1003F000002C14BF446870BD002C18BFAC423CBF39
:1004000020466468F8D301680A18AA4218BF4560FC
:1004100003D12A6805461144016028684119A142A8
:100420001CBF6C6070BD6168696021680844286009
:1004300070BD53EA020C00F069802DE9F04B4FF0DB
:100440000006002B1FBFB3FA83F503FA05F424FA64
:1004500005F65E4012BF1643B2FA82F502FA05F4C1
:10046000C5F120051EBF22FA05FC44EA0C04203524
:1004700056EA044C4FEA144418BF641C4FF00008BD
:100480004FF00009904271EB030C39D3002919BFDA
:10049000B1FA81F701FA07F6B0FA80F700FA07F629
:1004A000C7F120071EBF20FA07FC46EA0C062037DA
:1004B000B6FBF4FCA7EB0507103F07F01F0BCBF1D1
:1004C00020060CFA0BFB2CFA06F644BFB3460026B6
:1004D000202FA4BF5E464FF0000B5BEA060C08BF5E
:1004E0004FF0010B19EB0B09ABFB027C48EB060844
:1004F000C01B06FB02CC0BFB03CC71EB0C01C1E76C
:100500000B46024641464846BDE8F08B13B54FF016
:1005100000004FF00001AFF30080BDE81C407047C1
:1005200010B54C1084EA530404D54042C1F10001D7
:1005300038BF491E1B4204D55242C3F1000338BFE5
:100540005B1EFFF776FF14F0804F04D04042C1F1EC
:10055000000138BF491E14F0004F04D05242C3F1CD
:10056000000338BF5B1E10BD0FB4044910B503AAC9
:10057000029800F037FD10BC5DF814FB000000206D
:100580002DE9F0410646002410687529314616A56C
:1005900010D0AFF30080002802DA404213A507E034
:1005A00031688A0701D512A502E0490704D511A5D3
:1005B000012401E0AFF3008000210A2206F12407A4
:1005C00009E0B0FBF2FCB0FBF2F302FB1C003030A0
:1005D00078541846491C0028F3D123462A46304651
:1005E000BDE8F04100F07EBA000000002D000000E0
:1005F0002B0000002000000070B504460D46214687
:100600001068AFF300802188090502D50F4A7A44AB
:1006100002E00E4A7A440E32002104F1240305E080
:1006200000F00F060009965D5E54491C0028F7D1C2
:1006300020780023000704D5702D02D009B10223D1
:1006400011322046BDE8704000F04CBA6B8E0000BD
:100650002DE9F05F894604464FF0000ADFF824B127
:10066000FB44C0F820A02046E168884700287DD0E0
:10067000252806D0D4E901219047206A401C206239
:10068000F1E700255F462046E168884720280646B6
:1006900007DB312E05D2B81910F8200C08B105433C
:1006A000F1E7A80701D525F00405C4F81CA0002730
:1006B000C4F818A02A2E09D0304607F0A9FC38B398
:1006C00004EB8708303EC8F8186019E059F8041B9D
:1006D000204604EB87029161E1688847012F0646B6
:1006E00018D1E069002820DA25F020051DE0D8F8AF
:1006F000180000EB800006EB40003038C8F8180006
:100700002046E1688847064607F082FC0028EED1C3
:10071000012F0AD02E2E08D12046E16888477F1C81
:100720000646022F45F02005C4DBA069002803DA45
:10073000404245F00105A061E80701D025F0100511
:10074000A6B1A6F14100192802D8203645F400656B
:100750004A463146204625604D46FFF761FD60B1AF
:10076000012807D0ED1D25F0070000E007E000F1AB
:10077000080978E705F1040975E730467AE7206A49
:10078000BDE8F09F418E000010B5002000F05DFC38
:10079000FFF763FDBDE81040012007F040BC2DE9E4
:1007A000F041074615460E461020FFF7ECFD040009
:1007B0000AD06760C4E9026500F042F9016821606F
:1007C00004600020BDE8F0810120FBE70EB505467E
:1007D00014460E4613A000F046FC284600F043FCE9
:1007E00016A000F040FC304600F03DFC15A000F0E3
:1007F0003AFC00218DF80B100A210DF10A008DF84A
:100800000A1008E094FBF1F201FB124294FBF1F4B0
:10081000303200F8012D002CF4DC00F024FCFFF74E
:10082000B3FF00002A2A2A20617373657274696F0E
:100830006E206661696C65643A2000002C20666950
:100840006C6520002C206C696E652000032A40F244
:10085000308010F0030C00F0158011F8013BBCF162
:10086000020F624498BF11F801CB00F8013B38BF7A
:1008700011F8013BA2F1040298BF00F801CB38BF88
:1008800000F8013B11F0030300F02580083AC0F0A6
:10089000088051F8043B083A51F804CBA0E808104E
:1008A000F5E7121D5CBF51F8043B40F8043BAFF381
:1008B0000080D20724BF11F8013B11F801CB48BFDB
:1008C00011F8012B24BF00F8013B00F801CB48BF11
:1008D00000F8012B704710B5203AC0F00B80B1E84A
:1008E0001850203AA0E81850B1E81850A0E8185065
:1008F000BFF4F5AF5FEA027C24BFB1E81850A0E86E
:10090000185044BF18C918C0BDE810405FEA827C87
:1009100024BF51F8043B40F8043B08BF7047D2079E
:1009200028BF31F8023B48BF11F8012B28BF20F83F
:10093000023B48BF00F8012B70474FF0000200B5A2
:10094000134694469646203922BFA0E80C50A0E8F2
:100950000C50B1F12001BFF4F7AF090728BFA0E8A0
:100960000C5048BF0CC05DF804EB890028BF40F86C
:10097000042B08BF704748BF20F8022B11F0804FAE
:1009800018BF00F8012B70474FF0013C50F8042BC2
:1009900051F8043B9A4221D1A2EB0C03934313EA92
:1009A000CC1317D150F8042B51F8043B9A4215D1BF
:1009B000A2EB0C03934313EACC130BD150F8042B96
:1009C00051F8043B9A4209D1A2EB0C03934313EA7A
:1009D000CC13DBD04FF00000704700BFD01A01BA33
:1009E000B1FA81F101F0180122FA01F0CB40C1F116
:1009F0002001DBB2C0B2C01A2CFA01F3D11A914324
:100A000011EAC311E6D17047704770477047000084
:100A100070B5064C7C44064D7D4403E020682044BC
:100A20008047241DAC42F9D170BD000050C70000C2
:100A300064C700007047000000487047401600205F
:100A40000048704770160020704770477047704725
:100A500038B504460A4600206946AFF300800028F6
:100A600008BF38BD02460099204600F00FFB012068
:100A700038BD012000F03EBCF8B5AFF3008005465C
:100A800000200C46102000BF0646A819A0420DD930
:100A9000324669460020AFF30080070008BF00F02F
:100AA00029FC0098A04218BF0546C419FFF7C4FFEF
:100AB00005600746F01D20F007004619284600F0A3
:100AC0000AF8B44208BFF8BDA21B31463868BDE839
:100AD000F84000F0DBBA00210160C0E90110704766
:100AE000102070472DE9F0470D469946924604467E
:100AF00000F124080168880604D5E06921F010019E
:100B0000216000E00120A84201DD471B00E0002732
:100B1000A1697A1902EB0900081AA0612078C006C1
:100B200002D42046AFF30080002608E0D4E901217A
:100B30001AF806009047206A401C761C20624E4539
:100B4000F4DB2078C0060AD52046AFF3008006E02B
:100B5000D4E9012130209047206A401C2062381ED1
:100B6000A7F10107F4DC07E0D4E9012118F805003A
:100B70009047206A401C2062281EA5F10105F3DC85
:100B80002046AFF300802078000602D50220BDE8A1
:100B9000F0870120FBE770472DE9FF4F0C461E460A
:100BA0004FF0FF378BB0D2E90001DDF860800A908A
:100BB0008A46C1F30A5505B93D46002108464FF063
:100BC0000000BAF1000F00F4400005DA00EB8000ED
:100BD0004FF4400101EA50004FEA9059B9F1010F7A
:100BE00000DDB9460A9850EA4A000ED044F610508B
:100BF000A5F2FF3545432F14B8F1000F1ED0754202
:100C0000291E1EDDC9F100021CE0B8F1010F4FF0F2
:100C1000000001D0302103E0F24305E02154401CE4
:100C2000B042FBDB30460022002121540B99C1F871
:100C30000880C1E900200FB0BDE8F08FBD1B6D1C1E
:100C4000DEE74A4600DA694206A800F0BFFA06ABC2
:100C500093E8070003AB83E8070050460A9900F0C9
:100C6000D9FB8DE80700A0F500501F3800900398CD
:100C7000002D0ADD42F21F014A460844002303A961
:100C80000390684600F042FE09E0A0F500504A4695
:100C90001F38002303A90390684600F04CFE8DE83E
:100CA00007000004000C03D04FF0FF30410800E0C3
:100CB0001046B8F1000F03D00022009215461EE046
:100CC000751E05D400F0FCF9303262556D1EF9D561
:100CD000B3460122084302D000227F1C04E02078A2
:100CE000302801D100227F1E002A099784D01DE000
:100CF000112D07DA00F0E4F9303262556D1C50EA2C
:100D00000102F5D1084302D00098C8B10EE00021DD
:100D1000681E05E0235C625C63542254401E491C3B
:100D20008142F7DBAB46A81B401E0990002004F867
:100D30000B000B98099AC0F80880C0E9002B7AE7ED
:100D400011264FF0000857E72DE9F04F884604467A
:100D5000D21D22F0070191B0D1E90001CDE90A01CD
:100D600007F057F802460B98C00F01D02D2007E07E
:100D70002068810701D52B2002E0202101EAC00074
:100D8000032A099001D0072A05DB03464146204685
:100D900000F0DCF90BE12078800601D5E06900E085
:100DA0000620B8F1650F814606D0B8F1660F18D05D
:100DB000B8F1670F70D131E00020B9F1110F009048
:100DC00001DB112301E009F101030AAA01A90CA822
:100DD000FFF7E2FEDDE90C70002609F1010583460C
:100DE00047E001204B4600904FF000470AAA01A9B6
:100DF0000CA8FFF7D1FEDDE90DB00C995D46002689
:100E000010B909F101000D18B9EB050003D4C0F1C8
:100E1000FF3609F10105A5EB09002BE0B9F1010F3F
:100E200001DA4FF001090020B9F1110F0090484696
:100E300001DD112300E003460AAA01A90CA8FFF76F
:100E4000ABFEDDE90C704D46002683462078000796
:100E50000AD4AB4500DA5D4601A8012D04DD411935
:100E600011F8011C302907D04F4502DA17F1040FA1
:100E700004DA012082460FE06D1EEEE7002F02DC4F
:100E8000ED1B3E4403E0781CA84200DD7D1CB81B2E
:100E900000F1010A4FF000472078000703D4AA456B
:100EA00001DB4FF0FF3A0021B7F1004F0DF143088D
:100EB0008DF8431024D002202B23002F01DA7F422B
:100EC0002D230A21021EA0F1010000DC5FB197FB77
:100ED000F1FC97FBF1F201FB1C7C17460CF1300C86
:100EE00008F801CDEEE7A8F101000370218809059B
:100EF00001D5452100E06521A0F1010800F8011CA1
:100F000009980FA9A1EB0807FF1D00B101204119A5
:100F100001EBEA70A1693844081A401EA0612078EC
:100F2000C00602D42046AFF30080099828B1D4E966
:100F300001219047206A401C20622078C00622D5FB
:100F40002046AFF300801EE0002E04DBB34502DD37
:100F500001A8805D00E03020D4E901219047206A9B
:100F6000401C2062761CAAF101005FEA000A0AD147
:100F700000F088F8C0680168405CD4E9012190471E
:100F8000206A401C2062281EA5F10105DCDC07E078
:100F9000D4E9012118F8010B9047206A401C206217
:100FA000381EA7F10107F3DC2046AFF300800320D1
:100FB00011B041E601694A1C02610878704700B52A
:100FC0008FB0CDE901310021059105497944CDE982
:100FD000031011466846FFF73BFB0FB000BD000051
:100FE000E5FFFFFF074B70B50D467B44FFF7E7FFBA
:100FF0000446284600F05CF910B14FF0FF3070BD98
:10100000204670BDD77100002DE9F0410646FFF77C
:1010100017FD8046454613E016B1E068B0420ED198
:1010200020682860D4E90101D8F80070884720467C
:10103000FFF7D8F9D8F80000B842EBD100E0254618
:101040002C68002CE8D1BDE8F08110B500F03AF929
:10105000BDE8104000F030B910B500F053F9BDE81C
:10106000104000F029B910B5044602E0641C06F0F7
:10107000D9FF20780028F9D110BD00000048704742
:101080003816002000487047581600200346406874
:101090008C46002818BF88423CBF03464068F8D3FE
:1010A00018681844884207D00CF1030020F00700AC
:1010B000001D411A521A0146081D0A60FFF792B935
:1010C00030B5B0F10A024FEA900E71F100034EEA1A
:1010D000817EB0EB0E0061EB91014FEA101E4EEAEB
:1010E000017E10EB0E0041EB11114FEA102E4EEA7B
:1010F000016E10EB0E0041EB11214FEA104E4EEA4B
:10110000014E10EB0E0041EB1141401841F100017E
:101110004FEAD00040EA41704FEAD10110EB800560
:101120004FEA810444EA907444EB01046D1944EBE6
:101130000404521BA3414FF0000348BF0A3200D5FC
:1011400030BD401C41F1000130BD00002DE9F041EF
:101150001F46044603260168072A01F4006004DBE9
:1011600008B116A505E016A503E008B115A500E035
:1011700015A521F010002060A069C01EA0610FB16C
:10118000401EA0612046AFF300804FB1D4E9012199
:1011900038469047206A401C2062C01C206206E04E
:1011A000206AFAE7D4E9012115F8010B9047761E71
:1011B000F8D22046AFF30080BDE8F0814E414E00EA
:1011C0006E616E00494E4600696E66002DE9F0477B
:1011D000814616468AB0354878440DC88DE80D0022
:1011E00032487844801C03AC0DC884E80D0041F6F9
:1011F0009B300844372190FBF1F290FBF1F5A5F10B
:10120000800501FB12041B3C02D56442012000E072
:101210000020DFF898A080460027FA44AAF1BE0A11
:101220000EE0E0070AD03246684607EB470101238B
:101230000AEB810100F07FFB8DE8070064107F1C42
:10124000002CEED1194F7F44AE3F19E0E80715D0CE
:1012500007EB04100DF1180A90E80E008AE80E0062
:10126000C068F04201D1981908903246012306A9BE
:1012700003A800F060FB03AB83E807006D10641C5B
:10128000002DE3D14FF0010332466946B8F1000F5B
:1012900003A802D000F03AFB01E000F04CFBC9E9E2
:1012A0000001C9F808200AB0BDE8F08758830000A3
:1012B000007B00F080007047002801D006F0AFBE30
:1012C0007047000010B5002102A000F061F8012075
:1012D00010BD0000534947414252543A2041626ECA
:1012E0006F726D616C207465726D696E6174696F87
:1012F0006E00000010B500F065F8BDE81040FFF783
:10130000DBBF000010B5002102A000F041F8012071
:1013100010BD00005349475056464E3A2050757252
:1013200065207669727475616C20666E2063616CED
:101330006C6564007546FFF7A1FEAE460500694680
:10134000534620F00700854618B020B5FFF708F88F
:10135000BDE820404FF000064FF000074FF00008B6
:101360004FF0000B21F00701AC46ACE8C009ACE837
:10137000C009ACE8C009ACE8C0098D46704710B59B
:101380000446AFF300802046BDE81040FEF773BF6F
:1013900070B505460C460A2000E06D1C06F042FEC2
:1013A00035B128780028F8D102E0641C06F03AFE36
:1013B00014B120780028F8D1BDE870400A2006F06A
:1013C00031BE000010B5012805D0002103A0FFF7B1
:1013D000DFFF012010BD09A1F8E700005349475283
:1013E000544D454D3A204F7574206F6620686561F5
:1013F00070206D656D6F7279000000003A204865BD
:101400006170206D656D6F727920636F7272757097
:10141000746564005FEA400C08BF91F0000F4FEA6A
:101420008C234FEAC12243EA51514FEA1C5018BFA6
:1014300000F5F0404FEA300018BF41F000415FEA8C
:101440006C5C00F02980BCF1FF3F08BF40F0804099
:101450007047130C06BF12044FF0100C4FF0000C35
:10146000130E04BF12020CF1080C130F04BF12017B
:101470000CF1040C930F04BF92000CF1020CD30F7B
:1014800004BF52000CF1010C11464FF00002A0F114
:101490001F00A0EB0C00704711F0004F08BF704711
:1014A00031F000413FF4D5AF0B0C06BF09044FF0FB
:1014B000100C4FF0000C0B0E04BF09020CF1080CCD
:1014C0000B0F04BF09010CF1040C8B0F04BF890042
:1014D0000CF1020CCB0F04BF49000CF1010CCCF154
:1014E0002003A0EB0C0022FA03F302FA0CF241EA0B
:1014F000030100F10100704720F07F4C80EA0300F7
:1015000023F07F47ACEB070303F57C5300F000406A
:1015100003F1FF032DE980494FEA154B09B44FEA67
:10152000144325EA0B4E24EA03480FF2042606EB87
:10153000132749083E785FEA320203FB0667C7F5C6
:10154000000707FB06F64FEA54374FEAD64606F186
:10155000020607FB066CCCF1005C4FEA1C472CEA44
:10156000074C07FB06F40CFB06F504EB15464FEAA7
:10157000961634BF00204FF000404FEAD13706FBEB
:1015800007FC4FEA1C4C0CFB0BF7D21B03FB0CF7C0
:1015900061EB07010CFB0EF7B0EB074072EB174253
:1015A0000CFB08F734BFA2EB0742B2EB074261EB3A
:1015B00017414FEA0C444FEA910706FB07FC4FEA3C
:1015C0001C4C0CFB0BF7B0EBC74072EB573203FB24
:1015D0000CF734BFA2EBC742B2EBC74261EB573105
:1015E0000CFB0EF7B0EBC70072EB57720CFB08F761
:1015F00034BFA2EBC702B2EBC70261EB5771039F86
:101600004FEA816141EA921104EBCC044FEAD137F1
:101610004FEA826206FB07FC42EA90124FEA8060C2
:101620004FEA1C4C0CFB0BF7D21B03FB0CF761EBD6
:1016300007010CFB0EF7B0EB074072EB17420CFBF7
:1016400008F734BFA2EB0742B2EB074261EB174148
:101650004FEA8C554FEA910704EB9C2406FB07FCEC
:101660004FEA1C4C0CFB0BF7B0EBC74072EB573248
:1016700003FB0CF734BFA2EBC742B2EBC74261EBEE
:1016800057310CFB0EF7B0EBC70072EB57720CFB37
:1016900008F734BFA2EBC702B2EBC70261EB577188
:1016A00015EB4C254FEA816141EA92114FEA8262C3
:1016B0004FEAD13742EA901206FB07FC44F10004DE
:1016C0004FEA80604FEA1C4C0CFB0BF7D21B03FB6C
:1016D0000CF761EB07010CFB0EF7B0EB074072EB68
:1016E00017420CFB08F734BFA2EB0742B2EB0742EC
:1016F00061EB174115EB1C154FEA813141EA92412C
:101700004FEA823242EA90424FEA80304FEA0C764A
:1017100044F1000448EA03434EEA0B484FF0000E40
:10172000B2EB080C71EB030724BF624639464EEB5F
:101730000E0E4FF0000B0018524149414BEB0B0BC2
:10174000B2EB080C71EB03077BF1000B24BF624680
:1017500039464EEB0E0E4FF0000B00185241494136
:101760004BEB0B0BB2EB080C71EB03077BF1000B9F
:1017700024BF624639464EEB0E0E51EA020718BFEF
:1017800046F0010616EB0E7655F1000254F1000109
:1017900003D5BDE88901BDE80088BDE88901BDE841
:1017A0000048B619524141EB0101A3F10103704712
:1017B00080807F7E7D7C7B7A79787776767574738E
:1017C000727171706F6E6E6D6C6C6B6A6A6968684D
:1017D000676666656464636362616160605F5F5EE3
:1017E0005E5D5D5C5C5B5B5A5A5959585857575659
:1017F00056555555545453535252525151505050BE
:101800004F4F4F4E4E4D4D4D4C4C4C4B4B4B4A4A0F
:101810004A49494948484847474747464646454553
:10182000454444444443434343424242424141418C
:10183000002B9C4630D477002BD01CB54FEA3707DD
:1018400003B44FF010004FF01001BAF1000F06D0B2
:10185000BCF1000FDCBF40F0080040F008014FF081
:1018600000000FBCBDE810400BF1010BBBF1010FF4
:1018700008BF5FEA170722BF12F1010211F101014F
:101880004FF0004143F1000300F0004043EA000044
:101890007047F9D35708D0E746EA064613F1400FE0
:1018A0004FEA16461FDD13F1200FDFBF16430A462D
:1018B000002120335B42BED0C3F1200746EA064632
:1018C00002FA07F74FEA164646EA0706C3F1200771
:1018D00022FA03F201FA07F721FA03F14FF00003AD
:1018E00042EA0702A7E746EA020646EA06464FEA48
:1018F000164646EA0106BCBF46EA0646360C4FF0DD
:1019000000034FF000024FF0000194E72DE9804CF6
:101910009A46934670B491E8380007C831EA400C03
:1019200048BF34EA430C03D5FFF7E6FDFFF780FF1D
:10193000F0BCBDE8008C2DE9804C9A46934670B40B
:1019400091E8380007C810F0804F08BF13F0804FAF
:1019500003D100F005F8FFF76BFFF0BCBDE8008C89
:1019600020F07F4780EA030023F07F4C07EB0C0355
:10197000A3F57C5300F00040A3F1FE0392F0000FAA
:1019800000F0B38095F0000F00F077802DE9014959
:101990004FEA11404FEA144621EA004800FB06FCDA
:1019A00024EA064708FB06F607FB08F800FB07F7E2
:1019B00018EB06484CEB164C4FEA124B18EB074855
:1019C0004FEA15464CEB174022EA0B4E0BFB06FC88
:1019D00025EA06470EFB06F607FB0EFE0BFB07F794
:1019E0001EEB064E4CEB164C4FF000061EEB074E5E
:1019F0004CEB174B18EB0B0840F1000018EB0E0BEB
:101A000058EB000840F100008F1A4FF000013CBF76
:101A1000C943661B14BFB5EB040C00213CBFC9438E
:101A2000F61B4FEA17444EEA8E0E27EA04454FEAAA
:101A30001C4704FB07622CEA074C05FB07F70CFB6D
:101A400005F604FB0CFC16EB074642EB174216EBBF
:101A50000C4642EB1C421BEB060658EB02024141CE
:101A600046EA9E0601D5BDE80189B619524141EB0F
:101A70000101A3F10103BDE801894FEA14454FEAD2
:101A8000114724EA054621EA074C05FB07F406FB4B
:101A900007F70CFB06F105FB0CFC11EB074144EBCF
:101AA00017444FEA124711EB0C4144EB1C4422EA65
:101AB000074C05FB07F206FB07F70CFB06F605FBD8
:101AC0000CFC16EB074642EB174216EB0C4642EBBA
:101AD0001C456A1854F1000148BF7047B6195241BD
:101AE00041EB0101A3F10103704795F0000F37D0DE
:101AF0004FEA11424FEA144721EA024624EA074C12
:101B000002FB07F106FB07F70CFB06F402FB0CFCDB
:101B100014EB074441EB17414FEA154714EB0C4413
:101B200041EB1C4125EA074C02FB07F506FB07F7D2
:101B30000CFB06F602FB0CFC16EB074645EB1745C3
:101B400016EB0C4645EB1C42121951F1000148BF3F
:101B50007047B619524141EB0101A3F101037047EF
:101B60004FEA14454FEA114724EA054621EA074C9B
:101B700005FB07F106FB07F70CFB06F24FF000062A
:101B800005FB0CFC12EB074241EB174112EB0C4238
:101B900051EB1C4148BF7047921841EB0101A3F182
:101BA0000103704700BFFEE710B5022006F0E0FA1F
:101BB00010BD000010B500220421114801F090FA78
:101BC0000F48006820F440500D490860084600683E
:101BD00040F48050086000224021094801F080FA5A
:101BE000FFF7E2FF01220421054801F079FAFFF72F
:101BF000DBFF00220421024801F072FA10BD000050
:101C0000001C024000B587B0142102A8FEF795FE23
:101C100000BF002001901948006840F0800017497B
:101C200008600846006800F08000019000BF00BF17
:101C300000220421124801F053FA002240211048EA
:101C400001F04EFA442002900120039000200490FD
:101C5000059002A90A4801F02BF902A9084801F0F1
:101C600027F901220421064801F03AFA0122402115
:101C7000034801F035FA07B000BD000030380240DB
:101C8000001C024010B500220421114801F028FA7E
:101C90000F48006820F440500D490860084600686D
:101CA00040F48050086001224021094801F018FAF0
:101CB000FFF77AFF01220421054801F011FAFFF72E
:101CC00073FF00220421024801F00AFA10BD00004F
:101CD000001C024070B5054600241848006820F436
:101CE0004050164908600846006808601E2006F04B
:101CF0003FFA002618E000220421104801F0F0F914
:101D0000FFF752FF012204210C4801F0E9F96006B7
:101D1000040E4021094801F0DBF908B1601CC4B28F
:101D2000FFF742FF701CC6B2082EE4DB15B9FFF7BF
:101D3000A9FF01E0FFF73EFF204670BD001C0240F6
:101D400070B504461C48006820F440501A490860E9
:101D50000846006840F480500860002204211648BC
:101D600001F0BEF9002524E0E00928B90022402155
:101D7000114801F0B5F908E00120B0EBD41F04D1FF
:101D8000012240210C4801F0ABF96006040EFFF778
:101D90000BFF01220421084801F0A2F9FFF704FF1C
:101DA00000220421044801F09BF9FFF7FDFE681CA6
:101DB000C5B2082DD8DB70BD001C024010B512481A
:101DC000006820F44050104908600846006840F45C
:101DD00080500860012204210B4801F081F90122A2
:101DE0004021094801F07CF91E2006F0C1F90022CB
:101DF0004021054801F074F9FFF7D6FE00220421C6
:101E0000014801F06DF910BD001C024010B51248E8
:101E1000006820F44050104908600846006840F40B
:101E200080500860002204210B4801F059F900227B
:101E30004021094801F054F91E2006F099F90122C9
:101E40000421054801F04CF9FFF7AEFE01224021C4
:101E5000014801F045F910BD001C024010B50024F6
:101E60001648006820F4405014490860084600688D
:101E7000086001224021114801F032F901220421B9
:101E80000E4801F02DF9FFF78FFE09E0601CC4B287
:101E9000FA2C03DDFFF7BAFF012010BDFFF784FE27
:101EA0004021064801F014F90028EFD10022042156
:101EB000024801F015F90020EFE70000001C024085
:101EC00010B5024800F07AFC10BD0000F4030020B9
:101ED00010B5024800F0FFFA10BD0000F400002029
:101EE00010B5024800F06AFC10BD00005404002048
:101EF0000146087810381823B0FBF3F20848805CDC
:101F0000C865032A05D908686FF30900001D8865B4
:101F100003E008686FF309008865886D704700006A
:101F200064930008014600208A6A8B69CBB932B1FC
:101F3000012A0DD0022A03D0032A10D10EE000BFDF
:101F4000CB6A03F08073B3F1807F00D1012007E0FA
:101F5000CB6AB3F1C07F00D1012001E000E000BFF7
:101F600034E08B69B3F5005F1AD132B1012A07D092
:101F7000022A03D0032A11D10AE000BF01200EE09B
:101F8000CB6A03F08073B3F1807F00D1012006E0BB
:101F9000CB6AB3F1C07F00D1012000E000BF15E0A3
:101FA00032B1012A05D0022A04D0032A0CD103E061
:101FB00000BF00BF012008E0CB6A03F08073B3F1DB
:101FC000807F00D1012000E000BF00BF704730B526
:101FD0000468246824F4802405682C600468636025
:101FE0008468402C04D10468A2600468E16003E0C6
:101FF0000468A1600468E26030BD704710B5082035
:1020000000F048FF10BD72B600BFFEE710B5002219
:1020100001B909E0012901D10A0205E0022901D133
:102020000A0201E04FF440720B2800D9001D0E4B4C
:102030001B6823F440730C4C236023461B68134336
:10204000236023461B6823F0F803236023461B68A4
:10205000022444EAC0042343034C236023461B6844
:1020600043F48033236010BD103C02401C480068DC
:1020700000F40070B0B11A48006820F400701849EC
:10208000086000BF0846006840F400600860084629
:10209000006820F40060086000BF0846006840F453
:1020A000007008600E48006800F48060B0B10C4811
:1020B000006820F480600A49086000BF0846006894
:1020C00040F4805008600846006820F480500860A2
:1020D00000BF0846006840F4806008607047000058
:1020E000003C024010B500F05FFD10BD2A480068BA
:1020F00000F0100040B12948C06940F010002749A5
:10210000C8611020244908602348006800F02000BE
:1021100040B12248C06940F008002049C861202031
:102120001D4908601C48006800F0400040B11B4891
:10213000C06940F004001949C86140201649086090
:102140001548006800F0800040B11448C06940F0B4
:1021500002001249C86180200F4908600E480068DB
:1021600000F4807048B10D48C06940F001000B498F
:10217000C8614FF48070084908600748006800F0A3
:10218000020040B10548C06940F020000349C86121
:1021900002200149086070470C3C0240FC0400200A
:1021A00010B5024802F0A0F810BD00006801002040
:1021B00030B50246002300240868012816D01368B1
:1021C0006FF30E03D1E901052843CD6828430D695B
:1021D00028434D6928438D692843CD6928430D6AFA
:1021E00028434D6A28430343136019E0136823F41E
:1021F000F843D1E9070528434D6A2843034354684F
:102200006FF30E04D1E901052843CD6828430D6919
:1022100028434D6928438D69284304431360546063
:10222000002030BD0246506940EA41005061002064
:102230007047F8B506460C4615460020009000276A
:10224000D4E900010843A168491E40EA4110E16851
:1022500040EA412000900098306100F047FF0746B7
:1022600009E0681C38B125B100F040FFC01BA8424E
:1022700001D90320F8BDB06900F020002028F0D07B
:102280000020F7E770B50346154600220024012D13
:102290001FD09A6802F070420868401E4E68761E91
:1022A00040EA06168868401E46EA0026C868401EB6
:1022B00046EA0036088A401E46EA0046888A401EE2
:1022C00046EA0056087E401E46EA006002439A60D5
:1022D00022E09A6811480240C868401E0603888AB6
:1022E000401E46EA00500243DC6804F0704408686F
:1022F000401E4E68761E40EA06168868401E46EA72
:102300000026088A401E46EA0046087E401E46EA2D
:10231000006004439A60DC60002070BDFF0F0FFF77
:102320007047000010B5C4B00024F02106A8FEF7E5
:1023300004FB08200190002002900120039003205C
:10234000049001A91B4800F0B3FD4FF48070019088
:102350000120029001A9174800F0AAFDFFF752FCE6
:1023600000224FF48071134800F0BAFE0C2000F0F8
:1023700005FC012211020F4800F0B2FE0A2000F015
:10238000FDFB0820019000200290039003200490A0
:1023900001A9084800F08CFD642000F0EFFB06A1C5
:1023A00042A8FEF7F1FA10B9002044B010BD012098
:1023B000FBE70000001C024031313538000000000E
:1023C0002DE9F04105460F461646FFF7F7FC282099
:1023D000FFF7B6FCFFF742FD2812FFF7B1FCFFF74D
:1023E0003DFDE8B2FFF7ACFCFFF738FDFFF7E6FC78
:1023F0002920FFF7A5FCFFF731FD00240BE0711E3B
:10240000A14201D0012100E000210846FFF762FC53
:102410003855601CC4B2B442F1DBFFF7F7FCBDE8ED
:10242000F0812DE9F04104460E4617460025A846E6
:10243000FFF7C4FC2820FFF783FCFFF70FFD2012F5
:10244000FFF77EFCFFF70AFDE0B2FFF779FCFFF72C
:1024500005FD00BF0BE0705DFFF772FCFFF7FEFCAF
:102460008046B8F1000F00D003E0681CC5B2BD4241
:10247000F1DB00BFFFF7CAFC4046BDE8F08110B5B4
:1024800004460CB9012010BD607920B900202071EC
:10249000204600F005F8012060710020F3E70000FD
:1024A00008B50A4A016891420FD100BF002100918E
:1024B0000749096841F48051054A116011460968CD
:1024C00001F48051009100BF00BF08BD0030024000
:1024D00030380240704770B504462068456820686F
:1024E000066805F00100E0B106F48070C8B120680C
:1024F000006820F4807021680860E06B40F0010003
:10250000E063012021688860042084F8390000BF5E
:10251000002084F8380000BF606910B1204661696E
:10252000884705F02000E0B106F40050C8B12068EB
:10253000006820F40050216808602020216888602D
:10254000E06B40F00200E063042084F8390000BF33
:10255000002084F8380000BF606910B1204661692E
:10256000884705F00800E0B106F40060C8B12068B3
:10257000006820F4006021680860082021688860F5
:10258000E06B40F00400E063042084F8390000BFF1
:10259000002084F8380000BF606910B120466169EE
:1025A000884705F0040070B106F4806058B12068D7
:1025B000006820F480602168086004202168886039
:1025C000204600F06BF805F00200D0B106F4007070
:1025D000B8B12068006820F400702168086002200B
:1025E00021688860E06BE063012084F8390000BF57
:1025F000002084F8380000BF206910B1204621690E
:10260000884705F01000C0B106F48050A8B12068DA
:10261000006820F4805021680860102021688860DC
:10262000E06BE063012084F8390000BF002084F8EB
:10263000380000BF2046FFF74DFF70BD10B50446BF
:102640000CB9012010BD94F8390028B9002084F895
:102650003800204600F024F8022084F83900206871
:10266000006820F4403061680843216808602068F1
:10267000406B20F00700A168084321684863206888
:10268000006C6FF30D00E1680843216808640020C6
:10269000E063012084F839000020D3E77047000090
:1026A00038B504460E492068884217D100BF002083
:1026B00000900C48006840F400000A490860084691
:1026C000006800F40000009000BF00BF0022052158
:1026D0005A2001F02DF85A2001F01AF838BD0000F8
:1026E00000B002403038024070B50446A56D00F0DD
:1026F000FDFC064694F83500022808D0802060656D
:1027000000BF002084F8340000BF012070BD2068A5
:10271000006820F01600216808602068406920F0F9
:10272000800021684861206C08B9A06C28B120683D
:10273000006820F00800216808602068006820F028
:102740000100216808600FE000F0D0FC801B052824
:102750000AD92020606500BF002084F8340000BF43
:10276000032084F83500D1E72068006800F00100FC
:102770000028E9D194F85C103F208840A86000BF91
:10278000002084F8340000BF012084F835000020C8
:10279000BCE7014691F83500022803D08020486547
:1027A00001207047052081F835000868006820F096
:1027B00001000A6810600020F3E70000F8B5044645
:1027C000002000908C4800684FF41651B0FBF1F7E0
:1027D000A56D2E6894F85C1008208840304098B1B0
:1027E0002068006800F0040070B12068006820F0E4
:1027F00004002168086094F85C1008208840A860F4
:10280000606D40F00100606594F85C100120884024
:10281000304068B12068406900F0800040B194F811
:102820005C1001208840A860606D40F00200606587
:1028300094F85C1004208840304068B1206800683B
:1028400000F0020040B194F85C1004208840A860B9
:10285000606D40F00400606594F85C1010208840C2
:10286000304078B32068006800F0080050B394F856
:102870005C1010208840A8602068006800F4802068
:1028800080B12068006800F4002028B9206CC8B12D
:102890002046216C884715E0A06C98B12046A16CB9
:1028A00088470FE02068006800F4807028B920682D
:1028B000006820F0080021680860206C10B12046F4
:1028C000216C884794F85C10202088403040002814
:1028D00065D02068006800F0100000285FD094F8F0
:1028E0005C1020208840A86094F83500052828D185
:1028F0002068006820F016002168086020684069A0
:1029000020F0800021684861206C08B9A06C28B1D3
:102910002068006820F008002168086094F85C10C6
:102920003F208840A86000BF002084F8340000BF2A
:10293000012084F83500206D10B12046216D8847B4
:10294000F8BD2068006800F4802080B1206800682D
:1029500000F4002028B9606C10B12046616C8847F3
:102960001DE0E06BD8B12046E16B884717E0206896
:10297000006800F4807068B92068006820F01000DA
:102980002168086000BF002084F8340000BF0120E7
:1029900084F83500E06B10B12046E16B8847606D2C
:1029A00038B3606D00F00100F0B1052084F8350007
:1029B0002068006820F001002168086000BF0098CE
:1029C000401C0090B84200D905E02068006800F083
:1029D00001000028F3D100BF00BF002084F83400BC
:1029E00000BF012084F83500E06C10B12046E16C96
:1029F000884700BFA4E70000200000202DE9F04137
:102A00000446002500F072FB074614B90120BDE81A
:102A1000F081606A00B100BF00BF002084F834007C
:102A200000BF022084F835002068006820F0010013
:102A3000216808600AE000F059FBC01B052805D991
:102A400020206065032084F83500E0E720680068F6
:102A500000F001000028EED12068056821480540FB
:102A6000D4E901010843E168084321690843616929
:102A70000843A1690843E1690843216A0843054303
:102A8000606A042803D1D4E90B0108430543206898
:102A900005602068456925F00705606A0543606A9E
:102AA00004280DD1A06A0543E06A48B12046FFF72B
:102AB00039FA28B140206065012084F83500A6E786
:102AC000206845612046FFF713FA064694F85C102B
:102AD0003F208840B06000206065012084F8350008
:102AE000002094E73F8010F02DE9F04704460D46A2
:102AF00016461F464FF00008D4F8589000BF94F8CF
:102B00003400012802D10220BDE8F087012084F8BA
:102B1000340000BF94F83500012825D1022084F844
:102B20003500002060653B46324629462046FFF7C7
:102B30004EFA94F85C103F208840C9F808002068DD
:102B4000006840F0160021680860206C28B12068F9
:102B5000006840F00800216808602068006840F0C4
:102B600001002168086006E000BF002084F83400FE
:102B700000BF4FF002084046C6E7000070B50446AB
:102B800000F0B4FA06462546681C10B104480078E7
:102B9000054400BF00F0AAFA801BA842FAD370BD1A
:102BA0001C0000207047000010B500244048006859
:102BB00000F4F970D8B13F480078012806D13D48AB
:102BC000C4684FF0FF303B49C86008E039480078DE
:102BD000022802D13748046901E036484469FFF70A
:102BE00085FA204600F068F8002032490870304825
:102BF000006800F0010000283ED001202C49086048
:102C00002C480078012825D12A484068401E2949CF
:102C100048600846406880B10846C4682046FFF70F
:102C2000C1FF2448C068401C2249C8600846C468E7
:102C3000017A2046FFF7EAF91EE04FF0FF30044624
:102C40001C49C86000200870FFF710FA2046FFF703
:102C5000A9FF11E017480078022806D1FFF706FA0D
:102C600014490869FFF79EFF03E012494869FFF71E
:102C700099FF00200F4908700E480078B8B90C4839
:102C8000001D006848F2FF0188430949091D0860DA
:102C90000846006820F0807008600846006820F050
:102CA0000070086000BF00200249087600BF10BD18
:102CB0000C3C0240FC0400207047000000B587B0C7
:102CC000142102A8FDF739FE3548006808B107B0A5
:102CD00000BD01203249086000BF0020019031484A
:102CE000006840F001002F4908600846006800F0C5
:102CF0000100019000BF00BF4FF63F00029002208C
:102D0000039000200490032005900C20069002A957
:102D1000254800F0CDF80D200290022003900020FD
:102D20000490032005900C20069002A91F4800F093
:102D3000BFF848F237100290022003900020049060
:102D4000032005900C20069002A9194800F0B0F865
:102D50004FF683700290022003900020049003201D
:102D600005900C20069002A9124800F0A1F84CF240
:102D7000037002900220039000200490032005902D
:102D80000C20069002A90C4800F092F800220521C0
:102D9000302000F0CDFC302000F0BAFC00BF96E7F8
:102DA0000C000020383802400014024000080240A5
:102DB0000018024000100240000C024030B589B0FB
:102DC00005460024002007900690082D5AD10122C4
:102DD00007A948F24E10FFF7F3FA9DF81C0000F027
:102DE000800068B19DF81C0000F00F00062807DA8B
:102DF00000200690012206A948F24E10FFF711FBB1
:102E00009DF81C0000F00F0080B39DF81C0000F03E
:102E10000F0006282ADA00241AE01B4931F81400B2
:102E2000042208A9FFF7CCFA9DF820009DF8211094
:102E300000EB012003A921F814009DF822009DF861
:102E4000231000EB012080B22DF81400601CC4B2E6
:102E50009DF81C0000F00F00A042DEDCBDF80C0065
:102E60000A490880BDF80000094908809DF81C0047
:102E700000F08F00802805D14FF6FF7003490880CD
:102E80000349088009B030BD84930008A8000020E1
:102E9000AA00002010B5044604480068204020B174
:102EA000024804602046FFF789FF10BD143C014032
:102EB000F8B502460B460025002400200021E8E07A
:102EC000012606FA01F51E6806EA0504AC4275D132
:102ED0001E7906F00306012E04D01E7906F00306C3
:102EE000022E13D190684F000326BE40B0434F001E
:102EF000DE68BE4030439060506801268E40B0438B
:102F00001E79C6F300168E40304350601E7906F0DD
:102F10000306032E09D0D0684F000326BE40B043FD
:102F20004F009E68BE403043D0601E7906F0030615
:102F3000022E13D1CF0802F1200656F827004E07C3
:102F4000F70E0F26BE40B0434F07FF0E1E69BE406E
:102F50003043CF0802F1200646F8270010684F00E2
:102F60000326BE40B0431E7906F003064F00BE4064
:102F7000304310605E6806F08056B6F1805FA6D1DF
:102F800000BF00260096454E366846F48046434F03
:102F90003E603E46366806F48046009600BF00BF9D
:102FA0003F4E8F0856F827008E07370F0F26BE407A
:102FB000B0433C4EB24202D100262EE068E03A4EC9
:102FC000B24201D1012628E0384EB24201D1022698
:102FD00023E0374EB24201D103261EE0354EB24205
:102FE00001D1042619E0344EB24201D1052614E085
:102FF000324EB24201D106260FE0314EB24201D12B
:1030000007260AE02F4EB24201D1082605E02E4ED7
:10301000B24201D1092600E00A268F073F0FBE40C9
:1030200030431F4E8F0846F82700284E3068A043D3
:103030005E6806F48036B6F5803F00D12043234E0B
:103040003060361D3068A0435E6806F40036B6F581
:10305000003F00D120431D4E361D3060361D3068C4
:10306000A0435E6806F48016B6F5801F00D12043A9
:10307000164E08363060361D3068A0435E6806F490
:103080000016B6F5001F00D12043104E0C363060FC
:10309000491C1029FFF414AFF8BD00004438024069
:1030A00008380140000002400004024000080240CD
:1030B000000C0240001002400014024000180240C0
:1030C000001C02400020024000240240003C01405D
:1030D000024613690B400BB1012000E0002070474D
:1030E0000AB1816101E00B04836170470148006807
:1030F0007047000014000020034800680349097865
:103100000844014908607047140000201C0000209A
:1031100010B50D48006840F400700B49086008467F
:10312000006840F4806008600846006840F48070E1
:103130000860032000F03AFB002000F007F800F0E0
:103140009DFA002010BD0000003C024070B588B020
:1031500004460025002600222146192000F0E8FA46
:10316000192000F0D5FA00BF002001901648006831
:1031700040F00100144908600846006800F00100B2
:10318000019000BF00BF02A903A800F0BFFD00F03E
:10319000F5FD45000D48B5FBF0F0461E0C480D4905
:1031A000086040F2E7310B48C160466000210161D0
:1031B000816001F078FB20B9064801F0C1FB08B03E
:1031C00070BD0120FBE700004438024040420F0080
:1031D00000000140B404002070B504460E461546B8
:1031E00000BF94F8A000012801D1022070BD012089
:1031F00084F8A00000BF022084F8A10005EB85013F
:1032000001EBC50204F1380101EB820034223146A2
:10321000FDF761FB2A463146204602F069F801209D
:103220002168486284F8A10000BF002084F8A00053
:1032300000BF00BFDAE7704770B504462068856BB1
:103240002068466B05F00400E0B106F00400C8B148
:103250002068406B20F00400216848630420216846
:10326000C863D4F8A40040F00100C4F8A40004200E
:1032700084F8A10000BF002084F8A00000BF204611
:10328000FFF7D9FF05F00200E0B106F00200C8B177
:103290002068406B20F0020021684863022021680A
:1032A000C863D4F8A40040F00200C4F8A4000420CD
:1032B00084F8A10000BF002084F8A00000BF2046D1
:1032C000FFF7B9FF05F00100A8B106F0010090B1C9
:1032D0002068406B20F001002168486301202168CC
:1032E000C86384F8A10000BF002084F8A00000BFDC
:1032F000204600F0A7F805F00800B0B106F008007D
:1033000098B12068406B20F00800216848630820CD
:103310002168C863012084F8A10000BF002084F860
:10332000A00000BF204600F0A7F970BD70B50446AC
:103330000CB9012070BD94F8A10028B9002084F8D0
:10334000A000204600F0BCF8022084F8A10020680C
:10335000806920F0704021688861D4E90101084348
:10336000E1680843216908432168896908432168A5
:103370008861206880683249084021688860A08A96
:10338000050420688068A169294308432168886092
:103390002068C0682A4908402168C860A08B0504DD
:1033A0002068C068216A294308432168C8602068F2
:1033B00000692349084021680861A08C0504206841
:1033C0000069A16A294308432168086120684069AF
:1033D0001B49084021684861A08D050420684069A8
:1033E000216B294308432168486194F835000502A0
:1033F00094F8360006042068C06A00F07F40216817
:10340000C86246EA050094F8341008432168C96A86
:1034100008432168C8622068406B40F006002168BC
:1034200048632068806940F00100216888610020BD
:10343000C4F8A400012084F8A10000207AE700006D
:1034400000F800F070B50546194800681949098868
:1034500088421AD118480188284600F0E3F800BFD6
:103460001649086800BF90F86610491C80F866107D
:1034700000BF04F00FFB00BF10480068044604F0D2
:10348000C1FB002004F062FC11E00A4801882846D4
:1034900000F0C8F8002004F05AFC00BF0748046898
:1034A00000BF2068016A2046884700BF00BF70BD8A
:1034B000406801408200002084000020EC000020D1
:1034C00010B586B00446142101A8FDF736FA4F491D
:1034D000206888427ED100BF002000904C480068E0
:1034E00040F080604A4908600846006800F080604B
:1034F000009000BF00BF00BF002000904448143877
:10350000006840F480704249143908600846006839
:1035100000F48070009000BF00BF00BF002000904A
:103520000846006840F0200008600846006800F087
:103530002000009000BF00BF00BF002000900846A0
:10354000006840F0800008600846006800F08000D5
:10355000009000BF00BF00BF002000900846006838
:1035600040F0400008600846006800F0400000900D
:1035700000BF00BF40F2F7600190022002900020DF
:10358000039004900E20059001A92248FFF790FCBB
:103590004FF480600190022002900020039004907C
:1035A0000E20059001A91C48FFF782FC4FF47E40D5
:1035B0000190022002900020039004900E200590BC
:1035C00001A91648FFF774FC4FF40C60019002202B
:1035D000029000E018E00020039004900E20059077
:1035E00001A90F48FFF764FC00220621582000F0D3
:1035F0009FF8582000F08CF800220621592000F096
:1036000097F8592000F084F806B010BD006801401A
:10361000443802400020024000140240001C0240D6
:1036200000180240024600BF92F8A000012801D114
:1036300002207047012082F8A00000BF022082F81B
:10364000A1001068406B20F001001368586309481E
:1036500001601068406B40F001001368586301205E
:1036600082F8A10000BF002082F8A00000BF00BFC8
:10367000DFE70000406801407047000008B500BF68
:10368000002000902148006840F480401F490860F5
:103690000846006800F48040009000BF00BF00BFF3
:1036A00000200090081F006840F08050091F08604B
:1036B0000846006800F08050009000BF00BF002264
:1036C0000F21901E00F034F800220521012000F0A7
:1036D0002FF8012000F01CF800220521042000F042
:1036E00027F8042000F014F800220521084600F015
:1036F0001FF8052000F00CF800220521512000F0F1
:1037000017F8512000F004F808BD000044380240CA
:1037100001460846002809DB00F01F0301229A40F9
:1037200043099B0003F1E023C3F8002100BF704769
:103730002DE9F05F80460D461646002704F082FB17
:10374000074639462A46334601F00700C0F1070A0A
:10375000BAF1040F02D94FF0040A01E0C0F1070AE0
:10376000D14600F1040ABAF1070F02D24FF0000A65
:1037700001E0A0F1030AD4464FF0010A0AFA09FA5F
:10378000AAF1010A0AEA020A0AFA0CFA4FF0010B3E
:103790000BFA0CFBABF1010B0BEA030B4AEA0B042F
:1037A0002146404604F056FBBDE8F09F00BF00F004
:1037B0000702064B19684FF6FF031940044B0B43F1
:1037C00043EA0221014B196000BF70470CED00E095
:1037D0000000FA0538B5002400BF002000901D4805
:1037E000006840F080501B4908600846006800F0FF
:1037F0008050009000BF00BF012017490864FFF708
:1038000075FC044607E0FFF771FC001BB0F57A7FFA
:1038100001D9032038BD1148406800F48030B0F56C
:10382000803FF0D101200C494864FFF75FFC04465B
:1038300007E0FFF75BFC001BB0F57A7F01D903209E
:10384000E8E70648406800F40030B0F5003FF0D1EA
:103850000020DFE74038024000000E4200700040C8
:103860007047000010B50648006800F4803028B1A9
:10387000FFF7F6FF4FF480300149086010BD0000EB
:10388000143C0140F8B5044600250026207800F0DD
:10389000010048B9207800F00200022804D0207806
:1038A00000F04000402862D10020B1498866FFF74F
:1038B0001DFC054606E0FFF719FC401B022801D954
:1038C0000320F8BDAB480068C0F3C0600028F2D107
:1038D000207800F0010038B160688101207A41EA67
:1038E0000070A44984310860207800F002000228AA
:1038F00019D1A04884300068C0F302766068810165
:10390000207B41EA006040EA06709A4984310860F1
:1039100098488C30006820F01F00E169491E084378
:1039200094498C310860207800F0400040280AD18A
:1039300060688101207B41EA0061207A41EA0070E1
:103940008C4984310860012089498866FFF7CEFBE5
:10395000054606E0FFF7CAFB401B022801D90320F9
:10396000AFE784480068C0F3C0600028F2D0207838
:1039700000F00400042804D0207800F00800082893
:1039800063D100207A490867FFF7B0FB054606E0DF
:10399000FFF7ACFB401B022801D9032091E77548D3
:1039A0000068C0F340700028F2D1207800F00400D5
:1039B000042819D16F4888300068C0F30276206966
:1039C0008101207D41EA006040EA06706949883142
:1039D0000860081D006820F4F851206A401E41EA82
:1039E000002064498C310860207800F00800082825
:1039F00017D1604888300068C0F3036620698001F1
:103A000040EA0661207E41EA00705A498831086028
:103A1000081D006820F44030616A084355498C3124
:103A20000860012052490867FFF760FB054606E081
:103A3000FFF75CFB401B022801D9032041E74D48FA
:103A40000068C0F340700028F2D0207800F0200019
:103A500020287DD100BF00200090464840300068FB
:103A600040F080504349403108600846006800F04B
:103A70008050009000BF00BF3F48006840F4807055
:103A80003D490860FFF732FB054606E0FFF72EFBD5
:103A9000401B022801D9032013E73748006800F4CF
:103AA00080700028F2D033487030006800F440760F
:103AB0004EB3208D00F44070B04224D02D487030B9
:103AC000006820F4407601202C490860002008603E
:103AD000284870300660006800F0010098B1FFF7D8
:103AE00005FB054608E0FFF701FB401B41F288316A
:103AF000884201D90320E4E61E4870300068C0F314
:103B000040000028EFD000BF208D00F44070B0F5D9
:103B1000407F0CD117480830006820F4F810184A8C
:103B2000A16A1140084313490831086007E01148B1
:103B30000830006820F4F8100E49083108600D487C
:103B400070300068218DC1F30B010843094900E082
:103B500002E07031086000BF207800F010001028EB
:103B600003D194F82C00074908600020A9E6000062
:103B7000000047420038024000700040400E4742BB
:103B8000FFFCFF0FE011474270B504460D460CB92B
:103B9000012070BD5848006800F00F00A84209D20B
:103BA00055490D700846006800F00F00A84201D08A
:103BB0000120EEE7207800F0020002281DD12078D5
:103BC00000F00400042805D14C48006840F4E0509F
:103BD0004A490860207800F00800082805D14748C5
:103BE000006840F46040454908604448006820F09F
:103BF000F000A168084341490860207800F0010006
:103C0000A8B36068012807D13C4808380068C0F3B1
:103C10004040B8B90120BCE76068022802D0606863
:103C2000032807D1354808380068C0F3406048B918
:103C30000120AEE7314808380068C0F3400008B9F9
:103C40000120A6E72D48006820F0030061680843C2
:103C50002A490860FFF74AFA064609E0FFF746FAE4
:103C6000801B41F28831884202D9032091E707E0A6
:103C70002248006800F00C006168B0EB810FEDD1C4
:103C80001D48006800F00F00A84209D91A490D70BC
:103C90000846006800F00F00A84201D0012078E734
:103CA000207800F00400042807D11448006820F4AC
:103CB000E050E168084311490860207800F00800EE
:103CC000082808D10D48006820F46040216940EAC6
:103CD000C1000A49086000F061F808490968C1F3A9
:103CE0000311074A515CC84006490860064800684D
:103CF000FFF72CFA00204CE7003C02400838024055
:103D00006C93000820000020180000200F220260A1
:103D10000D4A126802F0030242600B4A126802F078
:103D2000F0028260084A126802F4E052C260064A59
:103D3000126802F46042D2080261044A126802F07A
:103D40000F020A607047000008380240003C024041
:103D500001480068704700002000002000B5FFF710
:103D6000F7FF04490968C1F38221034A515CC84046
:103D700000BD0000083802407C93000800B5FFF742
:103D8000E7FF04490968C1F34231034A515CC84066
:103D900000BD0000083802407C9300082DE9F04780
:103DA000002400250026A1462548006800F00C00EC
:103DB00020B1042805D008283AD105E0DFF8849026
:103DC00039E0DFF8849036E01D48001F006800F0FD
:103DD0003F041B48001F006800F4800078B11A48B7
:103DE0001749091F0968C1F38811A0FB017001463A
:103DF000224600233846FCF71CFB05460EE011481E
:103E00000F49091F0968C1F38811A0FB0170014621
:103E1000224600233846FCF70CFB05460848001FE5
:103E20000068C0F30140401C4600B5FBF6F902E013
:103E3000DFF8109000BF00BF4846BDE8F0870000E3
:103E4000083802400024F40040787D01F8B50446AB
:103E50000CB90120F8BD207800F00100002874D0D2
:103E6000F948006800F00C0004280DD0F6480068FE
:103E700000F00C00082813D1F348001F006800F47C
:103E80008000B0F5800F0BD1EF4808380068C0F310
:103E90004040002859D06068002856D10120D9E759
:103EA00000BF6068B0F5803F08D1E7480838006877
:103EB00040F48030E449083908601EE06068B0F5DD
:103EC000A02F0DD1E0480838006840F48020DE497A
:103ED000083908600846006840F4803008600CE04B
:103EE000D9480838006820F48030D749083908607C
:103EF0000846006820F48020086000BF606890B128
:103F0000FFF7F4F8054606E0FFF7F0F8401B6428D9
:103F100001D903209EE7CC4808380068C0F3404030
:103F20000028F1D011E0FFF7E1F8054606E0FFF7C1
:103F3000DDF8401B642801D903208BE7C24808380C
:103F40000068C0F340400028F1D1207800F0020062
:103F500002285FD1BC48006800F00C0058B1BA4894
:103F6000006800F00C0008281CD1B748001F00684A
:103F700000F48000B0B9B44808380068C0F34000CD
:103F800020B1E068012801D0012063E7AE4808387D
:103F9000006820F0F800216940EAC100AA49083908
:103FA000086037E0E06800B30120A8490860FFF727
:103FB0009DF8054606E0FFF799F8401B022801D955
:103FC000032047E7A04808380068C0F340000028F5
:103FD000F1D09D480838006820F0F800216940EAD7
:103FE000C10099490839086014E000209749086029
:103FF000FFF77CF8054606E0FFF778F8401B02283B
:1040000001D9032026E7904808380068C0F3400033
:104010000028F1D1207800F0080008282CD1606930
:10402000A8B101208A490860FFF760F8054606E05C
:10403000FFF75CF8401B022801D903200AE78248F9
:104040006C300068C0F340000028F1D014E000207C
:104050007F490860FFF74AF8054606E0FFF746F893
:10406000401B022801D90320F4E677486C30006831
:10407000C0F340000028F1D1207800F004000428AB
:1040800070D1002770483830006800F0805090B937
:1040900000BF002000906C483830006840F080502D
:1040A0006949383108600846006800F08050009087
:1040B00000BF00BF01276748006800F48070B0B9F6
:1040C0006448006840F4807062490860FFF70EF8A9
:1040D000054606E0FFF70AF8401B022801D9032035
:1040E000B8E65C48006800F480700028F2D000BF99
:1040F000A068012808D154486830006840F00100E9
:104100005149683108601DE0A06805280DD14E486E
:104110006830006840F004004B4968310860084688
:10412000006840F0010008600CE047486830006813
:1041300020F001004449683108600846006820F01A
:104140000400086000BFA068A8B1FEF7CFFF0546D5
:1041500009E0FEF7CBFF401B41F28831884202D9CB
:10416000032077E626E0384868300068C0F3400056
:104170000028EED013E0FEF7B9FF054608E0FEF791
:10418000B5FF401B41F28831884201D9032061E626
:104190002D4868300068C0F340000028EFD1012F9F
:1041A00007D129483830006820F08050264938313E
:1041B000086000BFA069002845D02348006800F0CF
:1041C0000C0008285DD0A069022845D100201F49B5
:1041D0000866FEF78BFF054606E0FEF787FF401BEB
:1041E000022801D9032035E6174808380068C0F3D3
:1041F00040600028F1D1D4E907010843616A40EA30
:1042000081110122A06AC2EB500041EA00412C203A
:10421000005D41EA00600C49091F086001200B495C
:104220000866FEF763FF054606E0FEF75FFF401BEA
:10423000022801D903200DE6034808380068C0F3BE
:1042400040600028F1D049E00838024000004742B1
:10425000800E474200700040002021490866FEF7AA
:1042600045FF054606E0FEF741FF401B022801D945
:104270000320EFE51B480068C0F340600028F2D13E
:104280002CE0A069012800D1E4E51648001D06686D
:10429000A069012820D006F48001E06981421BD189
:1042A00006F03F01206A814216D147F6C0703040C7
:1042B000616AB0EB811F0FD106F440310122A06A80
:1042C000C2EB5000B1EB004F06D106F070612C201C
:1042D000005DB1EB006F01D00120BBE50020B9E526
:1042E000000047420038024010B50446206880694B
:1042F00000F0010040B1204600F040F8206840691D
:1043000040F001002168486110BD70B504460D46BB
:104310000CB9012070BD94F82C0028B9002084F855
:104320002D00204600F011F8022084F82C00211DF9
:104330002068FDF73DFF2946D4E90002FDF7A2FF02
:10434000012084F82C000020E4E710B50446FEF7B5
:10435000B5FC10BD70B504460D4694F82C0002283B
:1043600000D170BD022084F82C0029462068FDF79A
:1043700059FF012084F82C000020F2E7704770B547
:1043800004460D46164694F82C00022800D170BD54
:10439000022084F82C00324629462068FDF749FFA8
:1043A0002868022803D1052084F82C0002E00120AF
:1043B00084F82C000020EAE770470000F8B50446B6
:1043C0002068466820688568C5F3801048B905F004
:1043D000010030B1C6F3801018B12046216C884727
:1043E000F8BDC5F3400030B1C6F3C01018B1204687
:1043F000616C8847F4E7C5F3401030B9C5F380100D
:1044000018B9C5F3002000287CD0C6F3401000285E
:104410007DD0C5F38010F0B194F8510003280ED080
:10442000606D40F00400606500BF002000902068CF
:10443000C068009020688068009000BF0BE000BF5B
:10444000002000902068C06800902068806800907C
:1044500000BF00BFC4E7C5F3401088B1606D40F0F5
:104460000100606500BF0020009020688068009017
:104470002068006820F040002168086000BF00BF8D
:10448000C5F3002058B1606D40F00800606500BFC2
:104490000020009020688068009000BF00BF606D21
:1044A00078B32068406820F0E0002168486001206F
:1044B00084F8510006F00200022802D006F0010044
:1044C00008B32068406820F0030021684860E06C71
:1044D00050B11048E16C0865E06CFEF75AF918B16C
:1044E000606D40F040006065A06C50B10948A16C5F
:1044F0000865A06CFEF74DF918B1606D40F0400002
:10450000606503E003E02046FFF756FF68E700BF61
:1045100066E70000755C000810B504460CB9012080
:1045200010BD606A38B96068B0F5827F00D105E0DF
:104530000021E16102E00021216161610021A162AD
:1045400094F8510028B9002084F85000204600F06B
:1045500047F8022084F851002068006820F04000ED
:1045600021680860A08800F48270218901F4044168
:104570000843A18901F400610843217C01F0020194
:104580000843217D01F001010843218B01F40071F2
:104590000843217F01F0380108432021095D01F023
:1045A00080010843218D01F400510843216808600F
:1045B0000421A06901EA104094F8241001F01001D0
:1045C0000843216848602068C06920F400602168C1
:1045D000C86100206065012084F8510000209FE739
:1045E00010B586B00446142101A8FCF7A6F91F49AE
:1045F0002068884238D100BF002000901C48006825
:1046000040F480101A4908600846006800F48010E1
:10461000009000BF00BF00BF002000901448143875
:10462000006840F02000124914390860084600680C
:1046300000F02000009000BF00BF4FF460700190B8
:104640000220029000200390032004900520059092
:1046500001A90848FEF72CFC002205215520FFF790
:1046600067F85520FFF754F806B010BD0050014020
:1046700044380240001402402DE9FF5F044688469A
:1046800091461D460E9E012002900020019000BF21
:1046900094F85000012803D1022004B0BDE8F09F37
:1046A000012084F8500000BFFEF720FD074694F873
:1046B00051B060680390AA46BBF1010F0BD003987C
:1046C000B0F5827F04D1A06810B9BBF1040F02D00D
:1046D00002200190DBE0B8F1000F03D0B9F1000F28
:1046E00000D015B901200190D1E094F851000428C0
:1046F00002D0052084F8510000206065C4F838908D
:10470000E587A587C4F83080E586A58620646064C7
:104710002068006800F04000402805D0206800684C
:1047200040F0400021680860E068B0F5006F4AD1B1
:10473000606810B1BAF1010F09D1206B00882168BF
:10474000C860206B801C2063E08E401EE08633E052
:104750002068806800F00200022810D1E08E70B15D
:10476000029801280BD1206B00882168C860206B5B
:10477000801C2063E08E401EE086002002902068AE
:10478000806800F0010068B1E08F58B12068C0680F
:10479000A16B0880A06B801CA063E08F401EE087A7
:1047A00001200290FEF7A2FCC01BB04204D3701C93
:1047B00010B1032001906AE0E08E0028C8D1E08F9C
:1047C0000028C5D14AE0606810B1BAF1010F09D1E3
:1047D000206B007821680873206B401C2063E08EFA
:1047E000401EE08634E02068806800F00200022865
:1047F00010D1E08E70B1029801280BD1206B0078A7
:1048000021680873206B401C2063E08E401EE08608
:10481000002002902068806800F0010068B1E08FFD
:1048200058B12068C068A16B0870A06B401CA063E1
:10483000E08F401EE08701200290FEF757FCC01B6E
:10484000B04201D3701C00B916B9032001901EE0DC
:10485000E08E0028C7D1E08F0028C4D13A46314607
:10486000204601F011FA20B101200190202060655E
:104870000DE0A06850B900BF002000902068C0681B
:10488000009020688068009000BF00BF00BF01203A
:1048900084F8510000BF002084F8500000BF019848
:1048A000FBE67047704710B504460CB9012010BDF7
:1048B00094F83D0028B9002084F83C00204600F020
:1048C00025F8022084F83D00211D206801F01CFB22
:1048D000012084F8460000BF84F83E0001213F20FB
:1048E0000155402001554120015500BF00BF012066
:1048F00084F84200432001554420015545200155CC
:1049000000BF012084F83D000020D0E708B50A4A26
:10491000016891420FD100BF002100910749096849
:1049200041F48071054A11601146096801F48071F3
:10493000009100BF00BF08BD002000404038024089
:10494000014691F83D00012801D001207047022066
:1049500081F83D000868C06840F001000B68D8602D
:104960001A4B086898421BD00868B0F1804F17D0E6
:10497000174B0868984213D0164B086898420FD01E
:10498000154B086898420BD0144B0868984207D022
:10499000134B0868984203D0124B086898420CD118
:1049A0000868806800F00702062A0CD008680068D2
:1049B00040F001000B68186005E00868006840F0EE
:1049C00001000B6818600020C0E7000000000140F3
:1049D0000004004000080040000C004000040140BA
:1049E0000040014000180040704710B504462068A0
:1049F0000069C0F34000D8B12068C068C0F340002F
:104A0000B0B16FF0020021680861012020772068B2
:104A1000806900F0030018B12046FFF7E5FF05E0CC
:104A2000204600F0ADF8204600F0ABF800202077DB
:104A300020680069C0F38000D8B12068C068C0F366
:104A40008000B0B16FF00400216808610220207777
:104A50002068806900F4407018B12046FFF7C4FF59
:104A600005E0204600F08CF8204600F08AF800208F
:104A7000207720680069C0F3C000D8B12068C06802
:104A8000C0F3C000B0B16FF00800216808610420D5
:104A900020772068C06900F0030018B12046FFF7B6
:104AA000A3FF05E0204600F06BF8204600F069F80F
:104AB0000020207720680069C0F30010D8B120687A
:104AC000C068C0F30010B0B16FF010002168086139
:104AD000082020772068C06900F4407018B1204693
:104AE000FFF782FF05E0204600F04AF8204600F07C
:104AF00048F8002020772068006900F0010058B1D4
:104B00002068C06800F0010030B16FF0010021683A
:104B10000861204600F036F820680069C0F3C01034
:104B200058B12068C068C0F3C01030B16FF0800089
:104B3000216808612046FFF7B4FE20680069C0F3D1
:104B4000801058B12068C068C0F3801030B16FF099
:104B5000400021680861204600F020F820680069C4
:104B6000C0F3401058B12068C068C0F3401030B1A5
:104B70006FF02000216808612046FFF793FE10BD0A
:104B80007047704710B5044603492068884201D138
:104B9000FEF7B2FA10BD00000000014070477047F8
:104BA000704700002DE9F84F04462068056820682A
:104BB000C668206847694FF00009CA4605F00F092A
:104BC000B9F1000F0AD105F0200038B106F020003D
:104BD00020B1204601F0AFFABDE8F88FB9F1000F1F
:104BE00072D007F0010018B906F4907000286BD05D
:104BF00005F0010030B106F4807018B1206C40F06F
:104C00000100206405F0040030B107F0010018B184
:104C1000206C40F00200206405F0020030B107F083
:104C2000010018B1206C40F00400206405F0080079
:104C300048B106F0200010B907F0010018B1206C4F
:104C400040F008002064206C70B305F0200028B10B
:104C500006F0200010B1204601F06DFA206840698E
:104C6000C0F3801A206C00F0080010B9BAF1000FF0
:104C700023D0204601F02AFA2068406900F0400065
:104C8000402816D12068406920F040002168486122
:104C9000A06B50B15648A16B0865A06BFDF779FD7C
:104CA00010B1A06B016D88470CE02046FFF778FF3C
:104CB00008E02046FFF774FF04E02046FFF770FF8E
:104CC0000020206488E7FFE7206B012879D105F0F8
:104CD0001000002875D006F01000002871D000BF29
:104CE00000200090206800680090206840680090D4
:104CF00000BF00BF2068406900F04000402839D163
:104D0000A06B006840681FFA80F8B8F1000F30D03F
:104D1000A08D40452DDDA4F82E80A06BC069B0F5B4
:104D2000807F1FD02068C06820F480702168C86030
:104D30002068406920F001002168486120684069CE
:104D400020F0400021684861202084F83E000020C7
:104D500020632068C06820F010002168C860A06B44
:104D6000FDF7C2FCA08DE28D801A81B22046FFF7CC
:104D700016FF31E7A08DE18D401A1FFA80F8E08D13
:104D8000E8B1B8F1000F1AD02068C06820F4907024
:104D90002168C8602068406920F0010021684861EE
:104DA000202084F83E00002020632068C06820F0A6
:104DB00010002168C86041462046FFF7F0FE0BE76F
:104DC000FFE705F0800030B106F0800018B1204602
:104DD00001F072FB00E705F0400030B106F0400042
:104DE00018B1204601F08DF9F6E600BFF4E60000A8
:104DF000E15F000810B504460CB9012010BDA069A0
:104E000000B100E000BF94F83D0028B9002084F80C
:104E10003C00204600F028F8242084F83D0020685B
:104E2000C06820F400502168C860204601F0E2F913
:104E30002068006920F4904021680861206840697A
:104E400020F02A00216848612068C06840F40050C2
:104E50002168C86000202064202084F83D0084F888
:104E60003E000020CAE7000010B586B004461421B9
:104E700001A8FBF762FDB7492068884239D100BF1D
:104E800000200090B448006840F01000B24908606B
:104E90000846006800F01000009000BF00BF00BF8F
:104EA00000200090AC481438006840F00100AA4986
:104EB000143908600846006800F00100009000BF47
:104EC00000BF4FF4C06001900220029000200390C8
:104ED000032004900720059001A9A048FDF7E8FFF2
:104EE000002206212520FEF723FC2520FEF710FCDA
:104EF0002DE19B492068884248D100BF00200090E6
:104F00009548001F006840F400309349091F08606D
:104F10000846006800F40030009000BF00BF00BFEA
:104F2000002000908C481438006840F008008A493E
:104F3000143908600846006800F00800009000BFBF
:104F400000BF202001900220029000200390032047
:104F500004900720059001A98248FDF7A9FF402091
:104F6000019002200290012003900320049007206A
:104F7000059001A97B48FDF79BFF00220621262012
:104F8000FEF7D6FB2620FEF7C3FBE0E0764920685B
:104F9000884266D100BF002000906F48001F006863
:104FA00040F480206C49091F08600846006800F43E
:104FB0008020009000BF00BF00BF00200090664826
:104FC0001438006840F0020063491439086008464C
:104FD000006800F00200009000BF00BF08150190BB
:104FE00002200290002003900320049007200590E7
:104FF00001A95E48FDF75CFF4FF4006001900220BC
:10500000029001200390032004900720059001A93D
:105010005648FDF74DFF5648564908604FF000606E
:105020004860002153488160C1604FF48061016194
:10503000002141618161C16101624162FDF7DEFCD5
:1050400008B1FCF7E0FF00BF4A48A063846300BFDB
:10505000002206212720FEF76BFB2720FEF758FBD6
:1050600075E045492068884271D100BF002000905A
:105070003948006840F02000374908600846006859
:1050800000F02000009000BF00BF00BF0020009093
:1050900031481438006840F004002F491439086082
:1050A0000846006800F00400009000BF00BF00BF89
:1050B000002000900846006840F040000860084664
:1050C000006800F04000009000BF00BF4020019049
:1050D00002200290002003900320049008200590F5
:1050E00001A92648FDF7E4FE4FF40070019002206C
:1050F000029001200390032004900820059001A94C
:105100001F48FDF7D5FE1F481F490860800548600D
:1051100000211D488160C1604FF480610161002160
:1051200041618161C16101624162FDF767FC08B1C3
:10513000FCF769FF00BF1448A063846300BF00222E
:1051400006214720FEF7F4FA4720FEF7E1FA06B001
:1051500010BD000000100140443802400000024031
:1051600000440040000C024000480040000402409F
:1051700028600240F40300200014014000080240AF
:1051800000180240286402405404002070B5044610
:105190000D46164694F83E00202816D105B10EB9EA
:1051A000012070BD00BF94F83C00012801D102200D
:1051B000F7E7012084F83C0000BF0020206332465E
:1051C0002946204601F02CF9EBE70220E9E7000030
:1051D00010B5044604492068884204D142150349A9
:1051E0000348FFF7D3FF10BD00480040A413002080
:1051F0006C03002070472DE9F84F04460E46174611
:1052000099464FF0000A94F83D0020285AD106B183
:1052100017B90120BDE8F88F00BF94F83C000128C1
:1052200001D10220F6E7012084F83C0000BF0020F5
:105230002064212084F83D00FDF758FF8246A784B2
:10524000E784A068B0F5805F04D1206910B900251B
:10525000B04602E035464FF0000800BF002084F859
:105260003C0000BF1BE05346002280212046CDF8C1
:10527000009001F051F908B10320CBE745B9B8F827
:105280000000C0F308002168486008F1020803E04C
:105290002878216848606D1CE08C401EE084E08C1A
:1052A0000028E0D15346002240212046CDF800904E
:1052B00001F032F908B10320ACE7202084F83D006A
:1052C0000020A7E70220A5E7704700BFFEE7000027
:1052D00010B50248FDF7B0FF10BD00009C01002092
:1052E00010B50248FDF7A8FF10BD00009C0100208A
:1052F000F0B58E880768FF68C7F30B473E44330458
:1053000006688436802707FB0266766806F47047D5
:10531000066884364FF0800C0CFB026677600E68DE
:105320000768FF68C7F30B473E44761C1E430768B7
:1053300084370CFB02777E608E890768FF68C7F3AD
:105340000A073E44330406688436802707FB02665A
:10535000B66806F47047066884360CFB0266B760D0
:105360008E680768FF68C7F30A073E44761C46EA62
:105370000307066884360CFB0266B760066884364D
:10538000802707FB0266366926F007070668843621
:105390000CFB026637610F69066884360CFB0266F7
:1053A00037613126765C33023226765C34040E7E19
:1053B000350606688436802707FB0266B669002733
:1053C000066884360CFB0266B76191F830601E43B4
:1053D000264346EA0507066884360CFB0266B76179
:1053E00006688436802707FB0266766926F0FF0789
:1053F000066884360CFB026677614F69066884365E
:105400000CFB0266776106688436802707FB02661C
:10541000F66940F20777BE43076884370CFB0277D2
:10542000FE61D1E907763743066884360CFB0266D5
:10543000F76106688436802707FB0266B66A002794
:10544000066884360CFB0266B7624F6A06688436CB
:105450000CFB0266B7620E690EB9042313E00E69F5
:10546000012E01D103230EE00E69042E08D00E692F
:10547000022E05D00E69032E02D00E69072E01D12F
:10548000022300E0012306688436802707FB0266BA
:10549000F66A06F0E027066884364FF0800C0CFBB5
:1054A0000266F762D1E90076F61B5E43F61C0F8DAB
:1054B0005F4346EA0747066884360CFB0266F762DC
:1054C00006688436802707FB0266366BF70AFF0200
:1054D000066884360CFB02663763CF6A066884363A
:1054E0000CFB0266376306688436D701F65946F02E
:1054F0000107066884364FEAC21C46F80C70F0BDFE
:1055000010B50548054908600846FCF7B8FF08B122
:10551000FCF779FD10BD00000030024004000020BF
:1055200010B50848084908604FF44030486002212F
:10553000054881600021C160FDF780F808B1FCF7E3
:1055400062FD10BD00B00240F400002008B500BFAD
:10555000002000901648006840F4001014490860CC
:105560000846006800F40010009000BF00BF00BFB4
:10557000002000900846006840F48000086008465B
:10558000006800F48000009000BF00BF00220521E9
:105590000C20FEF7CDF80C20FEF7BAF8002204210B
:1055A0003920FEF7C5F83920FEF7B2F808BD000033
:1055B0003038024000B587B01C216846FBF7BDF9C2
:1055C0001848194908600020486001211648816088
:1055D0000821C16010210161402141614FF4C07177
:1055E00081610021C1614FF40061016249004162A3
:1055F000490081620220009008200190062002905C
:105600000390042004900220059006906946064805
:10561000FEF77BFE08B1FCF7F6FC00F0E7F907B0F7
:1056200000BD0000400100A06801002000B587B067
:10563000142102A8FBF781F900BF00200190AF48B8
:10564000006840F48070AD4908600846006800F4C6
:105650008070019000BF00BF00BF0020019008468D
:10566000006840F0040008600846006800F004008C
:10567000019000BF00BF00BF0020019008460068F5
:1056800040F0200008600846006800F0200001900B
:1056900000BF00BF00BF002001900846006840F036
:1056A000800008600846006800F08000019000BF9C
:1056B00000BF00BF002001900846006840F00100D4
:1056C00008600846006800F00100019000BF00BFBC
:1056D00000BF002001900846006840F040000860CC
:1056E0000846006800F04000019000BF00BF00BF06
:1056F000002001900846006840F01000086008464D
:10570000006800F01000019000BF00BF00BF002043
:1057100001900846006840F00200086008460068F2
:1057200000F00200019000BF00BF00BF0020019008
:105730000846006840F0080008600846006800F06D
:105740000800019000BF00BF01224FF484716C4833
:10575000FDF7C6FC01224FF460416A48FDF7C0FC2A
:10576000002240216848FDF7BBFC01224FF4C371C1
:105770006648FDF7B5FC012244216548FDF7B0FC01
:10578000002220215F48FDF7ABFC01224FF460416D
:105790006048FDF7A5FC0122D1025F48FDF7A0FC9F
:1057A000002243F208015C48FDF79AFC4FF4847034
:1057B00002900120039004900020059002A9504817
:1057C000FDF776FB4FF460400290012003900490B7
:1057D0000020059002A94B48FDF76AFB4FF40060DA
:1057E0000290002003900120049002A94448FDF794
:1057F0005FFB40200290012003900490022005905E
:1058000002A94148FDF754FB0220029000200390BA
:105810000120049002A93B48FDF74AFB02200290B8
:105820000120039004900220059002A93748FDF75B
:105830003FFB4FF4C27002900120039004900020BF
:10584000059002A93148FDF733FB44200290012066
:10585000039004900020059002A92D48FDF728FB35
:10586000082002902D4803900020049002A92848A7
:10587000FDF71EFB202002900120039002200490DF
:105880000020059002A91F48FDF712FB4FF4C070DD
:105890000290002003900120049002A91C48FDF70B
:1058A00007FB4FF460400290012003900490002019
:1058B000059002A91748FDF7FBFA43F6080002908D
:1058C0000120039004900020059002A91248FDF7E2
:1058D000EFFA4FF4804002900020039001200490E2
:1058E00002A90F48FDF7E4FA002205210920FDF77F
:1058F0001FFF0920FDF70CFF07B000BD3038024044
:105900000020024000080240001402400000024053
:10591000001C024000040240000C02400000111074
:105920000018024000B58DB034216846FBF705F839
:105930002C482D4908600020486000212A488160D9
:10594000C16001612F214161022181618721C16113
:105950002221016240F2A731416240F202218162BC
:1059600040F2CF31C16240F20F210163002180F883
:10597000341080F8351080F83610FDF7D7FC08B1E8
:10598000FCF741FB002000904FF44870019000208C
:1059900002904FF4F070039002200490FF200590D5
:1059A000002006904FF480600790052008904FF08B
:1059B000404009904FF448700A904FF4F0700B90FB
:1059C00000208DF8300000218DF831108DF8321054
:1059D000002269460448FDF7FFFB08B1FCF713FB02
:1059E0000DB000BD006801409C01002000B585B0ED
:1059F00000200490009001900290039001200090FC
:105A00001020019001200290002003904FF480525A
:105A100069461D48FEF7B3FC0A20FDF7AFF80220E7
:105A200000901020019001200290002003904FF47C
:105A3000805269461448FEF7A2FC03200090102013
:105A4000019008200290002003904FF48052694694
:105A50000D48FEF794FC4FF40C7004900420009065
:105A60001020019001200290049803904FF480527E
:105A700069460548FEF783FC40F26A510248FEF78A
:105A800069FC05B000BD00006801002010B50F489A
:105A90000F4908604FF48270486000210C48816013
:105AA000C160022101610121416149028161382106
:105AB000C16100210162416281620A21C162FEF777
:105AC0002BFD08B1FCF79FFA10BD0000005001400B
:105AD0004402002010B50A480A49086000204860C6
