:020000040800F2
:10000000A85B00208D0200083B370008992F0008EC
:1000100039370008B1040008093C0008000000005E
:10002000000000000000000000000000CD010008FA
:10003000F5080008000000002902000889370008C0
:10004000A70200083D370008A7020008A702000821
:10005000A909000841370008A7020008A702000804
:10006000A7020008F7080008A7020008A702000876
:1000700055080008A7020008A7020008A702000808
:10008000A7020008A7020008A7020008A7020008AC
:10009000A7020008A7020008A7020008A70200089C
:1000A000A702000881380008A7020008A70200087C
:1000B000A7020008A7020008A7020008A70200087C
:1000C000A7020008A7020008A7020008A70200086C
:1000D000A7020008D93B0008E53B0008F13B0008F7
:1000E000A7020008A7020008A7020008A70200084C
:1000F000A7020008A7020008A7020008A70200083C
:10010000290A0008A7020008A7020008A7020008A1
:10011000A7020008A7020008A7020008A70200081B
:10012000A70200086D080008A7020008A70200083F
:10013000A7020008A7020008A7020008A7020008FB
:10014000A7020008A7020008A7020008A7020008EB
:10015000A7020008A7020008A7020008FD3B00084C
:10016000A7020008A7020008A7020008A7020008CB
:10017000A7020008A7020008A7020008000000006C
:10018000A7020008590B0008A7020008A7020008F0
:10019000A702000845370008A7020008A7020008C8
:1001A000A92F00089D2F000861080008DFF818D06B
:1001B00000F04EF900F0E0F80048004749A20008BE
:1001C000AFF3008000F023F9A85B00202C4B1968E6
:1001D0000868B0E8F04F80F30988BFF36F8F4FF0E5
:1001E000000080F311887047000000000848006894
:1001F000006880F308884FF0000080F3148862B62E
:1002000061B6BFF34F8FBFF36F8F00DF00BF00BF3A
:1002100008ED00E0DFF80C00016841F470010160B6
:10022000704700BF88ED00E0EFF30980BFF36F8FE8
:10023000134B1A681EF0100F08BF20ED108A20E93A
:10024000F04F106009B44FF0500080F31188BFF3F5
:100250004F8FBFF36F8F0AF0E7FD4FF0000080F380
:10026000118809BC19680868B0E8F04F1EF0100F3B
:1002700008BFB0EC108A80F30988BFF36F8F704716
:1002800034000020EFF305807047000006488047E7
:1002900006480047FEE7FEE7FEE7FEE7FEE7FEE76B
:1002A000FEE7FEE7FEE7FEE771380008AD01000853
:1002B0002DE9F05F0546002092469B46884606469B
:1002C000814640241BE0284641464746224600F02E
:1002D00089F853465A46C01A914110D31146184620
:1002E000224600F070F82D1A67EB01084F462246AF
:1002F0000120002100F067F817EB00094E41201E95
:10030000A4F10104DFDC484631462A464346BDE8F5
:10031000F09F40EA01039B0703D009E008C9121FC0
:1003200008C0042AFAD203E011F8013B00F8013BAF
:10033000521EF9D27047D2B201E000F8012B491EDB
:10034000FBD270470022F6E710B513460A46044672
:100350001946FFF7F0FF204610BD10B5002200E05F
:10036000521C835C8C5CA34201D1002BF8D1D8B223
:10037000E1B2401A10BD000070B5054C054D03E018
:10038000206820448047241DAC42F9D170BD000094
:10039000E8A00208F8A002082DE9F041074615463A
:1003A0000E46102009F07CFF04000AD06760C4E903
:1003B000026500F027F80168216004600020BDE8B4
:1003C000F0810120FBE7202A04DB203A00FA02F149
:1003D000002070479140C2F1200320FA03F3194333
:1003E00090407047202A04DB203A21FA02F00021D5
:1003F000704721FA02F3D040C2F120029140084335
:1004000019467047004870472002002070472DE9C8
:10041000F0410646FFF7F6FF8046454613E016B169
:10042000E068B0420ED120682860D4E90101D8F814
:1004300000708847204609F0D9FED8F80000B8427D
:10044000EBD100E025462C68002CE8D1BDE8F08116
:10045000064C074D06E0E06840F0010394E8070011
:1004600098471034AC42F6D3FFF7A4FEBCA00208B4
:10047000DCA00208704730B58C1810F8012B12F080
:100480000F0301D110F8013B120906D110F8012B1E
:1004900003E010F8015B01F8015B5B1EF9D101E09C
:1004A00001F8013B521EFBD1A142E6D3002030BD32
:1004B000FEE70000254A10B4136823F0010313601F
:1004C000234A1368C3F30B1C0123ACF54064243C9E
:1004D00007D01268C2F30B12A2F5406CBCF1270CD6
:1004E0002AD11C4A12683ABB1B4AD2F800C0CCF38E
:1004F0000B0CBCF58A6F0FD0D2F800C0CCF30B0CFC
:10050000ACF58064833C07D01268C2F30B02A2F5FD
:10051000806CBCF1850C0FD1104A13601368002B5E
:10052000FCD10F4A10601068884202D010BC002035
:10053000704710BC012070470A4A93609368002BF3
:10054000FCD1106010688842F3D0EFE7002000E093
:1005500000ED00E0002004E00010005C084C0258B0
:10056000004C02580030024010B5124C0022042109
:10057000204601F0A0F8206820F440502060206858
:1005800040F48050206000224021204601F093F882
:10059000022009F003FE01220421204601F08BF81D
:1005A000022009F0FBFD20460022BDE81040042196
:1005B00001F081B8001C024030B587B014216846B4
:1005C000FFF7C0FE17480024016841F08001016078
:1005D0000068154D00F08000059022460421284651
:1005E00001F069F800224021284601F064F8442017
:1005F00000900120CDE9010469462846039400F0EB
:100600003DFF6946284600F039FF012204212846B3
:1006100001F051F801224021284601F04CF807B0C2
:1006200030BD000030380240001C024010B5124CB2
:1006300000220421204601F03EF8206820F44050BA
:100640002060206840F48050206001224021204634
:1006500001F031F8022009F0A1FD01220421204619
:1006600001F029F8022009F099FD20460022BDE89A
:100670001040042101F01FB8001C02402DE9F04198
:10068000194C07460025206820F44050206020685F
:1006900020601E2009F082FD002600220421204651
:1006A00001F009F8022009F079FD01220421204619
:1006B00001F001F86806050E4021204600F0F6FF23
:1006C00008B16D1CEDB2022009F068FD761CF6B28F
:1006D000082EE2D327B1FFF747FF2846BDE8F08197
:1006E000FFF7A4FFF9E70000001C024070B5194EA7
:1006F00005463046316821F440513160316841F49B
:10070000805131600022042100F0D5FF002428062A
:1007100001D4002200E001224021304600F0CBFF4E
:100720006806050E022009F039FD01220421304639
:1007300000F0C1FF022009F031FD00220421304603
:1007400000F0B9FF022009F029FD641CE4B2082C76
:10075000DDD370BD001C024010B5124C206820F49F
:1007600040502060206840F4805020600122042125
:10077000204600F0A0FF01224021204600F09BFF10
:100780001E2009F00BFD00224021204600F093FFBF
:10079000022009F003FD20460022BDE8104004219C
:1007A00000F089BF001C024010B5124C206820F4F4
:1007B00040502060206840F48050206000220421D6
:1007C000204600F078FF00224021204600F073FF11
:1007D0001E2009F0E3FC01220421204600F06BFFFB
:1007E000022009F0DBFC20460122BDE81040402138
:1007F00000F061BF001C024070B5154C0025206858
:1008000020F44050206020682060012240212046D2
:1008100000F051FF01220421204600F04CFF07E0C8
:100820006D1CEDB2FA2D03D9FFF7BEFF012070BD9C
:10083000022009F0B3FC4021204600F037FF0028D9
:10084000EED100220421204600F035FF002070BDCB
:10085000001C0240014800F081BB0000500700204E
:10086000014800F046BA000084040020014800F06E
:1008700075BB0000B007002001681823CAB2103A07
:10088000B2FBF3F2054B6FF30901032A9B5CC365CE
:1008900000D9091D8165084670470000C8BB0008E3
:1008A00010B5014600208B698A6A4FF0C07453B1BD
:1008B000B3F5005F15D072B1012A0CD0022A0AD01C
:1008C000032A09D104E01AB1012A06D0022A03D171
:1008D000C96AC90100D5012010BDC96AA142FAD078
:1008E00010BD002AF7D0012AF2D0022AF3D0032A41
:1008F000F3D010BD7047082000F0B4BD72B6FEE71B
:10090000002229B101291DD002291ED04FF44072C6
:100910000B2800D9001D0E490B6823F440730B60AF
:100920000B6813430B600A6822F0F8020A600A6839
:10093000022303EBC00002430A60086840F48030E1
:10094000086070474FF48072E2E74FF40072DFE70F
:10095000103C02401348016889050FD5016821F455
:1009600000710160016841F400610160016821F4D7
:1009700000610160016841F400710160016849058E
:100980000FD5016821F480610160016841F4805154
:100990000160016821F480510160016841F48061C7
:1009A00001607047003C024000F026BC1C4908680A
:1009B000C2061C4805D5C26942F01002C26110226D
:1009C0000A600A68920605D5C26942F00802C2614F
:1009D00020220A600A68520605D5C26942F0040264
:1009E000C26140220A600A68120605D5C26942F057
:1009F0000202C26180220A600A68D20506D5C26975
:100A000042F00102C2614FF480720A600A689207E4
:100A100005D5C26942F02002C26102200860704719
:100A20000C3C024058080020014801F039BD00008C
:100A3000C404002030B5D1E901231A43D1E90335BC
:100A40002B431A434B690C681A438B691A43D1E94B
:100A50000735012C496A046807D01A432A436FF30B
:100A60000E040A43224302600AE024F4F8442B43B4
:100A700021430B43416803606FF30E010A43426058
:100A8000002030BD426942EA4101416100207047C7
:100A9000F8B514460546D1E9000210438A686FF0A4
:100AA0001F03C96803EB421242EA41210843009048
:100AB000286100F005FE064609E0601C07D024B15D
:100AC00000F0FEFD801BA04201D90320F8BDA869FB
:100AD0008006F2D40020F8BDF0B56FF00F05D1E923
:100AE000003405EB04145B1E23432E018C682F0396
:100AF00006EB042423434FEA054C0C8A8E8ACD680A
:100B0000097E4FF07F4E07EB04440CEB06560EEBCC
:100B10000161012A0CD082683F1107EB05352B4398
:100B20002343334302F070420B43134383600FE0CF
:100B30008768084A17402A03A2F580523243C568E5
:100B40003A43234305F070450B432B438260C36057
:100B50000020F0BDFF0F0FFF704700002DE9F043AC
:100B6000C3B0F0216846FFF7EDFB08253DAA00243D
:100B7000012603273C95DFF86C9082E8D0003CA961
:100B8000484600F07BFC4FF48078CDE93C863CA9D8
:100B9000484600F073FCFFF70FFD0022414648462F
:100BA00000F089FD0C2000F013FB0122414648466D
:100BB00000F081FD0A2000F00BFBCDE93C54CDE9AB
:100BC0003E473CA9484600F059FC642000F000FB79
:100BD00005A141A8FFF7C1FB002800D0012043B0C8
:100BE000BDE8F083001C02403131353800000000C0
:100BF0002DE9F04115460E460446FFF7ADFD2820CD
:100C0000FFF774FDFFF7F8FD200AFFF76FFDFFF710
:100C1000F3FDE0B2FFF76AFDFFF7EEFDFFF79CFD85
:100C20002920FFF763FDFFF7E7FD00246F1E09E0B1
:100C3000BC4201D0012000E00020FFF71FFD30552D
:100C4000641CE4B2AC42F3D3BDE8F041FFF7ACBDA5
:100C50002DE9F04100241746884606462546FFF751
:100C60007BFD2820FFF742FDFFF7C6FD300AFFF7A6
:100C70003DFDFFF7C1FDF0B2FFF738FDFFF7BCFD0A
:100C80000AE000BF18F80400FFF730FDFFF7B4FDDD
:100C9000050003D1641CE4B2BC42F3D3FFF784FD2A
:100CA0002846BDE8F08110B5040002D0607910B18B
:100CB00006E0012010BD00202071204600F004F85D
:100CC00001206071002010BD08B500680649884207
:100CD00008D10648016841F480510160006800F4C1
:100CE0008050009008BD00000030024030380240C3
:100CF00070472DE9F0470446006846680568F1072B
:100D00004FF004084FF000074FF0010914D0E90537
:100D100012D5016821F480710160E06B40F00100A0
:100D2000E0632168C1F8089084F8398084F838704D
:100D3000616909B120468847B00615D5A80413D5C6
:100D40002068016821F4005101602168202088603A
:100D5000E06B40F00200E06384F8398084F838707A
:100D6000616909B120468847300715D5280513D594
:100D70002068016821F40061016021680820886012
:100D8000E06B40F00400E06384F8398084F8387048
:100D9000616909B12046884770070CD568050AD5F6
:100DA0002068016821F4806101602168C1F8088031
:100DB000204600F05AF8B00713D5A80511D52068D1
:100DC000016821F400710160216802208860E06BF5
:100DD000E06384F8399084F83870216909B12046BD
:100DE0008847F00612D5E80410D52068016821F480
:100DF00080510160216810208860E06BE06384F816
:100E0000399084F838702046FFF772FFBDE8F0870C
:100E100070B5040004D094F83900002510B106E044
:100E2000012070BD84F83850204600F01FF80220E1
:100E300084F8390020680168626821F44031114368
:100E400001602068416BA26821F0070111434163F2
:100E50002068016CE2686FF30D0111430164E563E2
:100E6000012084F83900002070BD704708B5006883
:100E70000B49884212D10B48016841F4000101601E
:100E80000068002200F40000009005215A2000F0C4
:100E9000A1FEBDE808405A2000F08EBE08BD00004B
:100EA00000B00240303802402DE9F0410446876D21
:100EB00000F006FC064694F835000025022806D00E
:100EC0008020606584F834500120BDE8F0812068FE
:100ED000016821F0160101602068416921F080015C
:100EE0004161206C08B9A06C20B12068016821F034
:100EF000080101602068016821F0010101600BE038
:100F000000F0DEFB801B052806D92020606504F870
:100F1000345F03206070D8E720680068C007EFD115
:100F200094F85C103F208840B86004F8345F0120DA
:100F300060700020C9E790F83510022903D08021A5
:100F4000416501207047052180F83510006801686F
:100F500021F0010101600020704700002DE9F843F5
:100F600004464FF00009CDF8009063484FF4165145
:100F7000A56D0068B0FBF1F72E6894F85C100820AE
:100F800000FA01F131420FD021680A6852070BD5EF
:100F90000A6822F004020A6094F85C108840A86095
:100FA000606D40F00100606594F85C104FF001083E
:100FB00008FA01F0304208D021684969090604D5D1
:100FC000A860606D40F00200606594F85C10042039
:100FD0008840304208D021680968890704D5A86094
:100FE000606D40F00400606594F85C10102088404B
:100FF000304218D021680968090714D5A860206814
:101000000168490304D50068000308D5A16C07E016
:101010000168C90503D4016821F008010160216C51
:1010200009B12046884794F85C102020884030425F
:1010300031D021680968C9062DD5A86094F835001B
:1010400005282068016806D0490347D500680003D9
:101050001DD4616C1CE021F016010160206841691B
:1010600021F080014161206C08B9A06C20B120689A
:10107000016821F00801016094F85C103F2088406D
:10108000A86084F8349084F83580216D1FE0E16B0E
:1010900009B120468847606D00282BD0606DC007DD
:1010A00014D0052084F835002068016821F0010182
:1010B00001600098401C0090B84203D82068006886
:1010C000C007F6D184F8349084F83580E16C0029AB
:1010D00010D001B02046BDE8F04308470168C905BB
:1010E000D5D4016821F01001016084F8349084F8AF
:1010F0003580CCE7BDE8F883300000202DE9F041D1
:10110000044600F0DDFA06465CB1002584F8345050
:10111000022084F835002068016821F00101016097
:101120000DE00120BDE8F08100F0CAFA801B05281F
:1011300005D920206065032084F83500F2E7206897
:101140000068C007F0D12268116820480140D4E946
:1011500001031843D4E90336334318436369184342
:10116000A3691843E3691843236A18430843616A73
:10117000042903D1D4E90B131943084310602068F4
:101180004069666A20F0070130460E4301270428B3
:101190000CD1A06A0643E06A40B12046FFF780FB0D
:1011A00020B14020606584F83570BAE72068466158
:1011B0002046FFF761FB94F85C203F21914081605D
:1011C000656584F835700020ACE700003F8010F0C2
:1011D00070B5044600F074FA0546601C02D004485D
:1011E0000078044400F06CFA401BA042FAD370BDB2
:1011F00024000020704700002DE9F0412F4F38688F
:101200002F4C10F4F97F4FF0FF384FF000050DD050
:10121000207801282ED0207802282FD0D4F814600E
:10122000FFF7C4FB304600F04DF825703868C00762
:101230000BD0012038602078012821D020780228A6
:1012400038D06069FFF7D6FF2570207800280FD1CD
:101250001A48001D016848F2FF02914301600168CD
:1012600021F080710160016821F000710160257634
:10127000BDE8F081E668C4F80C80D1E72669CFE7C5
:101280006068401E6060606850B1E068FFF7B2FFC0
:10129000E068401CE060E068217AFFF731FBD4E7AA
:1012A0004646C4F80C802570FFF754FB3046FFF724
:1012B000A1FFCAE7FFF74EFB2069C3E70C3C0240E1
:1012C0005808002070470000F0B587B01421684628
:1012D000FFF738F82948016800294CD10121016045
:1012E00027480024016841F00101016000680225DF
:1012F00000F0010005904FF63F00CDE9000502AA7D
:1013000003260C2782E8D00069461E4800F0B6F894
:101310000D20CDE9000502AA694682E8D0001A48EE
:1013200000F0ACF848F23710CDE9000502AA694692
:1013300082E8D000154800F0A1F84FF68370CDE99F
:10134000000502AA694682E8D000114800F096F82C
:101350004CF20370CDE9000502AA694682E8D0008C
:101360000C4800F08BF800220521302000F032FC00
:10137000302000F021FC07B0F0BD00001C00002070
:1013800038380240001402400008024000180240B1
:1013900000100240000C02402DE9F04100248AB008
:1013A00025468DF81C408DF82440082852D148F27B
:1013B0004E16012207A93046FFF71AFC9DF81C10B3
:1013C00008060AD501F00F00062806D28DF8245031
:1013D000012209A93046FFF73BFC9DF81C001F4D78
:1013E00001072DD000F00F00062829D26E4603AF6A
:1013F000DFF86C8018E000BF38F81400042208A958
:10140000FFF7F6FB9DF820009DF8211000EB01206E
:1014100026F814009DF822009DF8231000EB01200F
:1014200027F81400641CE4B29DF81C0000F00F00C3
:10143000A042E1D8BDF800002880BDF80C0068800B
:101440009DF81C0000F08F00802803D14FF6FF703C
:10145000288068800AB0BDE8F0810000000000200C
:1014600096BA0008044910B50A68024202D0086022
:10147000FFF792FF10BD0000143C01402DE9F84F2A
:10148000DFF8F4A1002201240AF1040B03254FF038
:101490000F090BF1040E00BF0B6804FA02F633408B
:1014A000B3426FD10F7907F00307012F01D0022F4C
:1014B00016D187684FEA420805FA08FC27EA0C07AC
:1014C000D1F80CC00CFA08FC4CEA070CC0F808C0B4
:1014D0004768B7430E79C6F3001696403E43466010
:1014E0000E79F643B6070AD0C7684FEA420C05FAF0
:1014F0000CF6B7438E6806FA0CF63E43C6600E79CA
:1015000006F00306022E10D1D60800EB8608D8F8A4
:10151000206057074FEAD76C09FA0CF7BE430F69F2
:1015200007FA0CF73743C8F8207006684FEA420CF8
:1015300005FA0CF7BE430F7907F0030707FA0CF71B
:10154000374307604E68F6001CD54C4E376847F4A9
:1015500080473760366822F0030706F4804600961D
:10156000474E07EB060CDCF8086897073F0F09FAAF
:1015700007F826EA0806DFF80C81404503D14FF052
:10158000000841E072E0DFF80081404502D14FF0F1
:10159000010839E0DFF8F480404502D14FF002083D
:1015A00032E0DFF8EC80404502D14FF003082BE039
:1015B000DFF8E080404502D14FF0040824E0DFF876
:1015C000D880404502D14FF005081DE0DFF8CC80FF
:1015D000404502D14FF0060816E0DFF8C4804045D0
:1015E00002D14FF007080FE0DFF8B880404502D184
:1015F0004FF0080808E0DFF8B080404502D14FF016
:10160000090801E04FF00A0808FA07F848EA060856
:10161000CCF80888DAF800605746D1F804C09E4339
:101620005FEACC3C00D51E433E60DBF800605F46BD
:10163000D1F804C09E435FEA8C3C00D51E433E6057
:10164000DEF800607746D1F804C09E435FEACC2CF8
:1016500000D51E433E60084F0C373E68D1F804C0E9
:101660009E435FEA8C2C00D51E433E60521C102A1C
:10167000FFF412AFBDE8F88F003C0140443802404F
:101680000030014000000240000402400008024017
:10169000000C0240001002400014024000180240FA
:1016A000001C024000200240002402400069084063
:1016B00000D0012070470AB1816170470904FBE73F
:1016C00001488068704700002400002002488168BB
:1016D0000278114481607047240000200B4810B547
:1016E000016841F400710160016841F480610160AA
:1016F000016841F480710160032000F08BFA002042
:1017000000F006F800F01AFA002010BD003C02407C
:1017100010B5014688B00022192000F05BFA1920AC
:1017200000F04AFA13480024016841F00101016009
:10173000006805A900F001000690684600F088FCEA
:1017400000F0B6FC0C494000B0FBF1F10C480B4A2C
:10175000491E026040F2E732C0E90324C0E90114E7
:1017600001F018F810B1012008B010BD044801F0D4
:1017700053F8F9E74438024040420F0000000140AE
:10178000100800202DE9F041044690F8A00016460C
:101790000F4601281DD0012584F8A050022084F8AE
:1017A000A10006EB860000EBC60004EB80003422AB
:1017B0003830FEF7AEFD32463946204601F0FAFBDE
:1017C0002068456284F8A150002084F8A000BDE89C
:1017D000F0810220FBE770472DE9F04104460068E4
:1017E000856B466B69074FF004084FF0000715D56D
:1017F000710713D5416B21F0040141632168C1F8E1
:101800003C80D4F8A41041F00101C4F8A41084F87D
:10181000A18084F8A0702046FFF7DDFFA80716D549
:10182000B00714D52068416B21F0020141632168A3
:101830000220C863D4F8A40040F00200C4F8A40059
:1018400084F8A18084F8A0702046FFF7C4FF05EA61
:101850000600C0074FF001080ED02068416B21F050
:10186000010141632168C1F83C8084F8A18084F8BB
:10187000A070204600F090F8280710D530070ED54C
:101880002068416B21F00801416321680820C8638A
:1018900084F8A18084F8A070204600F04DF9BDE8DE
:1018A000F081000070B5040004D094F8A100002578
:1018B00010B106E0012070BD84F8A050204600F071
:1018C00097F8022084F8A1002068816921F0704116
:1018D0008161D4E901010843D4E9031211430843AB
:1018E00021688A691043886121688A682948024012
:1018F0008A60A18A0A0421688B68A669334313436E
:101900008B602168CA680240CA60A18B0B04216801
:10191000CA68266A32431A43CA6021680A690240CB
:101920000A61A18C22680B041169A66A314319432C
:10193000116121684A6902404A61A08D0104206852
:101940004269236B1A430A43426194F835002168C7
:10195000020294F83600CB6A03F07F43CB62216821
:10196000CB6A94F8346042EA004033430343CB62CD
:101970002068416B41F0060141632068816941F0B4
:1019800001018161C4F8A450012084F8A100002065
:1019900070BD000000F800F0124910B50B68124A43
:1019A000124C11888B4211D1518800F0A3F82068A5
:1019B00010F8661F491C017002F0BAFD206804F09F
:1019C00049FBBDE81040002004F04ABF00F092F847
:1019D000002004F046FF20680168096ABDE8104055
:1019E0000847000040680140C400002004020020B5
:1019F00070B586B0044614216846FEF7A3FC37494B
:101A00002068884268D136480024016841F080612E
:101A10000160006800F0806005903148143801686A
:101A200041F480710160016801F4807105910168E1
:101A300041F020010160016801F020010591016879
:101A400041F080010160016801F0800105910168A9
:101A500041F0400101600068022500F0400005905F
:101A600040F2F7600090CDE901540E26CDE903461F
:101A700069461C48FFF702FD68020090CDE9015459
:101A8000CDE9034669461848FFF7F8FC4FF47E405D
:101A90000090CDE90154CDE9034669461348FFF7AC
:101AA000EDFC4FF40C600090CDE90154CDE9034604
:101AB00069460F48FFF7E2FC00220621582000F09B
:101AC00089F8582000F078F800220621592000F00B
:101AD00081F8592000F070F806B070BD0068014030
:101AE000443802400020024000140240001C024022
:101AF0000018024010B590F8A020012A17D001224A
:101B000000F8A02F0223437050F8A03C5C6B24F037
:101B100001045C63074B196050F8A01C4B6B43F049
:101B200001034B63427000210170084610BD022082
:101B300010BD000040680140704700001D4808B516
:101B4000016841F480410160006800F48040009029
:101B50001848001F016841F08051016000680022B0
:101B600000F0805000900F21901E00F033F800220A
:101B70000521012000F02EF8012000F01DF80022C0
:101B80000521042000F026F8042000F015F80521B6
:101B90000022084600F01EF8052000F00DF8002293
:101BA0000521512000F016F8BDE80840512000F052
:101BB00003B8000044380240002809DB00F01F028F
:101BC000012191404009800000F1E020C0F800119F
:101BD00070470000F0B40E4B1B680C46C3F30223A1
:101BE000C3F10705042D00D90425191D072901D2C9
:101BF000002300E0DB1E012606FA05F1491E214004
:101C000099409E40761E16403143F0BC08F0BBB8A8
:101C10000CED00E0064900F0070208684FF6FF03EC
:101C2000184040EA0220034A104308607047000051
:101C30000CED00E00000FA052DE9F84317480168B3
:101C400041F0805101600068154F00F0805001267E
:101C500000903E64FFF734FD05464FF47A78114C4E
:101C600005E000BFFFF72CFD401B40450DD8606824
:101C7000C003F7D57E64FFF723FD0546464607E01F
:101C8000FFF71EFD401BB04202D90320BDE8F883D8
:101C900060688003F4D50020F8E700004038024077
:101CA00000000E42007000407047000010B5054C67
:101CB0002068C00304D5FFF7F7FF4FF480302060A1
:101CC00010BD0000143C01402DE9F84F04460068A7
:101CD000DFF824A2894F8A4DC1074FF001084FF069
:101CE000000603D1810701D4400648D5CAF86860D0
:101CF000FFF7E6FC814605E0FFF7E2FCA0EB0900F8
:101D000002287DD828680001F6D42078C1077D48D4
:101D100005D06168227A890141EA02710160217867
:101D2000890711D501686268237B9201C1F30271B2
:101D300042EA036242EA017101603968E26921F016
:101D40001F01521E114339602178490608D5616888
:101D5000227B890141EA0261227A41EA0271016033
:101D6000CAF86880FFF7ACFC814605E0FFF7A8FCE5
:101D7000A0EB0900022843D828680001F6D52068A6
:101D8000410701D400074ED5CAF87060FFF798FCF0
:101D9000814605E0FFF794FCA0EB090002282FD84C
:101DA0002868C0438000F5D520784107564814D5EF
:101DB00001682269237D9201C1F3027142EA036244
:101DC00042EA017101603968226A6FF0FF0321F471
:101DD000F85103EB0222114339602178090712D52B
:101DE00001682269C1F30361920142EA0161227E26
:101DF00041EA027101603868616A20F4403000E015
:101E000051E008433860CAF87080FFF759FC074674
:101E100005E000BFFFF754FCC01B022843D8286828
:101E2000C0438000F6D42078800653D53448403033
:101E3000016841F0805101600068344D00F080502D
:101E40000090286840F480702860FFF739FC07464E
:101E500005E000BFFFF734FCC01B022823D8286828
:101E6000C005F7D5274D143D286810F4407020D0E8
:101E7000218D01F4407181421BD0286820F440710B
:101E80002348C0F80080066029602868C00710D089
:101E9000FFF716FC064641F2883707E0FFF710FC13
:101EA000801BB84202D90320BDE8F88F286880075C
:101EB000F4D5A16A1248C1F301220830032A13D0D5
:101EC000016821F4F81101602868218DC1F30B012C
:101ED000084328602078C00604D50E4994F82C00E9
:101EE000C1F8E0010020DFE702680B4B22F4F81292
:101EF00019400A430260E7E7000047428C3802407D
:101F000000380240843802408838024000700040A7
:101F1000400E474200104742FFFCFF0F2DE9F047FB
:101F20000E46050065D0DFF81481D8F80000F7B23E
:101F300000F00F00B04207D288F80070D8F8000017
:101F400000F00F00B04254D128683D4C810712D5F3
:101F5000400703D5206840F4E0502060287800074F
:101F600003D5206840F4604020602068A96820F014
:101F7000F000084320602878C0072DD030496868F9
:101F80000839012812D0022813D0032811D009687B
:101F9000890700292DDA216821F00301014321601E
:101FA000FFF78EFB814641F2883A0EE0096889030B
:101FB000EFE709688901ECE7FFF782FBA0EB090175
:101FC000514502D90320BDE8F0872068696800F018
:101FD0000C00B0EB810FEFD1D8F80010404601F0B3
:101FE0000F01B14207D90770006800F00F00B0423E
:101FF00001D00120E7E72878400705D52068E96887
:1020000020F4E050084320602878000706D52068B7
:10201000296920F4604040EAC100206000F058F8CF
:102020002168084AC1F30311515CC84006490860A1
:1020300006480068FFF76CFB0020C4E7003C024044
:1020400008380240D0BB00083000002028000020E3
:102050000F2202600C4A136803F003034360136805
:1020600003F0F0038360136803F4E053C360126865
:102070004FF4E05303EAD20202610448006800F022
:102080000F0008607047000008380240003C024022
:102090000448054900680968044AC1F38221515C7B
:1020A000C84070473000002008380240E0BB0008FC
:1020B0000448054900680968044AC1F34231515C8B
:1020C000C84070473000002008380240E0BB0008DC
:1020D000154810B5006810F00C02144813D01449CC
:1020E000042A0FD0082A0ED10F4C241F226823681F
:1020F00002F03F025B0207D52068C0F38810A0FB06
:10210000010106E0084610BD2168C1F38811A1FB5A
:1021100000010023FEF7CCF82168C1F30141491CFE
:102120004900B0FBF1F010BD083802400024F40073
:1021300040787D012DE9F84F04006ED02078DFF85B
:102140004C93C007A9F104054AD009F104000168C5
:10215000C1F38101012908D00068C0F38100022881
:102160000AD1D9F80000400206D52868800337D587
:1021700060680028E1D033E06068B0F5803F10D09F
:10218000B0F5A02F286810D020F48030286028688F
:1021900020F4802028606068A8B1FFF791FA064615
:1021A0000DE0286840F48030F4E740F48020286097
:1021B000F7E700BFFFF784FA801B642873D828680C
:1021C0008003F7D50CE0FFF77BFA064605E000BF79
:1021D000FFF776FA801B6428F0D828688003F7D4CC
:1021E0002078DFF8AC8280074FF0000A3ED5A74880
:1021F000001D016811F00C0F08D00068C0F38100C9
:1022000002280BD1D9F80000400207D428688007C3
:1022100016D5E068012800D112E033E1E068B8B1DA
:102220000120C8F80000FFF74BFA064605E000BFA2
:10223000FFF746FA801B0228C0D828688007F7D528
:102240002868216920F0F80040EAC10028600DE00C
:10225000C8F800A0FFF734FA064604E0FFF730FAAA
:10226000801B02281FD828688007F7D42078000731
:1022700022D5864F87486169703771B101210160AD
:10228000FFF71EFA064604E0FFF71AFA801B022841
:1022900009D838688007F7D50EE0C0F800A0FFF72E
:1022A0000FFA064605E082E0FFF70AFA801B0228D3
:1022B0007DD838688007F7D42078400768D5DFF8E4
:1022C000CCB100270BF13C0BDBF80000C0000BD4B5
:1022D000DBF8001041F08051CBF80010DBF8000073
:1022E000012700F0805000906B4E3068C00510D47C
:1022F000306840F480703060FFF7E2F9009005E04C
:10230000FFF7DEF90099401A022850D83068C0055E
:10231000F6D55E4EA0686C3601280FD005283068CF
:1023200010D020F001003060306820F004003060F0
:10233000A068B8B1FFF7C4F900900FE0306840F032
:102340000100F4E740F004003060F7E7FFF7B8F968
:102350000099411A41F28830814266D8306880077E
:10236000F4D50EE0FFF7ACF9009007E0FFF7A8F90D
:102370000099411A41F28830814256D8306880076E
:10238000F4D42FB1DBF8001021F08051CBF800100D
:10239000A069C8B33D49091D0968C1F3810102293B
:1023A0004AD00228504607D0C8F8600000E03CE060
:1023B000FFF786F904463BE04746C8F86000FFF7A0
:1023C0007FF9064605E000BFFFF77AF9801B022877
:1023D0002BD828688001F7D4D4E907010843A16A03
:1023E0002E4A490802EB0141626A41EA8211084320
:1023F00094F82C1040EA0161C9F8001001203866F9
:10240000FFF75EF9044606E03EE000BFFFF758F92B
:10241000001B022809D828688001F7D534E000BFE6
:10242000FFF74EF9001B022802D90320BDE8F88F00
:1024300028688001F4D427E00128F7D0D9F80000FB
:10244000E26900F4800191421CD1226A00F03F0150
:10245000914217D147F6C071626A0140B1EB821F09
:1024600010D1A26A4FF0FF3300F4403103EB520267
:10247000B1EB024F06D194F82C1000F07060B0EB75
:10248000016F01D00120D1E70020CFE704380240DE
:1024900000004742800E4742007000400000FFFFEE
:1024A00010B5044600688069C00707D0204600F0D8
:1024B0003AF82068416941F00101416110BD70B5F1
:1024C0000D46040003D094F82C0010B107E0012061
:1024D00070BD002084F82D00204600F011F8022085
:1024E00084F82C00211D2068FEF7A4FAD4E900022C
:1024F0002946FEF7F1FA012084F82C00002070BD77
:10250000FEF7E2BE10B5044690F82C00022809D070
:10251000022084F82C002068FEF7B4FA012084F829
:102520002C00002010BD704770B5044690F82C00B8
:102530000D4602280DD0022084F82C002068FEF7FA
:10254000A7FA2868022805D05FF0010084F82C0063
:10255000002070BD0520F9E77047000038B501681C
:1025600004464A688868C043430606D5C30704D1B9
:10257000D3435B0601D4216C05E0830708D4D34321
:102580001B0605D4616C01B02046BDE83040084709
:10259000830603D5430601D5C30551D4D3439B0617
:1025A0004ED443060AD494F85130032B49D0636DBE
:1025B00043F004036365CB688B680093830609D4FA
:1025C000636D43F0010363658B6800930B6823F030
:1025D00040030B60C00506D4606D40F008006065E4
:1025E000206880680090606D002829D020684168CC
:1025F00021F0E0014160012084F85100900701D4EE
:10260000D00722D02068416821F003014160114DBC
:10261000E06C40B10565E06CFEF78DFC18B1606DB3
:1026200040F040006065A06C002809D00565A06CF2
:10263000FEF781FC002803D0606D40F0400060652B
:1026400038BDC8688868009038BD2046FFF784FF11
:1026500038BD00005137000870B5040009D0606A29
:10266000002540B125616561A56294F8510040B133
:102670000CE0012070BD6068B0F5827FF4D0E561A8
:10268000F2E784F85050204600F044F8022084F825
:1026900051002068016821F040010160A088218973
:1026A00000F4827001F404410843A18901F400613F
:1026B0000843217C01F002010843217D01F0010162
:1026C0000843218B01F400710843217F01F0380198
:1026D000084394F8201001F080010843218D01F493
:1026E0000051084321680860A069042101EA1040F4
:1026F00094F8241001F01001084321684860206814
:10270000C16921F40061C1616565012084F851004F
:10271000002070BD10B586B0044614216846FDF750
:1027200011FE18492068884229D117480021026803
:1027300042F480120260006800F480100590124894
:102740001438026842F020020260006800F02000A5
:1027500005904FF4607000900220CDE90101032044
:1027600003900520049069460848FEF787FE002282
:1027700005215520FFF72EFA5520FFF71DFA06B068
:1027800010BD0000005001404438024000140240D7
:102790007047704710B5040003D094F83D0010B1A5
:1027A00007E0012010BD002084F83C00204600F026
:1027B0001FF8022084F83D00211D206801F066F812
:1027C000012084F8460084F83E0084F83F0084F835
:1027D000400084F8410084F8420084F8430084F803
:1027E000440084F8450084F83D00002010BD00003E
:1027F00008B500680649884208D10648016841F4D6
:1028000080710160006800F48070009008BD0000D5
:10281000002000404038024090F83D10012901D0CE
:1028200001207047022180F83D100168CA6842F01B
:102830000102CA6000681149884214D0B0F1804F8B
:1028400011D00F4988420ED00E4988420BD00E4954
:10285000884208D00D49884205D00D49884202D0EF
:102860000C49884204D1816801F00701062903D090
:10287000016841F001010160002070470000014043
:102880000004004000080040000C0040000401402B
:102890000040014000180040704770B504460068D1
:1028A00001694FF00005C943890715D4C168C943C0
:1028B000890711D4E91E0161012020772068806911
:1028C0008007204602D0FFF7E7FF04E000F098F809
:1028D000204600F096F8257720680169C94349072A
:1028E00017D4C168C943490713D46FF004010161CB
:1028F000022020772068806910F4407F204602D0B3
:10290000FFF7CAFF04E000F07BF8204600F079F8FA
:10291000257720680169C943090716D4C168C943EE
:10292000090712D46FF008010161042020772068A4
:10293000C0698007204602D0FFF7AEFF04E000F038
:102940005FF8204600F05DF8257720680169C943EB
:10295000C90617D4C168C943C90613D46FF0100162
:102960000161082020772068C06910F4407F20466C
:1029700002D0FFF791FF04E000F042F8204600F09B
:1029800040F8257720680169C943C90708D1C168A3
:10299000C943C90704D1891E0161204600F032F8FD
:1029A00020680169C943090609D4C168C9430906F9
:1029B00005D46FF0800101612046FFF7E9FE206831
:1029C0000169C943490609D4C168C943490605D408
:1029D0006FF040010161204600F01EF82068016997
:1029E000C94389060BD4C168C943890607D46FF06F
:1029F000200101612046BDE87040FFF7CABE70BDEE
:102A00007047704700680349884201D1FEF75EBEF7
:102A10007047000000000140704770477047000099
:102A2000F8B5026804461068D168536910F00F0FBA
:102A30004FF0000553D003F0010601F490773743BF
:102A40005FD0C20705D0CA0503D5226C42F001024F
:102A50002264420705D5DA0703D0226C42F0020255
:102A60002264820705D5DA0703D0226C42F0040203
:102A70002264020707D501F02002324303D0226C02
:102A800042F008022264226C002A34D0800604D569
:102A9000880602D5204600F08FFF20684069216C2F
:102AA000C0F38010090700D430B3204600F06CFF5B
:102AB0002068416949061BD5416921F04001416107
:102AC000A06BA8B159490165A06BFEF734FA002844
:102AD00011D0A06B016D01B0BDE8F040084783063E
:102AE0000FD58B060DD52046BDE8F84000F064BF39
:102AF0002046FFF793FFF8BD2046FFF78FFF2564C0
:102B0000F8BD266B2023012E53D1C60651D5CE0623
:102B10004FD5106850680090506940062BD5A16BC6
:102B2000086840680004000CEAD0A68D8642E7D908
:102B3000E085C869B0F5807F18D0D06820F4807037
:102B4000D0602068416921F001014161206841693C
:102B500021F04001416184F83E3025632068C1685E
:102B600021F01001C160A06BFEF79EF9A08DE18DF0
:102B7000401A81B219E0A08DE18D401A81B2E08D3A
:102B80000028BDD00029BBD0D06820F49070D06060
:102B90002068426922F00102426184F83E302563D8
:102BA0002068C26822F01002C2602046FFF735FF9D
:102BB000F8BD05062BD50D0629D594F83D00212832
:102BC000F6D1A068B0F5805F01D12069B0B1206A6C
:102BD000411C2162216800784860E08C401E00049E
:102BE000000CE084E4D12068C16821F08001C1605C
:102BF0002068C16841F04001C160F8BD206A0088CA
:102C0000C0F308005060206A801C2062E5E740069F
:102C1000F3D54806F1D5D168204621F04001D160B6
:102C200084F83D3000F0B7F9F8BD000079390008AC
:102C300070B5040004D094F83D00002510B106E002
:102C4000012070BD84F83C50204600F023F8242079
:102C500084F83D002068C16821F40051C16020461D
:102C600000F002FF2068016921F4904101612068B1
:102C7000416921F02A0141612068C16841F4005195
:102C8000C1602564202084F83D0084F83E000020C7
:102C900070BD00002DE9F04F87B00646142168464C
:102CA000FDF750FB8248814B32680024804914387C
:102CB00007254FF002094FF003089A4221D10A6814
:102CC00042F010020A60096801F0100105910168E4
:102CD00041F0010101600068CDE9024800F0010007
:102CE00005904FF4C060CDE900096946049571482C
:102CF000FEF7C4FB002206212520FEF76BFF2520EE
:102D000037E06D4BDFF8A8C10127ACF1040C4FF0A0
:102D1000400B9A4232D1DCF8002042F40032CCF869
:102D20000020DCF8001001F400310591016841F049
:102D3000080101600068CDE9024800F00800059034
:102D40002020CDE900095D4C694604952046FEF738
:102D500095FBCDF800B0CDE90385CDE90197694633
:102D60002046FEF78BFB002206212620FEF732FFCD
:102D70002620FEF721FF07B0BDE8F08F504B4FF43F
:102D8000806A9A4245D1DCF8002042F48022CCF8D7
:102D90000020DCF8001001F480210591016841F069
:102DA000020101600068DFF81CB100F00200CDE90B
:102DB0000450CDE90248CDE900A969465846FEF71E
:102DC0005DFB4FF40060CDE900090297CDE9038572
:102DD00069465846FEF752FB3C4D3B4828604FF091
:102DE0000060C5E90104C5E9034A6C61AC61EC61AE
:102DF0002C6228466C62FEF781F908B1FDF77EFD72
:102E0000B563002206212720AE63FEF7E3FE2720EC
:102E1000AFE72F4B9A42AED10A6842F020020A6017
:102E2000096801F020010591016841F00401016089
:102E3000016801F004010591016841F04001016061
:102E40000068082500F04000CDE90450CDE90248B3
:102E5000CDE900B969461F48FEF710FBA801CDE98E
:102E600000090297CDE9038569461B48FEF706FB7A
:102E7000164D1A48603528608005C5E90104C5E98A
:102E8000034A6C61AC61EC612C6228466C62FEF70F
:102E900035F908B1FDF732FDB56300220621472060
:102EA000AE63FEF797FE472063E700000010014085
:102EB000443802400000024000440040000C024040
:102EC00000480040000402402860024050070020F3
:102ED000001401400008024000180240286402402B
:102EE000704700002DE9F843044690F83D001F4666
:102EF00016460D4620284CD1C5B1BEB194F83C0011
:102F0000012846D0012084F83C004FF00008C4F8A6
:102F10004080212084F83D00FEF7D2FBA684814644
:102F2000E684A068B0F5805F03D004E00120BDE82E
:102F3000F883206928B12E465FF0000584F83C80B4
:102F40000EE00026FAE78021204600F013FEA0B92B
:102F5000AEB116F8010B21684860E08C401EE08499
:102F6000E08C4B464FF0000200970028EBD14FF069
:102F70004001204600F0FEFD30B10320D7E735F8D0
:102F8000020BC0F30800E6E7202084F83D00002093
:102F9000CDE70220CBE77047FEE700000148FEF7CF
:102FA0001BBC0000F80400200148FEF715BC00001F
:102FB000F8040020F0B503688C88DD68C5F30B4584
:102FC0002C442504882404EBC2141E5906F47046D0
:102FD0001E5103680F68DE68C6F30B46761C3E443C
:102FE0002E431E5104688B89E568C5F30A052B44FE
:102FF0001D048C2303EBC213E65806F47046E6501A
:1030000004688F68E668C6F30A06761C3E442E43C1
:10301000E6509423046803EBC213E55825F0070536
:10302000E55005680C69EC5091F831300C7E1F02B8
:1030300026069C24056804EBC21491F8323055F83A
:1030400004C04FF0000C45F804C091F8305046EA37
:1030500003433D431D4303681D519823046803EB5C
:10306000C213E55825F0FF05E55005684C69EC50A2
:10307000A023046803EBC213E55840F20776B5437A
:10308000E550D1E907452C430568EC50AC230468B2
:1030900003EBC213E55844F803C005684C6AEC50D2
:1030A0000B698BB3012B32D0042B32D0022B30D0E2
:1030B000032B2ED0072B2CD00123B024056804EB62
:1030C000C2142E5906F0E0262E51D1E90065AD1B41
:1030D0000E8D5D435E43ED1C45EA064305682B51AA
:1030E000B423046803EBC213E5586FF30A05E550F7
:1030F0000468C96AE1500068842101EBC21142589A
:1031000042F001024250F0BDFFE70423D5E703235C
:10311000D3E70223D1E70000074910B5054808604E
:103120000846FDF7C0FD002803D0BDE81040FDF7BC
:10313000E5BB10BD00300240140000200A4810B565
:10314000084901604FF44031416002218160002153
:10315000C160FDF75DFE002803D0BDE81040FDF71B
:10316000CDBB10BD00B0024084040020114808B55A
:10317000016841F400110160016801F4001100913F
:10318000016841F4800101600068002200F48000C1
:10319000009005210C20FEF71DFD0C20FEF70CFD14
:1031A000002204213920FEF715FDBDE80840392032
:1031B000FEF702BD3038024000B587B01C216846DA
:1031C000FDF7C0F8164815490022C0E90012012198
:1031D000816008211023C0E90313402343614FF4A9
:1031E000C073C0E906320A0202624A0242628A02DF
:1031F00082620220CDE9000106210291039104219F
:10320000CDE90410069069460548FFF758F908B162
:10321000FDF774FB00F0A0F907B000BD400100A06D
:10322000C404002010B58EB01C220B496846FDF77F
:1032300070F80021684607F0EFF8084C06491C2298
:1032400020601C3107A8FDF764F8002107A807F0EB
:10325000E3F860600EB010BD90BB00080C000020C9
:103260002DE9F04F87B014216846FDF76BF88448CC
:103270000025016841F480710160016801F48071EA
:103280000591016841F004010160016801F0040149
:103290000591016841F020010160016801F0200101
:1032A0000591016841F080010160016801F0800131
:1032B0000591016841F001010160016801F001011F
:1032C0000591016841F040010160016801F0400191
:1032D0000591016841F010010160016801F01001E1
:1032E0000591016841F002010160016801F00201ED
:1032F0000591016841F0080101600068DFF88481F0
:1033000000F008004FF484740590012221464046E5
:10331000FEF7D1F9DFF870914FF46047012239468A
:103320004846FEF7C8F9DFF864A100224021504664
:10333000FEF7C1F9DFF858B101224FF4C3715846C6
:10334000FEF7B9F9012244215248FEF7B4F90022F0
:1033500020214846FEF7AFF9012239464E48FEF7D4
:10336000AAF90122D60231464C48FEF7A4F9002200
:1033700043F208014948FEF79EF90094012469468A
:1033800040460194CDE90245FEF778F8CDE9007496
:1033900069464846CDE90245FEF770F80096CDE94A
:1033A000015469464046FEF769F84020CDE9000423
:1033B0000226CDE9024669465046FEF75FF80096C0
:1033C000CDE9015469464846FEF758F8CDE9006456
:1033D000CDE9024669465846FEF750F84FF4C270F0
:1033E000CDE9000469465846CDE90245FEF746F8A6
:1033F0004420CDE9000469462648CDE90245FEF7A0
:103400003DF8082000902648CDE90105694621488D
:10341000FEF734F8202003958DE8510069464846B0
:10342000FEF72CF84FF4C070CDE900056946029410
:103430001848FEF723F8CDE9007469461648CDE92F
:103440000245FEF71BF843F60800CDE90004694683
:103450001248CDE90245FEF711F8A003CDE90005B9
:10346000694602940F48FEF709F800220521092059
:10347000FEF7B0FB0920FEF79FFB07B0BDE8F08F19
:103480003038024000200240000802400014024090
:1034900000000240001C024000040240000C0240F8
:1034A000000011100018024030B58DB0342168467C
:1034B000FCF748FF274826490024C0E9001484602F
:1034C0002F21C460C0E9044102258721C0E90651CB
:1034D0002221016240F2A731416240F20221816261
:1034E00040F2CF31C16240F20F21016380F83440D5
:1034F00080F8354080F83640FEF7D4F908B1FDF782
:10350000FDF94FF448704FF4F071CDE90040CDE97A
:103510000241FF220495CDE905244FF48062079211
:10352000052208924A06CDE90A018DF83040099239
:103530008DF831408DF83240002269460548FEF78B
:1035400021F9002801D0FDF7D9F90DB030BD0000F8
:1035500000680140F8040020F0B585B00125002482
:103560001026CDE90056CDE902542F0304943A46C3
:1035700069461748FEF7D8FF0A20FDF729FE02200A
:10358000CDE90006CDE902543A4669461048FEF7F7
:10359000CBFF0320CDE900060820CDE902043A461E
:1035A00069460B48FEF7C0FF4FF40C700421CDE9CB
:1035B0000016CDE9025004903A4669460448FEF7E9
:1035C000B3FF40F26A510248FEF79CFF05B0F0BD20
:1035D000C4040020104810B50E4901604FF48271F8
:1035E0004160002102228160C0E903120122426190
:1035F000520282613822C0E90721416281620A21B8
:10360000C162FFF729F8002803D0BDE81040FDF79C
:1036100075B910BD00500140A00500200B4810B541
:103620000949016000214FF6FF724160C0E90212B2
:1036300001618161FFF7AEF8002803D0BDE81040BA
:10364000FDF75CB910BD000000200040F805002027
:1036500007F0DCB907F016BA0C4810B50A4901604A
:103660004FF4E1314160002181600C22C160C0E96A
:1036700004128161C161FFF7DBFA002803D0BDE8C5
:103680001040FDF73BB910BD00100140400600207E
:103690000C4810B50A4901604FF4165141600021F1
:1036A00081600C22C160C0E904128161C161FFF731
:1036B000BFFA002803D0BDE81040FDF71FB910BDC8
:1036C00000440040840600200C4810B50A490160FF
:1036D0004FF4E1314160002181600C22C160C0E9FA
:1036E00004128161C161FFF7A3FA002803D0BDE88D
:1036F0001040FDF703B910BD00480040C806002087
:103700000C4810B50A4901604FF416514160002180
:1037100081600C22C160C0E904128161C161FFF7C0
:1037200087FA002803D0BDE81040FDF7E7B810BDC8
:10373000001401400C070020FEE7FEE7FEF7B6BAD2
:10374000704700000148FEF709BF0000A0050020F7
:1037500010B5806B0021C187C186FEF7FDFE10BD4C
:10376000FFF778FF642006F0D1FDFBE74FF47A7491
:1037700003A006F0F3FA204606F0C8FDF8E70000C3
:1037800068656C6C6F0D0A0010B5502080F31188CD
:10379000BFF34F8FBFF36F8F07F02EFF18B10449AF
:1037A0004FF080500860002080F3118810BD0000A9
:1037B00004ED00E070B59EB030216846FCF7C2FD14
:1037C000142118A8FCF7BEFD30210CA8FCF7BAFDA7
:1037D00025480024016841F080510160006800F034
:1037E00080501D902148016841F44041016000680B
:1037F000022500F440401D90012003901020CDE9E7
:1038000006540826049000950896B420CDE90905D1
:1038100004200B906846FEF78DFC08B172B6FEE7F7
:10382000FEF70AFA08B172B6FEE70F20CDE91805D7
:103830004FF4A050CDE91A404FF480501C90052160
:1038400018A8FEF76BFB08B172B6FEE7322015949C
:1038500010900C9612950CA8FEF736FA002801D0AD
:1038600072B6FEE71EB070BD4038024000700040E6
:103870000248016841F470010160704788ED00E082
:103880000148FFF70AB8000010080020F0B50268F0
:10389000254C264D264E274F274B4FF0804CA042FB
:1038A00009D0604507D0A84205D0B04203D0B84245
:1038B00001D0984204D122F0700E4A6842EA0E020A
:1038C000A0421BD0604519D0A84217D0B04215D0F5
:1038D000B84213D0984211D0184DA8420ED0184DBE
:1038E000A8420BD0174DA84208D0174DA84205D0CA
:1038F000164DA84202D0164DA84203D122F44075BD
:10390000CA682A434D6922F080022A4302608A680D
:10391000C2620A688262A04201D0984201D109695C
:10392000016301214161F0BD00000140000400403D
:1039300000080040000C004000040140004001402D
:10394000004401400048014000180040001C0040B5
:1039500000200040074A10B514884FF6FF735288C4
:103960009C4201D19A4203D0046001200A6010BD3C
:10397000002010BD0000002010B5806B0021C18523
:10398000C184FFF74BF810BD0168CA6822F4907239
:10399000CA6001684A6922F001024A61016B01298B
:1039A00004D10168CA6822F01002CA60202180F8A0
:1039B0003E1000210163704710B5044690F83E00A8
:1039C000222801D0022010BDA1684FF480529142FC
:1039D00001D1206920B1A06A91421BD049B10AE00F
:1039E0002168A06A4968C1F308010180A06A801CAF
:1039F00008E0216971B12168496801F07F01017017
:103A0000A06A401CA062E08D401E0004000CE0850E
:103A100003D01CE021684968F1E72068C16821F003
:103A20002001C1602068C16821F48071C1602068F4
:103A3000416921F001014161202084F83E00206BA2
:103A4000012806D02046FFF74BFA00202063002013
:103A500010BD2068C16821F01001C160A18D204611
:103A6000FEF7DBFFF1E7000070B50446006801696E
:103A7000E26821F44051114301612169A068E269C3
:103A800008436169114308432168CA6849F20C631D
:103A90009A430243CA6020684169A26921F44071D7
:103AA0001143416131492068884202D0304988423F
:103AB00002D1FEF7FDFA01E0FEF7EAFAE26900231F
:103AC000192164253226B2F5004F626828D0A0FB88
:103AD0000101930F9200FCF7EBFB0146B0FBF5F000
:103AE0006FF01802504301EB800006EB0010B0FBB2
:103AF000F5F000F0F002B1FBF5F002EB0012B1FBC3
:103B0000F5F06FF01803584301EB800006EB00104E
:103B1000B0FBF5F000F00F0021681044886070BD24
:103B2000A0FB010192185B41FCF7C2FB0146B0FB10
:103B3000F5F00201B1FBF5F06FF01803584301EB0B
:103B4000800006EBC000B0FBF5F000F0F80002EBDF
:103B50004002B1FBF5F0584301EB800006EBC000DA
:103B6000B0FBF5F000F00700D6E7000000100140C0
:103B7000001401402DE9F041984617460E460446D0
:103B8000069D1DE0681C1BD02DB1FDF799FDA0EB33
:103B90000800A84214D92068C16821F4D071C1601E
:103BA0002068416921F001014161202084F83D0035
:103BB00084F83E00002084F83C000320BDE8F0813A
:103BC0002068006836EA000004D00020B842D9D04E
:103BD0000020F3E70120F9E70148FEF721BF0000CC
:103BE000400600200148FEF71BBF000084060020AD
:103BF0000148FEF715BF0000C80600200148FEF787
:103C00000FBF00000C070020FEE7002809DB00F0D2
:103C10001F02012191404009800000F1E020C0F81E
:103C20000011704700280DDB00F01F0201219140B8
:103C30004009800000F1E020C0F88011BFF34F8FF1
:103C4000BFF36F8F70470907090E002804DB00F1EE
:103C5000E02080F80014704700F00F0000F1E02031
:103C600080F8141D70470000024800684068016831
:103C7000496908470402002000B515488BB0007858
:103C8000C00721D1124806F0A0F8E8B100203F217A
:103C9000CDE9071009900F490F4A0A90039004904C
:103CA000CDE905210422CDE90002012102910A4655
:103CB0000A230A490A4801F0D7FE0A4A0A49FCF7D2
:103CC0006BFB0348AFF300800BB0054800BD00005C
:103CD0009C000020A4A00208B0A0020874A0020862
:103CE0006845002000000008AD5A000800B51548DE
:103CF0008BB00078C00721D1124806F066F8E8B111
:103D000000203F21CDE9071009900F490F4A0A9082
:103D100003900490CDE905210422CDE900020121A0
:103D200002910A4614230A490A4801F09DFE0A4AF4
:103D30000A49FCF731FB0348AFF300800BB005489C
:103D400000BD0000A0000020A8A00208B4A0020846
:103D500084A002089045002000000008AD5A000829
:103D600000B515488BB00078C00721D1124806F085
:103D70002CF8E8B100203F21CDE9071009900F4948
:103D80000F4A0A9003900490CDE905210422CDE961
:103D90000002012102910A4628230A490A4801F03B
:103DA00063FE0A4A0A49FCF7F7FA0348AFF30080BA
:103DB0000BB0054800BD0000A4000020ACA0020824
:103DC000B8A0020894A00208B8450020000000082E
:103DD000AD5A00080E4808B5016841F400010160C1
:103DE000006800F40000009009482038016841F4A0
:103DF00000010160016821F40001016006490548E5
:103E0000086106494FF08060C1F8000108BD00005C
:103E100030380240693C00088404002008E000E0DB
:103E200040F26F30704700002DE9F0410C46074624
:103E3000497F00F01EF90646A17F384600F019F9C7
:103E40000546A17F384600F028F9618BA28A8A1ABC
:103E500053490A64628BA38AD21A8A61228BA38A8D
:103E6000D21A0A61486360694FEA304048642069A9
:103E7000C8636068C860D4F800C04A4A10274FF68B
:103E800010706FF0FF03BCF1400F69D006DCBCF18D
:103E9000040F2FD0BCF1200F06D161E0BCF5807F6C
:103EA0000ED0BCF5007F0ED0227F46EA026242F4BB
:103EB0000032CA61627F0B2A59D040F201206DE0C6
:103EC000207F394B02E0384B207F5B1E03EB006004
:103ED000C861A08900F4784300F4FC661B0243EA41
:103EE000461300F01F0043EAC00008624D622069DB
:103EF000486132E094F81CC046EA0C6646F400368D
:103F0000CE614D6225694D61657F0B2D25D1A46879
:103F1000251DCD62257815F0FF0503D0012D09D0B0
:103F2000AFF30080CD698543608803EB0020054333
:103F3000CD6108E0CD698543608803EB002005432F
:103F400045F01000C861C86940F02000C86100E079
:103F500000BFC8698006FBD48F600A60BDE8F081AD
:103F6000207F46EA006040F40030C861BEE7A268E6
:103F7000141DCC62CC698443508803EB00200443B9
:103F800044F01000C861C86940F02000C86100E03A
:103F900000BFC8698006FBD48F6004480860DDE775
:103FA00000B00240010202000A000200010201000A
:103FB00010B50C46897F00F070F8284948636269A3
:103FC0004FEA32424A642269CA63628BA38AD21AD8
:103FD0000A642268082A17D0C86100200861A07FFF
:103FE000C0B3A089237F00F47842120242EA036240
:103FF00000F4FC6342EA431200F01F0042EAC000F2
:1040000088631748086010BD628BA38AD21A8A6140
:10401000628BA38AD21A0A614862207F114A02EB9E
:104020000060C861A089237F00F47842120242EA4E
:10403000036200F4FC6342EA431200F01F0042EA0C
:10404000C00020F07F400862206948612069C86094
:104050000548D7E7FFE7E068D2E7000000B002407C
:104060000102030009000100010202000168896ADF
:10407000084710B500200C290DD2DFE801F0080632
:10408000070C0C0C0C0A0A0A0A0A012010BD0220B7
:1040900010BD052010BDAFF3008010B500200B2926
:1040A0000BD2DFE801F00806070A0A0A0A0606062C
:1040B0000600012010BD022010BDAFF300800000FB
:1040C00010B500F10C010B464160002101724172F4
:1040D0000749016000F120016022184601F098FEB6
:1040E000602320220349143005F05DFE203810BD06
:1040F000A4BC0008156A00080549064A01604FF093
:104100008061C2F88011BFF34F8FBFF36F8F70478C
:10411000A4BC000808E000E000F074B8704700009C
:1041200010B500F071F80149016010BDF4BC000841
:10413000014901607047000008C3000800F018B989
:1041400000F02EB900F035B900F035B900F03CB9F7
:1041500000F044B900F04EB900F06AB970470000B1
:1041600010B5014600F1140300F12C0400F586722D
:1041700000F59270C1E90320114881E81900184642
:1041800001F0ECFD0F4940F8181B01F0E7FD0E4966
:1041900040F8E01B01F0E2FD0C4940F8141B00F070
:1041A000ACF9A0F59070024600F59071081D00F082
:1041B000CBF8A0F5927400F03FF9204610BD000046
:1041C000F8BD0008C8C7000894C70008FCC700086D
:1041D00010B50849016000F5927000F087F91838B1
:1041E00001F0C4FDE03801F0C1FD183801F0BEFD5A
:1041F000143810BDF8BD000800487047E8BB00083F
:1042000004207047704700002DE9FC4102F056FF82
:1042100000263749C663016000F14004262120468C
:10422000FCF790F8204602F0A3FF32490160FF211D
:1042300080F8261086622C3002F00CFC343002F03C
:1042400009FC2D494FF6FF7201608286A0F1A0049F
:10425000A0F1600532464FF448774FF4F0781146EC
:10426000284602F0B0FF28683946426B284690473E
:1042700028684146826B284690474FF07F40A862ED
:1042800004F16C00D22240F23B11074602F09BFF82
:104290000120ADF8040001AA6946ADF80060384677
:1042A00002F0BBFB62224FF4A87104F1A00002F0FF
:1042B0008AFF0222ADF804200323ADF8003004F198
:1042C000A00001A96A46A4F8D43002F0A6FB294652
:1042D000201D05F09FF83946201D05F09BF804F1DC
:1042E000A001201D05F096F82046BDE8FC810000E5
:1042F0000CBE000810C10008ACBF000801490160F5
:1043000002F0B8BA0CBE0008704770470023034A99
:104310008360026018324260C160704740BE00088E
:10432000704701207047000000487047E0450020BA
:1043300010B50446D0F8540100F0DEF82046BDE880
:10434000104000F0B5BD000010B500F095F801492F
:10435000016010BD68BE000810B508461146FFF7A1
:10436000F9FA002800D0012010BD70477047000006
:1043700070B5044601F0CCFD00F018F90146206844
:10438000026E204690472068044A0023D0F88450EB
:104390002046AC46BDE87040D104604700B80BC071
:1043A00010B55A20FFF731FCBDE810405820FFF748
:1043B0002CBC01F049BE10B55A20FFF733FCBDE814
:1043C00010405820FFF72EBC03480160024901202D
:1043D0008839086070470000AC68014010B50921B9
:1043E0005A20FFF730FC0921BDE810405820FFF7A4
:1043F0002ABC00000C4800680C49C0F30A00401EAB
:10440000094A80B2121D08801268C2F30A02521EC5
:104410004A8005493431086003482830016841F07A
:1044200001010160704700000C680140C4000020D9
:1044300002F04EB970470000054A00F5A071D2E9BC
:104440000032CA60C1E90103C0F83C1170470000A6
:1044500038BC000808B5D0F85411009100F59C71E3
:10446000D0F85021024B034807F05AFA08BD00006B
:10447000B8010020B401002070B515460E4601F0C9
:10448000C1F90446134800211348C4F83811C4F890
:104490003C1104601148206004F5A070104AC0E986
:1044A0000021104AD2E90212C0E90212C4E95456AE
:1044B0000D4D286801688A6800219047296891F8A5
:1044C000760008B1C86C00B9886804F0E7F82046A7
:1044D00070BD000074C00008BC010020D8BE0008F8
:1044E000A0C3000838BC0008040200200149016094
:1044F00070470000D8BE0008704700210160704777
:1045000010B50121084805F00DFF084C206038B1B6
:1045100005480121083005F005FF6060002801D141
:10452000AFF3008010BD00004CBC0008C8000020A4
:104530000148406805F016BFC800002010B5064CC1
:104540000021606805F036FF6068BDE810404FF05C
:10455000FF3105F02FBF0000C800002001480068AF
:1045600005F000BFC800002002484FF0FF3100688E
:1045700005F020BFC800002002480021006805F0B7
:1045800019BF0000C80000200148006805F0EABE1D
:10459000C800002010B500F009F80168096BBDE8FB
:1045A0001040084741607047704770470148C06835
:1045B00070470000B001002003484068002808BF91
:1045C00070470268926A1047B00100202DE9F74F4A
:1045D00098B00446BDF968000028C7BFBDF96A005D
:1045E00000281BB0BDE8F08FB4F8E800451EB5F117
:1045F000FF3F36DD04F1A801A8B201EBC000BDF910
:104600006410B0F900208A4227DBB0F90230BDF90E
:1046100066C0634521DBB0F904603244BDF96860CF
:104620003144914219DBB0F90610BDF96A201944F2
:1046300062448A4211DBB4F8E820ABB204F1A8016D
:104640009A4240F2F483521E92B2A1F840209A425C
:1046500084BF01EBC20105F091FB6D1EB5F1FF3F78
:10466000C8DCB4F8E8004FF0000E421E7546B2F107
:10467000FF3F40F3778200BF04F1A80190B201EB45
:10468000C000BDF96410BDF968A0B0F900C001EB2D
:104690000A08E0455CDDB0F904300CEB03078F42FB
:1046A00056DDBDF96630BDF96AB0B0F9026003EBC2
:1046B0000B09B1454CDDB0F906003044984247DDA6
:1046C0008C45D8BFB8451DDCB3420FDBC01A00B221
:1046D000ABEB000109B2ADF86A100029C7BF18445E
:1046E000ADF866001BB0BDE8F08F20E0484509DB5F
:1046F000F01A00B2ADF86A000028DCBF1BB0BDE8BC
:10470000F08F14E0B342A8BF48451FDB614510DBC2
:10471000781A00B2AAEB00031BB2ADF86830002B88
:10472000C7BF0844ADF864001BB0BDE8F08F012599
:104730000EE047450ADBACEB010000B2ADF86800C3
:104740000028DCBF1BB0BDE8F08FF0E74FF0010E92
:10475000521EB2F1FF3F8FDC002D82D1BEF1000F5F
:1047600000F00082B4F8E8000023401EB0F1FF3FE3
:1047700040F3F88104F1A80182B201EBC201BDF956
:104780006460BDF9682006EB020CB1F90020944585
:104790003EDDB1F9045002EB0509B14538DDBDF944
:1047A0006670BDF96A5007EB0508B1F90250A845DB
:1047B0002EDDB1F906A0AA44BA4529DD9642D8BF3C
:1047C000E14511DCBD420BDBA8EB050205EB020C59
:1047D000A1F802C0B1F806C0ACEB0202CA8017E033
:1047E000D045A8BF7A1BF9DABD42A8BFD0450EDB81
:1047F000964208DCACEB020C62440A808A88A2EB89
:104800000C028A8004E0E145D8BFB21AF9DD012329
:10481000401EB0F1FF3FADDC002B00F0A381B4F8E7
:10482000E800461E002EA4BF0DF1500A0DF1480B02
:10483000C0F2988104F1A800B1B200EBC100BDF94B
:104840006420B0F900C00546944527DBB5F9023075
:10485000BDF966108B4221DBB5F904706744BDF9E0
:1048600068C06244BA4219DBB5F906201A44BDF9A2
:104870006A301944914211DBB4F8E820B1B204F176
:10488000A8038A4240F2D382521E92B2A3F840207B
:104890008A4284BF03EBC20105F070FABDF964C01F
:1048A000BDF968000CEB0007B5F90000874240F342
:1048B0005581B5F9041000EB0108E04540F34E8145
:1048C000BDF96630BDF96A10B5F90220194491426C
:1048D00040F34481B5F906909144994540F33E81F7
:1048E00084457CDD934234DDBDF866106E882F88E8
:1048F000891B0EB2BDF86410C91BBDF8687009B2FF
:10490000BC44AF880FFA8CFC384400B2ACEB00001A
:10491000BDF86AC070436344B5F806C01BB2624478
:1049200012B29A1A4A43824209DCEE802888ADF816
:104930006400BDF868000844ADF8680054E6A9803A
:10494000BDF86A003044ADF86A006888ADF86600CA
:104950004AE647452DDDBDF864102E88EF88891B97
:104960000EB26988D21ABDF868303944BDF8667055
:10497000BDF86A806344B5F804C047443FB2604460
:10498000C91B1BB200B209B2181A724348438242D3
:1049900008DC6F80E9802888ADF86400BDF8680005
:1049A000304446E0AE80BDF86A000844ADF86A00C5
:1049B0001AE6ACEB00000FFA80F9A8EB07000FFA3B
:1049C00080F8B4F8E80007281FD2294606A805F0A9
:1049D000D5F92F80A5F80480ADF81C9000E02BE0FD
:1049E000DDE90612CDE91412B4F8E81004F1A800CC
:1049F000082980F01C8200EBC102491CA0F840107D
:104A00005146104605F0BAF9A8E0C1450CDCBDF8E6
:104A1000680029884844ADF86800ADF8641008447F
:104A20002880A5F80480DFE5A5F80490BDF86800AB
:104A30004044ADF86800D7E59A4232DD2988AE8857
:104A4000BDF868703144BDF86460BDF86A803E44CA
:104A5000891B0EB26988EF88D21A3944BDF8667096
:104A6000A0EB0C004744C91B09B272434843824281
:104A70000ADCE980BDF86600BDF86A100844688069
:104A8000BDF868003044D4E7AE80BDF86400BDF8DE
:104A9000682010442880BDF86A000844ADF86A0018
:104AA000A2E5B8452EDD2988AE88BDF8687031448E
:104AB000BDF86460A0EB0C003E44BDF86AC037B29C
:104AC0006344B5F806C0BDF86660B5F8028062447C
:104AD000C91BA6EB08061BB212B209B236B29A1A6B
:104AE00070434A43824204DCEE80BDF8680008440B
:104AF0009FE72F80A9806888ADF86600BDF86A003E
:104B0000304459E0981A07B2A9EB01000FFA80F877
:104B1000B4F8E80007283CD2294604A805F02EF98D
:104B2000A5F80680BDF86600BDF86A1008446880E4
:104B3000ADF81670DDE90412CDE91212B4F8E810F0
:104B400004F1A800082980F0728100EBC102491C21
:104B5000A0F840105946104605F010F9761E7FF572
:104B600069AE00BFB4F8E810082928D2DDE91903BE
:104B7000CDE90203B4F8E800491C04F1A802A4F846
:104B8000E81002EBC00002A905F0F8F81BB0BDE880
:104B9000F08F47450CDCBDF86A0069883844ADF8F1
:104BA0006A00ADF8661008446880A5F806801BE529
:104BB000EF80BDF86A004044ADF86A0014E50020BB
:104BC0000A90401E169040080290481E03907CD424
:104BD000039904F1A80089B200EBC107B888F988ED
:104BE00010FB01FB0398461EB6F1FF3F7DDB002E54
:104BF000B8BF19AD04DB04F1A800B1B200EBC105E8
:104C0000B5F90480B5F9069018FB09FA39466846EB
:104C100005F0B4F8B8F1000FC8BFB9F1000F15DD09
:104C2000BDF90420002A04DDBDF90600119000281A
:104C30001FDC2888ADF800006888ADF80200A8885D
:104C4000ADF80400B5F80600ADF80600BDF80400A4
:104C5000BDF8061010FB01F00BEB0A01411AC21758
:104C600000EB5270B1EBE00F31DA039816960A9020
:104C700040E0BDF90010B5F900C08C45D4BF6046D6
:104C800008468646BDF90200B5F90250A842B4BFF5
:104C900003462B4611440CEB080209B212B29142B2
:104CA000D8BF1146119A104405EB090200B212B2A6
:104CB0009042D8BF1046ADF800E0A1EB0E01ADF870
:104CC0000230ADF80410C01ABEE716E00DE00298FD
:104CD000884206DD039816960A90002918BF0291B3
:104CE00008D0761EB6F1FF3F81DA0398401E03908C
:104CF0007FF56EAF1698002860DA0A9804F1A801D3
:104D000080B201EBC000B0F904100029C4BFB0F9B3
:104D10000630002B14DDBDF96820002AC4BFBDF9A0
:104D20006A70002F21DC0188ADF864104188ADF86D
:104D300066108188ADF86810B0F80610ADF86A10FA
:104D40000A9AB4F8E83092B204F1A80193426ED9FD
:104D50005B1E9BB2A1F84030934288BF01EBC301B8
:104D60007FF642AC05F00AF83EE4BDF96460B0F9A4
:104D700000804645B4BF35464546BDF966A0B0F94A
:104D800002C0E245B4BFD146E1463244414412B2CA
:104D900009B28A42D8BF0A460AEB0701634409B246
:104DA0001BB29942D8BF1946ADF86450521BADF8FA
:104DB0006690ADF86820A1EB0901BFE70A9804F1FD
:104DC000A80180B201EBC0050846169989B200EB34
:104DD000C100B0F904100029C4BFB0F90690B9F1C0
:104DE000000F11DDB5F904A0BAF1000FC4BFB5F989
:104DF00006B0BBF1000F1CDC02882A8042886A8062
:104E00008288AA80C288EA8019A904F0B7FF0A98AC
:104E100080B204EBC001D1E92A01CDE919010A9859
:104E2000B4F8E82080B204F1A80182422AD8AFF396
:104E30000080B5F90060B0F900C06645B4BF3246E5
:104E40006246B5F90280B0F90270B845B4BF434676
:104E50003B465644614436B20FFA81FC6645D8BFE2
:104E6000664608EB0B0107EB090C09B20FFA8CFC44
:104E70006145D8BF61462A80B21A6B80AA80C91AE0
:104E8000E980C1E7521E92B2A1F84020824284BF5D
:104E900001EBC20128467FF6A7AB63E703484068F1
:104EA000002808BF70470268D2691047B00100208F
:104EB0002DE9F0414E4E0446B06808B1017A19B1AF
:104EC00094F83511C9B907E0002184F8351101685B
:104ED0008968BDE8F041084700281CBF007A002817
:104EE0000BD0706810B1016809698847B068016823
:104EF000C9688847012084F83501B4F8840000258A
:104F000000280FDD601990F8880030B1201DA9B28B
:104F100050F821000168C96C8847B4F884006D1C02
:104F2000A842EFDC0025B4F884102846002919DDDA
:104F3000211891F8882082B1A8420DD0231DAAB271
:104F400003EB820C82B253F82220CCF800206219C5
:104F500091F8881082F888106D1CB4F88410401CF9
:104F60008142E5DCB4F88420954236DA501E211DDA
:104F700080B2824201D8AFF30080121A002A26DDE7
:104F8000002312F0010205D001EB80035B6841F8B9
:104F900020300123B1F880C0ACEB000C944516DD45
:104FA00000EB030C01EB8C075B1C7F6841F82C7055
:104FB00000EB030C01EB8C075B1C7F6841F82C7045
:104FC000B1F880C0921CACEB000C9445E8DCB1F861
:104FD0008000401EA1F88000C4E77068002808BF68
:104FE000BDE8F0810168496ABDE8F041084700006A
:104FF000B001002003484068002808BF70470268DD
:1050000092691047B001002003484068002808BF9B
:1050100070470268126A1047B00100202DE9F04F76
:10502000A9B00026044680F8341100291EBFA0F85C
:10503000E86029B0BDE8F08FB4F930010028C4BFA2
:10504000B4F93201002811DDD4E94B122046FFF7F4
:10505000BDFAADF80060ADF804606946ADF80260D5
:10506000ADF8066004F5967004F088FEB4F8E80028
:10507000002818BF0120DFF8FC83D8F8101011B306
:1050800008F11405B5F904100029C4BFB5F90610DC
:10509000002918DDF84800F0FBFE294602A804F0BC
:1050A0006DFEDDE902122046FFF790FAADF80060D0
:1050B000ADF804606946ADF80260ADF806602846B8
:1050C00004F05CFE04E0002804BF29B0BDE8F08FC6
:1050D00008A808231A46E94904F065FEA0F84060D4
:1050E000B8F80050B4F8E800A84288BF1EAF1BD93A
:1050F00004F1A80000EBC5010DF12009384604F0C9
:105100003DFEBDF86000082874D209EBC002401CC7
:10511000ADF860003946104604F030FE681C85B2D8
:10512000B4F8E8008542E3D3D2480588B4F82A01F0
:10513000A84288BF02AF11D904F1EA0000EBC50113
:10514000384604F01BFEDDE902122046FFF73EFA66
:10515000681C85B2B4F82A01A842EDD8C848006896
:1051600090F84800012847D0DFF81483022800F0A7
:105170002181C0480588B4F8E800A84219D900BFC9
:1051800004EBC501D1E92A01CDE90201BDF90C000A
:105190000028C4BFBDF90E00002804DD206802A964
:1051A000426B20469047681C85B2B4F8E800A842DC
:1051B000E6D8B4480078002804BF29B0BDE8F08FD5
:1051C000A4F82A61AB480788BDF86000B84287BFE1
:1051D0000DF1200820AD29B0BDE8F08F08EBC70124
:1051E00004F1EA06284604F0C9FDB6F84000082894
:1051F000C0F04082AFF300809E4BB4F8E820002757
:105200001888824211DD00BF04F1A8011FFA80FC5A
:1052100001EBCC01B1F902C0B1F906106144B94209
:10522000C8BF0F46401C8242EEDC974800880F281A
:105230008CBFC00801204FF0000C0790ADF868C08B
:10524000ADF86CC0ADF86AC0ADF86EC0002FC8BF35
:105250000DF110087EDD8A4D28680168D1F89410A0
:105260008847BDF96A10BDF96E201144079A0A44B7
:105270008242C8BF874203DD8142C8BF00296ADD80
:105280000BB2834201DC874200DA38467F4A401A7B
:105290004FF0000C1288ADF87420ADF870C0ADF876
:1052A00076001CA9ADF872301AA804F067FD7148A9
:1052B0000588B4F8E800A8426ED900BF04F1A80040
:1052C00000EBC501404604F059FDBDF96810BDF979
:1052D0006C0001EB000CBDF9100084454DDDBDF9FB
:1052E000142000EB0209894547DDBDF96A30BDF99C
:1052F0006E2003EB020ABDF9122092453DDDBDF997
:1053000016B093449B4538DD8842D8BF08469A4280
:10531000D8BF1A460FFA89F10FFA8CF39942A8BF49
:105320001946091AADF814100FFA8BF30FFA8AF127
:105330008B42B8BF1946891AADF81000ADF81610A7
:10534000ADF81220DDE90401CDE92201BDF98C00A0
:10535000002801E028E019E0C4BFBDF98E00002854
:1053600004DD206822A9426B20469047681C85B264
:10537000B4F8E800A842A1D80EE0ADF81060ADF88E
:105380001460ADF81260ADF81660DBE728680168BC
:10539000D1F8902001219047BDF96A10BDF96E0047
:1053A0000844B842FFF657AF354800680168496ABB
:1053B0008847FEE636480078012814BFDFF8B4902D
:1053C0002C4F2AD0B4F8E870002F3FF4F2AEB4F9B5
:1053D000AA10B4F9AE0000250844B9F80010491C21
:1053E0008AB297427DD900BF04F1A801ABB201EBAC
:1053F000C301B1F90230B1F904A004F1A80101EB35
:10540000C201B1F902C09C456CDAC88815466044F7
:1054100000B28342B8BF1846BCE0B4F8E890B9F1D6
:10542000000F3FF4C6AE39880025491CB4F9A80026
:105430008AB291453ED900BF04F1A801ABB201EB9D
:10544000C301B1F90030B1F904C0B1F906B09C4410
:1054500004F1A80101EBC203B3F90010B3F904A0F1
:105460008A44E24516DD15468C45C8BF60461DDC02
:1054700008461BE0B0010020C40100206768000856
:1054800004020020F5010020FC010020FA010020A8
:10549000F401002007D1B3F906305B45C8BF1546BB
:1054A000814203DBE4E75045B8BF5046511C8AB245
:1054B0009145C1D8A9B204EBC102D2E92A12CDE9C3
:1054C0000212BDF90C101429B8BFBDF90800BDF8CF
:1054D0000820ADF808001144091AADF80C1002A814
:1054E00001E05CE046E000F09DFCBDF90C00002806
:1054F000C4BFBDF90E0000288FDD1428C8BF1420DA
:1055000080B20090D8F80000BDF80C30BDF80A2039
:10551000D0F800C0BDF80810DCF888C0E04781462C
:10552000ADF80E0002A800F0B3FC206802A9426B9F
:105530002046904704F1A801A8B201EBC000818881
:10554000A1EB090109B2818000297FF466AFB4F8AC
:10555000E820A9B204F1A8038A427FF64BAE521E9E
:1055600092B2A3F840208A4284BF03EBC20104F048
:1055700005FC52E70BD1B1F904309A45B8BF154686
:10558000C988614409B28142D8BF084602E060453B
:10559000C8BF6046511C8AB297423FF625AF04F15E
:1055A000A802A9B202EBC107B7F906101429BCBFC3
:1055B000B7F902000844B7F90420002AC8BF00293F
:1055C0007FF700AFADF81860ADF81C60ADF81A6059
:1055D000ADF81E603988ADF81810B7F90210ADF8B3
:1055E0001A10BA88401AADF81C201428C8BF14201D
:1055F00080B27B88FA881A4412B2511A8142D8BF0D
:10560000084680B20090D8F80000BDF81C30BDF804
:105610001A20D0F800C0BDF81810DCF888C0E047A8
:10562000ADF81E00206806A9426B20469047788896
:10563000BDF81E1008447880F888BDF81E10401A86
:1056400000B2F88000287FF4BDAEB4F8E800AAB23A
:1056500004F1A80190427FF6CDAD401E80B2A1F8C2
:10566000400090427FF6AEAE01EBC001384604F038
:1056700085FBA7E606EBC002401CA6F840002946C1
:10568000104604F07BFB781C87B2BDF860008742AF
:10569000FFF4A4AD29B0BDE8F08F0021A0F884107C
:1056A000C0F88810C0F88C10C0F89010C0F89410A2
:1056B000C0F89810C0F89C10C0F8A010C0F8A41052
:1056C000704770472DE9F04781463D4884B0002679
:1056D00000880F460FFA80F83A48344600880FFADF
:1056E00080FA684604F04AFBBDF90050A84549DD40
:1056F000BDF904002B18B34244DDBDF9020004EBF0
:105700000A0181423EDDBDF906200244A24239DD94
:10571000B542D8BF3546A042C8BF044618B206EB12
:1057200008031BB29842A8BF1846401BADF80400FE
:1057300010B209B28842A8BF0846001BADF800505D
:10574000ADF80600ADF80240009802900198039071
:1057500002A9384604F012FB1B4C6068002804BF05
:1057600004B0BDE8F08799F83411A9B1394668460C
:1057700004F004FBDDE9001204B04846BDE8F04740
:10578000FEF724BF0020ADF80000ADF80400ADF82E
:105790000200ADF80600D7E701688A6839469047ED
:1057A000206918B101688A6839469047074800683F
:1057B0000168CA6904B03946BDE8F04710470000E7
:1057C000FA010020FC010020B001002004020020AA
:1057D0000A4900B50A880A4983B04FF0000C0988CD
:1057E000ADF800C0ADF80420ADF802C0ADF8061069
:1057F00001684A6B6946904703B000BDFA0100207A
:10580000FC01002070B5224901600024A0F884400A
:105810000823A8301A461F4904F0C5FAA0F84040F2
:10582000082342301A461B4904F0BDFAA0F8404054
:1058300020F8424FA0F5967544808480C48004729D
:10584000447215491548FAF735FE154E002818BF61
:10585000348006D14FF4806030800220706001F007
:1058600089FAF4607460B460A5F88440C5F8884093
:10587000C5F88C40C5F89040C5F89440C5F89840EC
:10588000C5F89C40C5F8A0402846C5F8A44070BDA6
:1058900030BF000867680008CDB5E8B5C2A507F4B9
:1058A000B00100200149086070470000F0010020AD
:1058B000012101727047704790F82C2082B042B1EC
:1058C0000A79012A05D1C28DADF80020038EC38567
:1058D000028602B000F0FEB870B50D46044660685E
:1058E00001684A6890470028F9D10D4E3068016878
:1058F000896F8847FEF740FE0121306800F0DCFB2D
:10590000606801688A68294690472068C16A204615
:10591000884730680168496FBDE87040084700005B
:105920000402002070477047016809690847406811
:1059300001680968084710B50446406801680968AD
:10594000884738B9207A28B1606801684969884772
:1059500000202072606801680968884718B1BDE8B6
:105960001040FEF711BE2068416A2046BDE8104095
:10597000084710B5FEF7F8FDBDE81040FEF7EEBD94
:105980000168496C084710B5044640680168096819
:105990008847002818BF10BD607A002808BF10BDD6
:1059A000207A002818BF10BD2068416A2046BDE853
:1059B0001040084770B504460120207260680168F5
:1059C0008969884705460068402842D00CDC0428D5
:1059D0001CD004DC01283CD002282FD014E0082879
:1059E00020D0202835D00FE0B0F5007F31D005DC85
:1059F000802818BFB0F5807F06D12AE0B0F5806F0F
:105A000027D0B0F5006F19D0AFF300802068297F50
:105A1000826B2046904720682946026B2046BDE8ED
:105A2000704010472068297F826B2046904720688D
:105A30002946426B2046BDE8704010472068C16B84
:105A40002046884720682946426B2046BDE87040C2
:105A500010472068C16B2046884720682946026BA2
:105A60002046BDE8704010472DE9F04F87B08146D1
:105A7000DDE9178CDDE91367DDE911451098DDF8E4
:105A800064B0DDF858A08DE8F111484603F096FAAD
:105A9000054940F8181B1599A0E8020C1A9940F81E
:105AA000241907B0BDE8F08F1CC00008704710B57E
:105AB0000446806A002808BF10BD0168C96888478D
:105AC000002808BF10BDA06A01688A682146BDE8A9
:105AD0001040104770B5044690F82C5008790E46D7
